:020000040800F2
:10000000D006002089010008910100089301000832
:100010009501000897010008990100080000000000
:100020000000000000000000000000009B0100082C
:100030009D010008000000009F010008A1010008C8
:10004000A3010008A3010008A3010008A301000800
:10005000A3010008A3010008A3010008A3010008F0
:10006000A3010008A3010008A3010008A3010008E0
:10007000A3010008A3010008A3010008A3010008D0
:10008000A3010008A3010008A3010008A3010008C0
:10009000A3010008A3010008A3010008A3010008B0
:1000A000A3010008A3010008A3010008A3010008A0
:1000B000A3010008A3010008A3010008A301000890
:1000C000A3010008A3010008A3010008A301000880
:1000D000A3010008A3010008A3010008A301000870
:1000E000A3010008A3010008A301000800F002F822
:1000F00000F03AF80AA090E8000C82448344AAF188
:100100000107DA4501D100F02FF8AFF2090EBAE885
:100110000F0013F0010F18BFFB1A43F0010318473B
:10012000CC0A0000EC0A0000103A24BF78C878C15D
:10013000FAD8520724BF30C830C144BF04680C60ED
:10014000704700000023002400250026103A28BF35
:1001500078C1FBD8520728BF30C148BF0B60704739
:100160001FB51FBD10B510BD00F031F81146FFF7E7
:10017000F7FF00F005FD00F04FF803B4FFF7F2FFC2
:1001800003BC00F053F800000948804709480047C5
:10019000FEE7FEE7FEE7FEE7FEE7FEE7FEE7FEE737
:1001A000FEE7FEE704480549054A064B7047000094
:1001B00061090008ED000008D0000020D0060020F2
:1001C000D0020020D002002070477047704775466B
:1001D00000F028F8AE4605006946534620F00700B7
:1001E000854618B020B5FFF7DDFFBDE820404FF091
:1001F00000064FF000074FF000084FF0000B21F011
:100200000701AC46ACE8C009ACE8C009ACE8C009DD
:10021000ACE8C0098D4670470446AFF30080204625
:10022000FFF7ABFF0048704770000020014918201D
:10023000ABBEFEE726000200704721B1826842F0A3
:100240000102826003E0826822F00102826070474E
:1002500021B1826842F48072826003E0826822F4F5
:10026000807282607047014600208A6802F00402B2
:100270000AB1012000E000207047014600208A6892
:1002800002F008020AB1012000E0002070470000DF
:1002900030B502460020002350680F4C20400D79F5
:1002A0000C6844EA05242043506090680B4C2040C1
:1002B000D1E902542C434D7944EA4504204390602F
:1002C000D06A20F470000C7C641EE4B2234340EA40
:1002D0000350D06230BD0000FFFEF0FFFDF7F1FFDC
:1002E000F0B504460D4600200021092D11DDE0681F
:1002F000A5F10A0606EB4607072606FA07F188432A
:10030000A5F10A0606EB460603FA06F10843E0608B
:100310000CE0206905EB4507072606FA07F188433C
:1003200005EB450603FA06F108432061072A0FDAB8
:10033000606B561E06EB86071F2606FA07F18843F8
:10034000561E06EB860605FA06F10843606322E0B6
:100350000D2A0FDA206BD61F06EB86071F2606FA3A
:1003600007F18843D61F06EB860605FA06F1084317
:10037000206310E0E06AA2F10D0606EB86071F2657
:1003800006FA07F18843A2F10D0606EB860605FA88
:1003900006F10843E062F0BD816841F00801816028
:1003A000704721B1826842F4A002826003E0826853
:1003B00022F4A00282607047816841F004018160EC
:1003C000704721B1026842F00102026004E0026855
:1003D0004FF6FE731A4002607047000000B58BB004
:1003E00010480090104801900020029020200390B7
:1003F0000020049080200590400006908000079027
:10040000202008904FF44050099000200A9069463F
:10041000064800F0F1F801210448FFF7D2FF0BB0C5
:1004200000BD00004C2401403000002008000240C4
:1004300000B58BB00F4800F023F80F4800900F482C
:10044000019010200290082003900020049080204A
:100450000590002006900790202008904FF440500F
:10046000099000200A906946024800F0C5F80BB0D8
:1004700000BD000044000240043801401400002088
:1004800001684FF6FE721140016000210160416079
:100490008160C1604B49884208D14A49083949689E
:1004A00041F00F01474A083A51608AE0454914314A
:1004B000884208D143490839496841F0F001414A6E
:1004C000083A51607DE03F492831884208D13D49D2
:1004D0000839496841F470613A4A083A516070E05D
:1004E00038493C31884208D136490839496841F4D5
:1004F0007041344A083A516063E0324950318842D1
:1005000008D130490839496841F470212D4A083A28
:10051000516056E02B496431884208D12949083995
:10052000496841F47001274A083A516049E0254979
:100530007831884208D123490839496841F070610F
:10054000204A083A51603CE01F49884206D1011F09
:10055000096841F00F01021F116032E01A4914319D
:10056000884208D11849091F096841F0F001164A6C
:10057000121F116025E014492831884208D1124920
:10058000091F096841F470610F4A121F116018E0D9
:100590000D493C31884208D10B49091F096841F4D3
:1005A0007041094A121F11600BE00749503188421F
:1005B00007D10549091F096841F47021024A121F39
:1005C0001160704708000240080402400146002004
:1005D000002201F0805313B1054B1A6801E0054B6E
:1005E0001A6802EA01030BB1012000E00020704705
:1005F000000402400000024010B50022026847F6E5
:10060000F0739A430C6A8B6823430C6923434C694B
:1006100023438C692343CC6923434C6A23438C6A6C
:1006200023431A430260CB6843600B6883604B68C6
:10063000C36010BD2DE9F0410246002500260020D0
:1006400000230024002791F803C00CF00F0591F857
:1006500003C00CF0100CBCF1000F03D091F802C0E5
:100660004CEA050591F800C0BCF1000F31D01468C8
:1006700000202BE04FF0010C0CFA00F3B1F800C0A1
:100680000CEA03069E4220D183004FF00F0C0CFAB7
:1006900003F7BC4305FA03FC4CEA040491F803C0D9
:1006A000BCF1280F06D14FF0010C0CFA00FCC2F887
:1006B00014C00AE091F803C0BCF1480F05D14FF017
:1006C000010C0CFA00FCC2F810C0401C0828D1D361
:1006D0001460B1F800C0BCF1FF0F34DD5468002095
:1006E0002EE000F1080C4FF0010808FA0CF3B1F805
:1006F00000C00CEA03069E4221D183004FF00F0C8C
:100700000CFA03F7BC4305FA03FC4CEA040491F825
:1007100003C0BCF1280F05D100F1080C08FA0CF851
:10072000C2F8148091F803C0BCF1480F07D100F162
:10073000080C4FF0010808FA0CF8C2F81080401CB1
:100740000828CED35460BDE8F081000029B1064AE4
:1007500052690243044B5A6104E0034A52698243DE
:10076000014B5A61704700000010024029B1064A4F
:1007700092690243044B9A6104E0034A92698243FE
:10078000014B9A61704700000010024010B5012132
:1007900044F20D20FFF7EAFF01210846FFF7D6FFDC
:1007A00010BD000030B500210022002400232D4D93
:1007B0006D6805F00C0121B1042905D0082923D169
:1007C00005E0294D056022E0274D05601FE0254D1D
:1007D0006D6805F47012234D6D6805F480340225B0
:1007E00005EB92421CB9214D554305600BE01D4DB0
:1007F0006D6805F400351DB11C4D5543056002E0E0
:10080000194D5543056002E0174D056000BF00BF5C
:10081000144D6D6805F0F0010909154D6B5C056814
:10082000DD4045600F4D6D6805F4E061090A104D2B
:100830006B5C4568DD4085600A4D6D6805F460516C
:10084000C90A0B4D6B5C4568DD40C560054D6D68A0
:1008500005F44041890B074D6B5CC568B5FBF3F5AA
:10086000056130BD0010024000127A0000093D0011
:10087000000000201000002010B500F001F810BDAD
:100880000CB50020019000903348006840F480309F
:100890003149086000BF3048006800F40030009023
:1008A0000198401C0190009818B90198B0F5A06F0C
:1008B000F1D12948006800F4003010B10120009007
:1008C00001E0002000900098012843D123480068EF
:1008D00040F01000214908600846006820F003003D
:1008E00008600846006840F0020008601A48406846
:1008F000194948600846406848600846406840F426
:10090000806048600846406820F47C1048600846D3
:10091000406840F4E81048600846006840F0807085
:10092000086000BF0C48006800F000700028F9D093
:100930000948406820F003000749486008464068BD
:1009400040F00200486000BF0348406800F00C001F
:100950000828F9D10CBD0000001002400020024020
:1009600010B51348006840F00100114908600846BE
:100970004068104908400E494860084600680E4922
:1009800008400B4908600846006820F48020086091
:100990000846406820F4FE0048604FF41F0088605D
:1009A000FFF76AFF4FF000600449086010BD0000C7
:1009B000001002400000FFF8FFFFF6FE08ED00E027
:1009C00021B1828942F40052828104E082894DF68D
:1009D000FF731A40828170471AB1838A0B43838266
:1009E00002E0838A8B438382704700002DE9F04741
:1009F00086B005460E460024A24600BFA146002749
:100A0000B08900B100BF2F462C8A4CF6FF7004401D
:100A1000F08804432C82AC894EF6F3100440B08871
:100A200031890843718908430443AC81AC8A4FF68D
:100A3000FF400440B0890443AC8201A8FFF7B2FE36
:100A40001F48874202D1DDF810A001E0DDF80CA0BC
:100A5000A88900F4004040B10AEBCA0000EB0A107C
:100A600031684900B0FBF1F807E00AEBCA0000EB7F
:100A70000A1031688900B0FBF1F86420B8FBF0F08F
:100A800004012009642101FB1089A88900F40040B9
:100A900040B1322000EBC900B0FBF1F000F00700DC
:100AA000044308E0322000EB09106421B0FBF1F0B0
:100AB00000F00F0004432C8106B0BDE8F087000071
:100AC0000038014000B585B0002000908DF804008A
:100AD00001208DF805004FF4602002900020039063
:100AE00001208DF8100069461448FFF7D1FB05235B
:100AF00001220E211148FFF7F3FB01210F48FFF7F8
:100B0000A7FB01210D48FFF798FB0C48FFF744FCB9
:100B100000BF0A48FFF7B1FB0028FAD10748FFF7EA
:100B20004BFC00BF0548FFF79EFB0028FAD10121CE
:100B30000248FFF736FC05B000BD0000002401406C
:100B400008B50220ADF8000000208DF803006946CA
:100B50000148FFF76FFD08BD0008014008B54FF4DC
:100B60000070ADF8000018208DF8030003208DF808
:100B7000020069460148FFF75DFD08BD000801401D
:100B8000FFF704FEFFF7EAFFFFF752FCFFF7D8FF7D
:100B9000FFF724FCFFF796FF4FF4E130104908609F
:100BA00000208880C88008818881082048810D48FD
:100BB000FFF71CFF012280210A48FFF70DFF0121EA
:100BC0000848FFF7FDFE01210748FFF7FAFB00BFC9
:100BD0004FF40050FFF7FAFC0028F9D000BFFEE701
:100BE0002000002000380140440002400C0C0008A6
:100BF0000000002020000000280100082C0C000844
:100C000020000020B00600004401000800000000A1
:100C1000010203040102030406070809020406088E
:0C0C20004346477E4848477E0000000025
:04000005080000ED02
:00000001FF
