:020000040800F2
:10000000780A0020C9010008D1010008D3010008C6
:10001000D5010008D7010008D90100080000000040
:10002000000000000000000000000000DB010008EC
:10003000DD01000800000000DF010008E101000808
:10004000E3010008E3010008E3010008E301000800
:10005000E3010008E3010008E3010008E3010008F0
:10006000E3010008E3010008E3010008E3010008E0
:10007000E3010008E3010008E3010008E3010008D0
:10008000E3010008E3010008E3010008E3010008C0
:10009000E3010008E3010008E3010008E3010008B0
:1000A000E3010008E3010008E3010008E3010008A0
:1000B000E3010008E3010008E3010008E301000890
:1000C000E3010008E3010008E3010008E301000880
:1000D000E3010008E3010008E3010008E301000870
:1000E000E3010008E3010008E301000800F002F862
:1000F00000F05AF80AA090E8000C82448344AAF168
:100100000107DA4501D100F04FF8AFF2090EBAE865
:100110000F0013F0010F18BFFB1A43F0010318473B
:10012000C4060000E40600000A444FF0000C10F87A
:10013000013B13F0070408BF10F8014B1D1108BF65
:1001400010F8015B641E05D010F8016B641E01F805
:10015000016BF9D113F0080F1EBF10F8014BAD1C55
:100160000C1B09D16D1E58BF01F801CBFAD505E073
:1001700014F8016B01F8016B6D1EF9D59142D6D3CD
:10018000704700000023002400250026103A28BFF5
:1001900078C1FBD8520728BF30C148BF0B607047F9
:1001A0001FB51FBD10B510BD00F031F81146FFF7A7
:1001B000F7FF00F0C9FA00F04FF803B4FFF7F2FFC1
:1001C00003BC00F053F80000094880470948004785
:1001D000FEE7FEE7FEE7FEE7FEE7FEE7FEE7FEE7F7
:1001E000FEE7FEE704480549054A064B7047000054
:1001F0002D050008ED00000878040020780A002092
:1002000078060020780600207047704770477546D2
:1002100000F028F8AE4605006946534620F0070076
:10022000854618B020B5FFF7DDFFBDE820404FF050
:1002300000064FF000074FF000084FF0000B21F0D0
:100240000701AC46ACE8C009ACE8C009ACE8C0099D
:10025000ACE8C0098D4670470446AFF300802046E5
:10026000FFF7ABFF00487047140400200149182035
:10027000ABBEFEE72600020070472DE9F0410246C2
:1002800000250026002000230024002791F803C049
:100290000CF00F0591F803C00CF0100CBCF1000F2E
:1002A00003D091F802C04CEA050591F800C0BCF1FA
:1002B000000F31D0146800202BE04FF0010C0CFA35
:1002C00000F3B1F800C00CEA03069E4220D183007F
:1002D0004FF00F0C0CFA03F7BC4305FA03FC4CEA91
:1002E000040491F803C0BCF1280F06D14FF0010CB3
:1002F0000CFA00FCC2F814C00AE091F803C0BCF18B
:10030000480F05D14FF0010C0CFA00FCC2F810C0E8
:10031000401C0828D1D31460B1F800C0BCF1FF0F15
:1003200034DD546800202EE000F1080C4FF0010885
:1003300008FA0CF3B1F800C00CEA03069E4221D182
:1003400083004FF00F0C0CFA03F7BC4305FA03FCD3
:100350004CEA040491F803C0BCF1280F05D100F168
:10036000080C08FA0CF8C2F8148091F803C0BCF12C
:10037000480F07D100F1080C4FF0010808FA0CF8FB
:10038000C2F81080401C0828CED35460BDE8F0812C
:10039000416170470161704729B1064AD269024341
:1003A000044BDA6104E0034AD2698243014BDA610B
:1003B000704700000010024029B1064A92690243CA
:1003C000044B9A6104E0034A92698243014B9A61AB
:1003D000704700000010024021B1028842F0400244
:1003E000028004E002884FF6BF731A400280704713
:1003F0000246002013890B400BB1012000E00020D1
:1004000070478181704710B50022028802F4415282
:100410000B884C8823438C882343CC8823430C8946
:1004200023434C8923438C892343CC8923431A4398
:100430000280838B4FF2FF74234083830B8A0382F5
:1004400010BD10B500F002F810BD00000CB5002082
:10045000019000903348006840F4803031490860D2
:1004600000BF3048006800F4003000900198401C44
:100470000190009818B90198B0F5A06FF1D1294802
:10048000006800F4003010B10120009001E000206D
:1004900000900098012843D12348006840F01000E4
:1004A000214908600846006820F0030008600846FB
:1004B000006840F0020008601A4840681949486026
:1004C0000846406848600846406840F480604860DC
:1004D0000846406820F47C1048600846406840F4B4
:1004E000E81048600846006840F08070086000BF6F
:1004F0000C48006800F000700028F9D009484068F6
:1005000020F00300074948600846406840F00200B8
:10051000486000BF0348406800F00C000828F9D18B
:100520000CBD0000001002400020024010B513482E
:10053000006840F001001149086008464068104911
:1005400008400E494860084600680E4908400B49BB
:1005500008600846006820F480200860084640686B
:1005600020F4FE0048604FF41F008860FFF769FF29
:100570004FF000600449086010BD00000010024008
:100580000000FFF8FFFFF6FE08ED00E0064A1268E3
:1005900041F28833B2FBF3F25043002100E0491CE2
:1005A0008142FCD3704700000000002010B50020FD
:1005B00000F0D6F8102000F0D3F8402000F0D0F87A
:1005C000002405E00449085D00F0DAF8601C84B2FC
:1005D000B4F5806FF6DB10BD1400002008B5E020F4
:1005E000ADF8000010208DF8030003208DF8020004
:1005F00069460248FFF741FE08BD000000080140BF
:1006000010B501218803FFF7C7FE01210C20FFF779
:10061000D3FE10BD00B587B018208DF81B00032055
:100620008DF81A004FF42040ADF8180006A91348C1
:10063000FFF723FE4FF44040ADF804000020ADF872
:1006400008000220ADF80A000120ADF80C004002BD
:10065000ADF80E002020ADF810000020ADF812001B
:100660004FF48270ADF8060001A90548FFF7CBFEF4
:1006700001210348FFF7B0FE07B000BD000C0140A8
:100680000038004010B580212E48FFF783FE01207E
:10069000FFF77CFF80212B48FFF77AFE0A20FFF747
:1006A00075FF80212748FFF775FE8D2000F058F870
:1006B000142000F055F8AE2000F052F8D52000F0DC
:1006C0004FF8802000F04CF8A82000F049F83F20B7
:1006D00000F046F8D32000F043F8002000F040F886
:1006E000402000F03DF8202000F03AF8002000F013
:1006F00037F8A12000F034F8C82000F031F8DA20F3
:1007000000F02EF8122000F02BF8812000F028F8DD
:10071000CF2000F025F8D92000F022F8F12000F0D9
:100720001FF8DB2000F01CF8402000F019F8A4208E
:1007300000F016F8A62000F013F8AF2000F010F833
:1007400010BD000000080140FFF75AFFFFF746FF09
:10075000FFF760FFFFF796FFFFF728FF00BFFEE7F8
:1007600010B5044640210548FFF712FE204600F070
:1007700017F840210148FFF70DFE10BD00080140A9
:1007800010B5044620210548FFF704FE4021034828
:10079000FFF700FE204600F003F810BD00080140FE
:1007A00010B5044620210D48FFF7F2FD21460C4804
:1007B000FFF727FE00BF02210948FFF719FE0028B6
:1007C000F9D000BF80210648FFF712FE0128F9D0BA
:1007D00020210248FFF7DEFD10BD000000080140A7
:1007E0000038004004080008000000201404000045
:1007F000280100084C0900081404002064060000C9
:10080000840100081184A24A0400091301020304B0
:10081000060708090430050407027944163E0A0A4F
:100820000A04161C2222221C1B1E2002111B3E2A17
:100830000139186A340C391E492F19101214061484
:10084000060830080622803A4003080A30804040FB
:1008500020201008847E91296C1518342C08152846
:100860002C3414123A1518A4A47C4D3C0404381BF3
:10087000153E04083EE53C12123C122012082202EA
:100880001812F008048442221111182844840A1214
:1008900021C0C11512081A2098014A39DC2901A18A
:1008A0007348011808071AA3C4484830FB70088829
:1008B00084454221100F0A14924A2901890E091019
:1008C0001F3C4020606C680D101010703818080430
:1008D000040202016BC15B02103D1EFE41605088A4
:1008E00026700A0505081021A24428F00212244BA4
:1008F0001C034B100DFF80C02030180CE67F212018
:10090000C0080C1480E03020161E0604020E066A91
:10091000011A120212081013208043242810118A91
:100920008CC44222A1111088044312101204091928
:10093000493CF01E071E330603092D7201130E29D0
:0C0940003F10080402462A0E77013C001C
:04000005080000ED02
:00000001FF
