:020000040800F2
:10000000780600208901000891010008930100088A
:100010009501000897010008990100080000000000
:100020000000000000000000000000009B0100082C
:100030009D010008000000009F010008A1010008C8
:10004000A3010008A3010008A3010008A301000800
:10005000A3010008A3010008A3010008A3010008F0
:10006000A3010008A3010008A3010008A3010008E0
:10007000A3010008A3010008A3010008A3010008D0
:10008000A3010008A3010008A3010008A3010008C0
:10009000A3010008A3010008A3010008A3010008B0
:1000A000A3010008A3010008A3010008A3010008A0
:1000B000A3010008A3010008A3010008A301000890
:1000C000A3010008A3010008A3010008A301000880
:1000D000A3010008A3010008A3010008A301000870
:1000E000A3010008A3010008A301000800F002F822
:1000F00000F03AF80AA090E8000C82448344AAF188
:100100000107DA4501D100F02FF8AFF2090EBAE885
:100110000F0013F0010F18BFFB1A43F0010318473B
:10012000A0060000C0060000103A24BF78C878C1BD
:10013000FAD8520724BF30C830C144BF04680C60ED
:10014000704700000023002400250026103A28BF35
:1001500078C1FBD8520728BF30C148BF0B60704739
:100160001FB51FBD10B510BD00F031F81146FFF7E7
:10017000F7FF00F021FB00F04FF803B4FFF7F2FFA8
:1001800003BC00F053F800000948804709480047C5
:10019000FEE7FEE7FEE7FEE7FEE7FEE7FEE7FEE737
:1001A000FEE7FEE704480549054A064B7047000094
:1001B00059070008ED0000087800002078060020AC
:1001C000780200207802002070477047704775461B
:1001D00000F028F8AE4605006946534620F00700B7
:1001E000854618B020B5FFF7DDFFBDE820404FF091
:1001F00000064FF000074FF000084FF0000B21F011
:100200000701AC46ACE8C009ACE8C009ACE8C009DD
:10021000ACE8C0098D4670470446AFF30080204625
:10022000FFF7ABFF00487047140000200149182079
:10023000ABBEFEE726000200704710B5012188031F
:1002400000F062F90121092000F06EF910BD0000F4
:10025000064A126841F28833B2FBF3F250430021A0
:1002600000E0491C8142FCD37047000000000020E0
:100270002DE9F0410246002500260020002300243D
:10028000002791F803C00CF00F0591F803C00CF0A3
:10029000100CBCF1000F03D091F802C04CEA050528
:1002A00091F800C0BCF1000F31D0146800202BE0A1
:1002B0004FF0010C0CFA00F3B1F800C00CEA030691
:1002C0009E4220D183004FF00F0C0CFA03F7BC4381
:1002D00005FA03FC4CEA040491F803C0BCF1280FB2
:1002E00006D14FF0010C0CFA00FCC2F814C00AE071
:1002F00091F803C0BCF1480F05D14FF0010C0CFA86
:1003000000FCC2F810C0401C0828D1D31460B1F81A
:1003100000C0BCF1FF0F34DD546800202EE000F176
:10032000080C4FF0010808FA0CF3B1F800C00CEA11
:1003300003069E4221D183004FF00F0C0CFA03F705
:10034000BC4305FA03FC4CEA040491F803C0BCF179
:10035000280F05D100F1080C08FA0CF8C2F8148037
:1003600091F803C0BCF1480F07D100F1080C4FF021
:10037000010808FA0CF8C2F81080401C0828CED3F7
:100380005460BDE8F08141617047016170472DE91B
:10039000F04107460C4615461E46DDF818803846E3
:1003A00000F04AF9204600F047F9284600F044F9E9
:1003B000304600F041F9404600F03EF9BDE8F081DA
:1003C00008B5E120ADF8000010208DF803000320EF
:1003D0008DF8020069460A48FFF74AFF01210848E4
:1003E000FFF7D1FF40210648FFF7CFFF2021044847
:1003F000FFF7CBFF80210248FFF7C5FF08BD0000D3
:10040000000C014008B5FFF718FF00F0B5F8FFF742
:10041000D7FF1221FD2000F067F8AE2000F06EF843
:100420007221A02000F060F80021A12000F05CF80B
:100430000021A22000F058F8A42000F05FF83F212E
:10044000A82000F051F88E21AD2000F04DF80B21CE
:10045000B02000F049F83121B12000F045F8F0213A
:10046000B32000F041F864218A2000F03DF87821A3
:100470008B2000F039F864218C2000F035F83A2107
:10048000BB2000F031F83E21BE2000F02DF80621FF
:10049000872000F029F89121812000F025F85021D3
:1004A000822000F021F87D21832000F01DF82E200D
:1004B00000F024F83F205F23002211460090252001
:1004C000FFF765FF80210748FFF75FFFAF2000F0CF
:1004D00015F84FF49670FFF7BBFE01210148FFF7B6
:1004E00054FF08BD000C014070B505460C46284677
:1004F00000F0A2F8204600F09FF870BD10B5044649
:10050000204600F099F810BD29B1064AD26902438D
:10051000044BDA6104E0034AD2698243014BDA6199
:10052000704700000010024029B1064A9269024358
:10053000044B9A6104E0034A92698243014B9A6139
:10054000704700000010024021B1028842F04002D2
:10055000028004E002884FF6BF731A4002807047A1
:100560000246002013890B400BB1012000E000205F
:10057000704781817047000000B587B04FF420407C
:10058000ADF8180018208DF81B0003208DF81A0014
:1005900006A91848FFF76CFE4FF44040ADF8040080
:1005A0000020ADF808000220ADF80A000120ADF8E7
:1005B0000C000020ADF80E002020ADF81000002047
:1005C000ADF812000720ADF814004FF48270ADF8BA
:1005D000060001A9084800F011F80121064800F0C2
:1005E0003BF801210448FFF7AFFF6420FFF730FE1E
:1005F00007B000BD000C01400038004010B50022DB
:10060000028802F441520B884C8823438C88234390
:10061000CC8823430C8923434C8923438C8923436F
:10062000CC8923431A430280838B4FF2FF7423400B
:1006300083830B8A038210BD10B5044600BF0221DC
:100640000448FFF78DFF0028F9D021460148FFF745
:1006500090FF10BD0038004021B1828842F00402B2
:10066000828004E082884FF6FB731A4082807047D4
:1006700010B500F001F810BD0CB5002001900090FD
:100680003348006840F480303149086000BF30488A
:10069000006800F4003000900198401C0190009820
:1006A00018B90198B0F5A06FF1D12948006800F49D
:1006B000003010B10120009001E00020009000986F
:1006C000012843D12348006840F010002149086008
:1006D0000846006820F0030008600846006840F003
:1006E000020008601A484068194948600846406896
:1006F00048600846406840F48060486008464068AA
:1007000020F47C1048600846406840F4E8104860D7
:100710000846006840F08070086000BF0C48006820
:1007200000F000700028F9D00948406820F003006C
:10073000074948600846406840F00200486000BF32
:100740000348406800F00C000828F9D10CBD0000F7
:10075000001002400020024010B51348006840F02D
:1007600001001149086008464068104908400E49D8
:100770004860084600680E4908400B490860084672
:10078000006820F4802008600846406820F4FE00DD
:1007900048604FF41F008860FFF76AFF4FF0006069
:1007A0000449086010BD0000001002400000FFF87E
:1007B000FFFFF6FE08ED00E0FFF724FE00BFFEE7B6
:1007C000E0070008000000201400000028010008D5
:1007D000F40700081400002064060000440100082B
:1007E00000A24A040000000000000000010203040F
:0407F00006070809E7
:04000005080000ED02
:00000001FF
