:020000040800F2
:10000000880C0020C9010008D1010008D3010008B4
:10001000D5010008D7010008D90100080000000040
:10002000000000000000000000000000DB010008EC
:10003000DD01000800000000DF010008C90600081B
:10004000E3010008E3010008E3010008E301000800
:10005000E3010008E3010008E3010008E3010008F0
:10006000E3010008E3010008E3010008E3010008E0
:10007000E3010008E3010008E3010008E3010008D0
:10008000E3010008E3010008E3010008E3010008C0
:10009000E3010008E3010008E3010008E3010008B0
:1000A000E3010008E3010008E3010008E3010008A0
:1000B000E3010008E3010008E3010008E301000890
:1000C000E3010008E3010008E3010008E301000880
:1000D000E3010008E3010008E3010008E301000870
:1000E000E3010008E3010008E301000800F002F862
:1000F00000F05AF80AA090E8000C82448344AAF168
:100100000107DA4501D100F04FF8AFF2090EBAE865
:100110000F0013F0010F18BFFB1A43F0010318473B
:100120003C0E00005C0E00000A444FF0000C10F87A
:10013000013B13F0070408BF10F8014B1D1108BF65
:1001400010F8015B641E05D010F8016B641E01F805
:10015000016BF9D113F0080F1EBF10F8014BAD1C55
:100160000C1B09D16D1E58BF01F801CBFAD505E073
:1001700014F8016B01F8016B6D1EF9D59142D6D3CD
:10018000704700000023002400250026103A28BFF5
:1001900078C1FBD8520728BF30C148BF0B607047F9
:1001A0001FB51FBD10B510BD00F031F81146FFF7A7
:1001B000F7FF00F0D9FD00F04FF803B4FFF7F2FFAE
:1001C00003BC00F053F80000094880470948004785
:1001D000FEE7FEE7FEE7FEE7FEE7FEE7FEE7FEE7F7
:1001E000FEE7FEE704480549054A064B7047000054
:1001F0005D080008ED00000888060020880C00203B
:1002000088080020880800207047704770477546AE
:1002100000F028F8AE4605006946534620F0070076
:10022000854618B020B5FFF7DDFFBDE820404FF050
:1002300000064FF000074FF000084FF0000B21F0D0
:100240000701AC46ACE8C009ACE8C009ACE8C0099D
:10025000ACE8C0098D4670470446AFF300802046E5
:10026000FFF7ABFF00487047240600200149182023
:10027000ABBEFEE72600020070472DE9F0410246C2
:1002800000250026002000230024002791F803C049
:100290000CF00F0591F803C00CF0100CBCF1000F2E
:1002A00003D091F802C04CEA050591F800C0BCF1FA
:1002B000000F31D0146800202BE04FF0010C0CFA35
:1002C00000F3B1F800C00CEA03069E4220D183007F
:1002D0004FF00F0C0CFA03F7BC4305FA03FC4CEA91
:1002E000040491F803C0BCF1280F06D14FF0010CB3
:1002F0000CFA00FCC2F814C00AE091F803C0BCF18B
:10030000480F05D14FF0010C0CFA00FCC2F810C0E8
:10031000401C0828D1D31460B1F800C0BCF1FF0F15
:1003200034DD546800202EE000F1080C4FF0010885
:1003300008FA0CF3B1F800C00CEA03069E4221D182
:1003400083004FF00F0C0CFA03F7BC4305FA03FCD3
:100350004CEA040491F803C0BCF1280F05D100F168
:10036000080C08FA0CF8C2F8148091F803C0BCF12C
:10037000480F07D100F1080C4FF0010808FA0CF8FB
:10038000C2F81080401C0828CED35460BDE8F0812C
:10039000416170470161704770B502460024002535
:1003A00000230020958A138B1B0445EA030626F0E0
:1003B0007F4404EA01068E4201D1012000E00020C2
:1003C00070BD21B1028842F00102028004E002887F
:1003D0004FF6FE731A400280704721B1028842F442
:1003E0008072028004E002884FF6FF631A400280A8
:1003F000704721B1028842F40072028004E0028852
:100400004FF6FF531A40028070470CB50246002099
:1004100000230193009300920B0F019321F07F4181
:10042000019B1BB1009B1433009303E0090C009B5C
:1004300018330093009B1B680B400BB1012000E0B8
:1004400000200CBD2DE9F04385B004460D46002682
:10045000B1460427DFF8CC80A6884FF6C07006406E
:10046000684600F091F8DDF808802F48B8FBF0F0FE
:100470001FFA80F946EA0906A68020884FF6FE7129
:100480000840208000262949286888420CD828681E
:100490004000B8FBF0F087B2042F00DA04273E4397
:1004A00009F10100208427E0E8884BF6FF718842BB
:1004B00006D1286800EB4000B8FBF0F087B209E0F5
:1004C000286800EBC00101EB0010B8FBF0F087B228
:1004D00047F48047C7F30B0008B947F0010747F41A
:1004E000004006434FF4967009FB00F04FF47A7118
:1004F00090FBF1F0401C2084A683208840F001008E
:10050000208026884FF6F5300640A8886989084380
:1005100006432680A88929890843208105B0BDE8C3
:10052000F083000000127A0040420F00A086010014
:1005300012B141F0010102E04FF6FE731940018251
:10054000704701827047000029B1064AD269024310
:10055000044BDA6104E0034AD2698243014BDA6159
:10056000704700000010024029B1064A9269024318
:10057000044B9A6104E0034A92698243014B9A61F9
:10058000704700000010024030B500210022002416
:1005900000232D4D6D6805F00C0121B1042905D013
:1005A000082923D105E0294D056022E0274D05608B
:1005B0001FE0254D6D6805F47012234D6D6805F43C
:1005C0008034022505EB92421CB9214D554305604C
:1005D0000BE01D4D6D6805F400351DB11C4D5543F4
:1005E000056002E0194D5543056002E0174D0560B6
:1005F00000BF00BF144D6D6805F0F0010909154DED
:100600006B5C0568DD4045600F4D6D6805F4E06189
:10061000090A104D6B5C4568DD4085600A4D6D68C8
:1006200005F46051C90A0B4D6B5C4568DD40C5603F
:10063000054D6D6805F44041890B074D6B5CC5683D
:10064000B5FBF3F5056130BD0010024000127A00E1
:1006500000093D00000000201000002021B10288A8
:1006600042F04002028004E002884FF6BF731A4055
:10067000028070470246002013890B400BB1012015
:1006800000E0002070478181704710B50022028889
:1006900002F441520B884C8823438C882343CC8836
:1006A00023430C8923434C8923438C892343CC89DE
:1006B00023431A430280838B4FF2FF7423408383CA
:1006C0000B8A038210BD000038480068012806D15B
:1006D0003748006880F001003549086060E0334821
:1006E0000068022806D13248006880F003003049D3
:1006F000086055E02D48006803280CD12D4800689B
:1007000080F001002B4908602948006880F0020051
:100710002749086044E025480068042806D1254898
:10072000006880F003002349086039E01F48006832
:10073000052806D11F48006880F012001D49086096
:100740002EE01A48006806280CD11A48006880F08C
:100750001000184908601648006880F0200014490D
:1007600008601DE01148006807280CD11148006896
:1007700080F480700F4908600D48006880F0200008
:100780000B4908600CE009480068082808D10948AE
:10079000006880F480700749086000200349086001
:1007A00002480068401C0149086070471C06002090
:1007B0000C0C01400C08014010B500210020002263
:1007C000214B5B6803F00C0121B1042906D00829F4
:1007D00028D107E01D4B1E4C236027E01B4B1C4C0F
:1007E000236023E0184B5B6803F47010164B5B68C2
:1007F00003F48032022303EB904022B9154B4343AC
:10080000134C23600DE0104B5B6803F4003323B1FD
:10081000104B43430E4C236003E00C4B43430C4C02
:10082000236003E0094B0A4C236000BF00BF064B66
:100830005B68C3F30313084CE15C054B1B68CB40BA
:10084000034C236010BD00000010024000127A002B
:100850001400002000093D00440F00081148006802
:1008600040F001000F490860084640680E49084002
:100870000C494860084600680C490840094908606E
:100880000846006820F4802008600846406820F48C
:10089000FE0048604FF41F008860C80304490860E8
:1008A00070470000001002400000FFF8FFFFF6FE56
:1008B00008ED00E070B50546002000F0DFFA1020DA
:1008C00000F0DCFA402000F0D9FA002404E0285DB2
:1008D00000F0E6FA601C84B2B4F5806FF7DB70BDFF
:1008E00070B505460C46224629460B48FFF720FE08
:1008F0003CB900BF09490848FFF74EFD0028F9D070
:1009000008E0012C06D100BF05490348FFF744FD6C
:100910000028F9D070BD0000005800408200070098
:1009200002000300064A126841F28833B2FBF3F278
:100930005043002100E0491C8142FCD37047000075
:100940001400002070B5054621213C2000F000F97C
:1009500000213C2000F0FCF87F213C2000F0F8F85A
:1009600022213C2000F0F4F800213C2000F0F0F8B7
:1009700003213C2000F0ECF800240FE000F020F907
:1009800000217820FFF7ACFF402000F045F9285DFA
:1009900000F042F900F02EF9601C84B2B4F5007F3B
:1009A000ECDB70BD08B54FF46040ADF800001020DE
:1009B0008DF8030003208DF8020069460148FFF717
:1009C0005CFC08BD0010014000B585B014480190E2
:1009D0000020ADF808004BF6FF70ADF80A000020CB
:1009E000ADF80C00ADF80E004FF48040ADF81000EB
:1009F00001A90C48FFF726FD01210A48FFF7E1FC99
:100A00004FF44060ADF800001C208DF80300022078
:100A10008DF8020069460448FFF72FFC05B000BDC1
:100A2000A086010000580040000C014010B50121D3
:100A30000348FFF789FD01211C20FFF795FD10BD3C
:100A40000040400010B500F069F8AE213C2000F0F5
:100A50007FF8D5213C2000F07BF880213C2000F07D
:100A600077F8A8213C2000F073F81F213C2000F00B
:100A70006FF8D3213C2000F06BF800213C2000F0FF
:100A800067F840213C2000F063F88D213C2000F005
:100A90005FF814213C2000F05BF820213C2000F09E
:100AA00057F800213C2000F053F8A1213C2000F031
:100AB0004FF8C8213C2000F04BF8DA213C2000F030
:100AC00047F802213C2000F043F881213C2000F04F
:100AD0003FF8CF213C2000F03BF8D9213C2000F02A
:100AE00037F8F1213C2000F033F8DB213C2000F006
:100AF0002FF840213C2000F02BF8A4213C2000F0EE
:100B000027F8A6213C2000F023F8AF213C2000F07C
:100B10001FF82E213C2000F01BF810BD10B54FF43B
:100B200000410A48FFF736FC0120FFF7FBFE4FF4B7
:100B300000410648FFF72CFC0A20FFF7F3FE4FF4B4
:100B400000410248FFF726FC10BD000000100140E4
:100B500070B504460D46002600F032F86106080E16
:100B60000021FFF7BDFE304600F056F8284600F0A1
:100B700053F800F03FF870BD70B504460D462621CD
:100B80003C20FFF7E5FF00213C20FFF7E1FF214675
:100B90003C20FFF7DDFF07213C20FFF7D9FF294666
:100BA0003C20FFF7D5FF00213C20FFF7D1FFFF21BC
:100BB0003C20FFF7CDFF2F213C20FFF7C9FF70BD80
:100BC00010B500BF4FF400310848FFF71EFC0028A5
:100BD000F8D101210548FFF700FC00BF0449034894
:100BE000FFF7DAFB0028F9D010BD000000580040E4
:100BF0000100030010B501210548FFF7FAFB00BF13
:100C000004490348FFF701FC0028F9D110BD00009A
:100C1000005800401000001010B504462146054859
:100C2000FFF78FFC00BF04490248FFF7B5FB00281F
:100C3000F9D010BD005800408400070000B587B00F
:100C400018208DF81B0003208DF81A004FF4204067
:100C5000ADF8180006A91348FFF70FFB4FF440400A
:100C6000ADF804000020ADF808000220ADF80A003D
:100C70000120ADF80C004002ADF80E002020ADF8C8
:100C800010000020ADF812004FF48270ADF806009D
:100C900001A90548FFF7F9FC01210348FFF7DEFC35
:100CA00007B000BD000C01400038004010B500F056
:100CB000CBF8AE2000F0E2F8D52000F0DFF880207D
:100CC00000F0DCF8A82000F0D9F83F2000F0D6F8BA
:100CD000D32000F0D3F8002000F0D0F8402000F03E
:100CE000CDF88D2000F0CAF8142000F0C7F82020BD
:100CF00000F0C4F8002000F0C1F8A12000F0BEF818
:100D0000C82000F0BBF8DA2000F0B8F8122000F09C
:100D1000B5F8812000F0B2F8CF2000F0AFF8D9206C
:100D200000F0ACF8F12000F0A9F8DB2000F0A6F804
:100D3000402000F0A3F8A42000F0A0F8A62000F0C6
:100D40009DF8AF2000F09AF82E2000F097F810BD23
:100D500010B50446012C03D1A72000F08FF802E063
:100D6000A62000F08BF810BD08B5FFF777FDFFF760
:100D700023FDFFF75BFEFFF715FEFFF725FEFFF7EC
:100D800011FEFFF75FFEFFF759FFFFF78FFF2748C0
:100D9000FFF790FD2648FFF7D5FD07210020FFF75C
:100DA000EBFE0721042000F0B1F80120FFF7D0FF8F
:100DB00001210820FFF7D8FB2320ADF80000032015
:100DC0008DF8020010208DF8030069461948FFF7DE
:100DD00054FA40F21310ADF8000069461648FFF7C8
:100DE0004CFA1649B1F1807F00D31DE021F07F401D
:100DF000401E4FF0E022506150170F22002807DA02
:100E000013071D0E0E4B00F00F04241F1D5503E0A9
:100E100013071C0E0B4B1C5400BF00204FF0E022A8
:100E200090610720106100BF00BFFEE7190200209B
:100E300019000020000C014000080140D0DD060030
:100E400018ED00E000E400E010B54FF400410A485E
:100E5000FFF7A0FA0120FFF765FD4FF400410648B7
:100E6000FFF796FA0A20FFF75DFD4FF400410248B4
:100E7000FFF790FA10BD00000010014010B50446C5
:100E80004FF480410548FFF783FA204600F01AF836
:100E90004FF480410148FFF77DFA10BD001001407A
:100EA00010B504464FF400510548FFF773FA4FF4AC
:100EB00080410348FFF76EFA204600F003F810BDAA
:100EC0000010014010B504464FF400510D48FFF7E3
:100ED0005FFA21460C48FFF7D6FB00BF02210A4803
:100EE000FFF7C8FB0028F9D000BF80210648FFF7B4
:100EF000C1FB0128F9D04FF400510248FFF74AFA2C
:100F000010BD0000001001400038004070B50546DB
:100F10000C462620FFF7B2FF0020FFF7AFFF284660
:100F2000FFF7ACFF0720FFF7A9FF2046FFF7A6FF5A
:100F30000020FFF7A3FFFF20FFF7A0FF2F20FFF700
:100F40009DFF70BD000000000000000001020304CE
:100F50000607080900000000010203047C0F0008D6
:100F60000000002024060000280100083C110008B1
:100F7000240600206406000084010008412D0102BF
:100F8000030404100906070809020406080486A2DF
:100F90004A0426F8F838F0C016C0F038F8F81440C3
:100FA000C0801C80C040151F80C0E0703818091137
:100FB0001E181818F8F80511233C3C1A8001614BE3
:100FC000F0F00B59123906290C1941390C3BF0F09D
:100FD0001019075BB0B019690AD1131F1F2F010741
:100FE0001E1E07010A1808101D0F020F1D100B2FDF
:100FF0000103070E1C18144924616F0F1F121213EE
:1010000013382904170F1F10101F0F150B567C0CD7
:101010006E6B7F54773324691C2A1F0A592D1903DC
:1010200005FF181E171101202AFC01853CFCF0F079
:101030001AE00F2A3C1509152E49251AF0265B0CDB
:101040000C40113A1C01394B390A012B2AFF0111BE
:10105000480F033F3FFFFFF8C0C0F8FFFF3F030307
:101060001621280D031F1F1FFFFEE0FEFFFF1F03B9
:10107000163918195FAD7EFFE3C140B94B012F2A25
:101080003F01411A03841A3F68791611481120382C
:101090003E3E3E3F0701073F3F3E3838382018416B
:1010A000680901031F3E3E3C38382AD94B019D1088
:1010B0000AF0F0F010103030E0C02680C040C08050
:1010C0002BC0C003190D390E5BF0F0182BC0C00700
:1010D00029081907390AA91919135CE0E040505E84
:1010E0009090F0F0601E1A40013925191D295419FD
:1010F00050E1100A1F1F1F101018180F07260F1F8E
:101100001313134E031F181F030D190E1B1F1F0B64
:1011100014101F0F1C7F7F7F072A0F113903221F16
:101120004931290B2904192779501A1F3149374DA4
:0C1130000C0C1F13332930291A01920007
:04000005080000ED02
:00000001FF
