:020000040800F2
:10000000B006002091010008990100089B0100083A
:100010009D0100089F010008A101000800000000E8
:10002000000000000000000000000000A301000824
:10003000A501000800000000A7010008B50A00089B
:10004000AB010008AB010008AB010008AB010008E0
:10005000AB010008AB010008AB010008AB010008D0
:10006000AB010008AB010008AB010008AB010008C0
:10007000AB010008AB010008AB010008AB010008B0
:10008000AB010008AB010008AB010008AB010008A0
:10009000AB010008AB010008AB01000871040008C7
:1000A000AB010008AB010008AB010008AB01000880
:1000B000AB010008AB010008AB010008AB01000870
:1000C000AB010008AB010008AB010008AB01000860
:1000D000AB0100086D0D0008AB010008AB01000882
:1000E00039040008AB010008AB01000800F002F879
:1000F00000F03FF80AA090E8000C82448344AAF183
:100100000107DA4501D100F034F8AFF2090EBAE880
:100110000F0013F0010F18BFFB1A43F0010318473B
:100120005812000078120000103A24BF78C878C135
:10013000FAD8520724BF30C830C144BF04680C60ED
:10014000704700000023002400250026103A28BF35
:1001500078C1FBD8520728BF30C148BF0B60704739
:10016000642900F07D80002070471FB51FBD10B5C9
:1001700010BD00F02AF91146FFF7F7FF01F09CF8D7
:1001800000F048F903B4FFF7F2FF03BC00F04CF9AC
:100190000948804709480047FEE7FEE7FEE7FEE71B
:1001A000FEE7FEE7FEE7FEE7FEE7FEE70448054957
:1001B000054A064B70470000ED0A0008ED000008F4
:1001C000B0000020B0060020B0020020B0020020E5
:1001D0000FB41CB5074B06AA7B44694600900598EE
:1001E00000F0DBF80020694600F0EAF81CBC5DF87E
:1001F00014FB0000E50100002DE9F0410E46044625
:10020000002020622046E168884730B3252805D0C9
:10021000D4E901219047206A401CF2E7E1682046BA
:1002200000278847050018D0A5F14100192802D8F9
:1002300020354FF400673246294620462760FFF7F5
:100240008FFF40B1012804D0F61D26F007060836BE
:10025000D8E7361DD6E72846DAE7206ABDE8F08100
:100260002DE9F0410646002410687529314616A58F
:1002700010D0AFF30080002802DA404213A507E057
:1002800031688A0701D512A502E0490704D511A5F6
:10029000012401E0AFF3008000210A2206F12407C7
:1002A00009E0B0FBF2FCB0FBF2F302FB1C003030C3
:1002B00078541846491C0028F3D123462A46304674
:1002C000BDE8F04100F00BB8000000002D00000078
:1002D0002B000000200000007047704770472DE998
:1002E000F0470D4699469246044600F124080168FD
:1002F000880604D5E06921F01001216000E00120AA
:10030000A84201DD471B00E00027A1697A1902EB32
:100310000900081AA0612078C00602D42046AFF375
:100320000080002608E0D4E901211AF80600904771
:10033000206A401C761C20624E45F4DB2078C00603
:100340000AD52046AFF3008006E0D4E90121302031
:100350009047206A401C2062381EA7F10107F4DC98
:1003600007E0D4E9012118F805009047206A401CF5
:100370002062281EA5F10105F3DC2046AFF30080C2
:100380002078000602D50220BDE8F0870120FBE7B7
:1003900001694A1C02610878704700B58FB0CDE949
:1003A00001310021059105497944CDE90310114639
:1003B0006846FFF721FF0FB000BD0000E5FFFFFF1B
:1003C0000A6802F8010B0A607047754600F028F8C9
:1003D000AE4605006946534620F00700854618B032
:1003E00020B5FFF7E3FEBDE820404FF000064FF0D8
:1003F00000074FF000084FF0000B21F00701AC465A
:10040000ACE8C009ACE8C009ACE8C009ACE8C00978
:100410008D4670470446AFF300802046FFF7B2FEDA
:10042000004870475000002001491820ABBEFEE78D
:10043000260002007047000010B54FF4805000F015
:10044000F7F890B109480078012803D10220074944
:10045000087006E005480078022802D1012003490F
:1004600008704FF4805000F0DDF810BD400000200F
:100470001CB54FF4807000F0DBF800285DD06248B6
:100480000078012828D161480088B0F52F7F04DB6F
:100490005E48008864385D49088008205C4908701F
:1004A00001205C490860594801884FF0804000F005
:1004B00007FC5648028858A16846FFF789FE51217B
:1004C000564800F03DFF6946544800F048FF5F2160
:1004D000524800F035FF2BE04B480078022827D126
:1004E0004F480088B0F52F7F04DB4D480088643802
:1004F0004B4908800820464908700120454908609A
:10050000474801884FF0804000F0DCFB44480288F7
:1005100041A16846FFF75CFE5721404800F010FFFC
:1005200069463E4800F01BFF5F213C4800F008FF91
:100530004FF4807000F076F864E04FF4007000F043
:1005400077F800285ED030480078012829D12F485C
:10055000008840F6B831884204DC2C4800886430BA
:100560002A49088008202A49087001202949086082
:10057000264801884FF0804000F0A2FB2348028803
:1005800025A16846FFF724FE5121244800F0D8FE3B
:100590006946224800F0E3FE5F21204800F0D0FECB
:1005A0002CE019480078022828D11D48008840F620
:1005B000B831884204DC1A48008864301849088041
:1005C0000820134908700120124908601448018866
:1005D0004FF0804000F076FB114802880EA168467B
:1005E000FFF7F6FD57210D4800F0AAFE69460B48BB
:1005F00000F0B5FE5F21094800F0A2FE4FF4007044
:1006000000F010F81CBD0000400000203C0000205D
:100610004C00002044000020256400000038014008
:100620003E000020014908607047000014040140AA
:10063000014600200022074B1B6803EA0102054B1C
:1006400014331B680B4013B10AB1012000E00020F5
:100650007047000000040140002123498279002AEC
:100660003AD00A46126803689A430B461A600A1D7C
:10067000126803689A430B1D1A60027911440A68D4
:1006800003681A430A60184A0832126803689A43DA
:10069000154B08331A601A1D126803689A43124BEF
:1006A0000C331A604279102A0ED11A1F126803689F
:1006B0001A430D4B08331A601A1D126803681A4357
:1006C000094B0C331A600DE00749427911440A685E
:1006D00003681A430A6005E0027911440A68036856
:1006E0009A430A60704700000004014030B50022C0
:1006F0008B071C0F0F2303FA04F20B4B8C1053F8DB
:1007000024309343084C8D1044F8253023468C1038
:1007100053F824308C07240F00FA04F42343024CCE
:100720008D1044F8253030BD080001402DE9F0411E
:10073000024600250026002000230024002791F80F
:1007400003C00CF00F0591F803C00CF0100CBCF1C5
:10075000000F03D091F802C04CEA050591F800C0E3
:10076000BCF1000F31D0146800202BE04FF0010CD9
:100770000CFA00F3B1F800C00CEA03069E4220D147
:1007800083004FF00F0C0CFA03F7BC4305FA03FC8F
:100790004CEA040491F803C0BCF1280F06D14FF0D5
:1007A000010C0CFA00FCC2F814C00AE091F803C076
:1007B000BCF1480F05D14FF0010C0CFA00FCC2F857
:1007C00010C0401C0828D1D31460B1F800C0BCF19F
:1007D000FF0F34DD546800202EE000F1080C4FF0CC
:1007E000010808FA0CF3B1F800C00CEA03069E42B7
:1007F00021D183004FF00F0C0CFA03F7BC4305FA2C
:1008000003FC4CEA040491F803C0BCF1280F05D1A5
:1008100000F1080C08FA0CF8C2F8148091F803C033
:10082000BCF1480F07D100F1080C4FF0010808FA9D
:100830000CF8C2F81080401C0828CED35460BDE8E4
:10084000F08101617047000070B5002100230F2284
:10085000C47804B3154C246804F4E064C4F5E0647F
:10086000210AC1F10403CA40447804FA03F18478F0
:100870001440214309010E4C0678A155047804F078
:100880001F050124AC4005786D11AD0005F1E02590
:10089000C5F8004109E0047804F01F050124AC40CC
:1008A000044D0678761145F8264070BD0CED00E049
:1008B00000E400E080E100E029B1064AD269024389
:1008C000044BDA6104E0034AD2698243014BDA61E6
:1008D000704700000010024029B1064A92690243A5
:1008E000044B9A6104E0034A92698243014B9A6186
:1008F000704700000010024030B5002100220024A3
:1009000000232D4D6D6805F00C0121B1042905D09F
:10091000082923D105E0294D056022E0274D056017
:100920001FE0254D6D6805F47012234D6D6805F4C8
:100930008034022505EB92421CB9214D55430560D8
:100940000BE01D4D6D6805F400351DB11C4D554380
:10095000056002E0194D5543056002E0174D056042
:1009600000BF00BF144D6D6805F0F0010909154D79
:100970006B5C0568DD4045600F4D6D6805F4E06116
:10098000090A104D6B5C4568DD4085600A4D6D6855
:1009900005F46051C90A0B4D6B5C4568DD40C560CC
:1009A000054D6D6805F44041890B074D6B5CC568CA
:1009B000B5FBF3F5056130BD0010024000127A006E
:1009C00000093D00000000201000002010B500F0DC
:1009D00001F810BD0CB5002001900090334800686C
:1009E00040F480303149086000BF3048006800F4AE
:1009F000003000900198401C0190009818B90198AF
:100A0000B0F5A06FF1D12948006800F4003010B1B2
:100A10000120009001E0002000900098012843D1BF
:100A20002348006840F0100021490860084600682B
:100A300020F0030008600846006840F002000860EB
:100A40001A484068194948600846406848600846A6
:100A5000406840F4806048600846406820F47C109C
:100A600048600846406840F4E8104860084600685E
:100A700040F08070086000BF0C48006800F0007013
:100A80000028F9D00948406820F003000749486071
:100A90000846406840F00200486000BF03484068D4
:100AA00000F00C000828F9D10CBD00000010024035
:100AB000002002400A4800680A49884209D10A48D1
:100AC000006880F0100008490860002004490860B0
:100AD00004E003480068401C0149086070470000BA
:100AE0003800002020A107000C08014010B5134871
:100AF000006840F00100114908600846406810494C
:100B000008400E494860084600680E4908400B49F5
:100B100008600846006820F48020086008464068A5
:100B200020F4FE0048604FF41F008860FFF74EFF7E
:100B30004FF000600449086010BD00000010024042
:100B40000000FFF8FFFFF6FE08ED00E021B102888B
:100B500042F00102028004E002884FF6FE731A4060
:100B60000280704731B1B0F8442042F40042A0F84E
:100B7000442005E0B0F84420C2F30E02A0F844205F
:100B80007047000070B5002400220023058C4FF64A
:100B9000FE7635400584028C8388048B4FF68F7572
:100BA0002C40B51E2C400D882C43751E2A400D8903
:100BB0002A434D882A43144DA8420BD0134DA84216
:100BC00008D0134DA84205D0124DA84202D0124DB4
:100BD000A84213D14FF6F7752A404D892A434FF6A4
:100BE000FB752A408D882A434FF6FF652B404FF650
:100BF000FF552B408D892B43CD892B438380048364
:100C0000CD888586028470BD002C014000340140EF
:100C100000400140004401400048014070B50024FC
:100C200000220023058C4FF6EF7635400584028CB8
:100C30008388048B48F6FF752C404FF6FF452C4007
:100C40000D884FF6FF7606EA05252C434FF6DF7533
:100C50002A400D8906EA05152A434D8806EA05153E
:100C60002A43154DA84202D0144DA8421DD14FF67B
:100C70007F752A404D894FF6FF7606EA05152A430F
:100C80004FF6BF752A408D8806EA05152A434FF6B0
:100C9000FF352B404FF2FF752B408D8906EA850505
:100CA0002B43CD8906EA85052B4383800483CD88B9
:100CB0000587028470BD0000002C01400034014013
:100CC0008186704701877047002202881D4B984239
:100CD0000ED01D4B98420BD0B0F1804F08D01B4B6B
:100CE000984205D01A4B984202D01A4B984204D130
:100CF0004FF68F731A404B881A43174B984207D010
:100D0000164B984204D04FF6FF431A40CB881A4343
:100D100002808B8883850B8803850A4B98420BD011
:100D2000094B984208D00E4B984205D00D4B984283
:100D300002D00D4B984201D10B7A038601238382A6
:100D400070470000002C01400034014000040040C6
:100D500000080040000C004000100040001400405B
:100D600000400140004401400048014010B52021EE
:100D7000454800F0B6F801287ED14348001D0088A0
:100D800042490870084600785F2808D00A78404930
:100D90000878411C3E4B19703E490A546EE0002011
:100DA0003C493B4A127888540846007851282ED195
:100DB00039A1354800F0D3FA3649334800F0CFFA6C
:100DC00036A1314800F0CBFA3248407830384FF441
:100DD0007A7148432F498978303901EBC10202EB1F
:100DE000011100EB81012B48C078303800EB800006
:100DF00001EB400127480079303808442B4908802E
:100E0000084601884FF08040FFF75AFF31E0214843
:100E1000007857282DD126A11B4800F0A0FA1D49C3
:100E2000194800F09CFA1DA1174800F098FA1948DB
:100E3000407830384FF47A71484316498978303910
:100E400001EBC10202EB011100EB81011148C078F6
:100E5000303800EB800001EB40010E48007930385B
:100E6000084414490880084601884FF08040FFF785
:100E700029FF0020064900E004E008702021024814
:100E800000F01AF810BD0000003801402A000020D0
:100E9000330000202B000020510000002067656C0B
:100EA00064692053544D3332000000003C000020A0
:100EB000570000003E00002001F40072B2F5007FF0
:100EC00000D100BFCA430280704721B1828942F439
:100ED0000052828104E082894DF6FF731A408281BC
:100EE000704702460020B1F5007F00D100BF138893
:100EF0000B400BB1012000E000207047F0B5034625
:100F0000002400260025002040F66A17B94200D1CF
:100F100000BF1846C1F3421401F01F06012707FA6B
:100F200006F5012C01D10C3004E0022C01D1103067
:100F300000E014301AB107682F43076002E0076829
:100F4000AF430760F0BD00002DE9F04786B00546CD
:100F50000E460024A24600BFA1460027B08900B17A
:100F600000BF2F462C8A4CF6FF700440F0880443E3
:100F70002C82AC894EF6F3100440B08831890843C6
:100F8000718908430443AC81AC8A4FF6FF400440AA
:100F9000B0890443AC8201A8FFF7AEFC1F4887422A
:100FA00002D1DDF810A001E0DDF80CA0A88900F462
:100FB000004040B10AEBCA0000EB0A10316849005A
:100FC000B0FBF1F807E00AEBCA0000EB0A10316849
:100FD0008900B0FBF1F86420B8FBF0F004012009AF
:100FE000642101FB1089A88900F4004040B132203F
:100FF00000EBC900B0FBF1F000F00700044308E08B
:10100000322000EB09106421B0FBF1F000F00F007A
:1010100004432C8106B0BDE8F08700000038014091
:10102000C1F30802828070471FB54FF40070ADF81D
:10103000040004208DF8070001A92148FFF776FB82
:1010400009210120FFF752FB4FF4007002900020AD
:101050008DF80C0008208DF80D0001208DF80E0091
:1010600002A8FFF7F9FA4FF48070ADF804000420ED
:101070008DF8070001A91248FFF758FB082101204D
:10108000FFF734FB4FF48070029000208DF80C00C5
:1010900008208DF80D0001208DF80E0002A8FFF742
:1010A000DBFA17208DF8000000208DF801008DF884
:1010B000020001208DF803006846FFF7C5FB1FBD45
:1010C000000C01401FB501210820FFF705FC4FF47B
:1010D0008050ADF8040004208DF8070001A91348E2
:1010E000FFF724FB0C210120FFF700FB4FF4805099
:1010F000029000208DF80C0008208DF80D000120D2
:101100008DF80E0002A8FFF7A7FA28208DF800003E
:1011100005208DF8010000208DF8020001208DF8D7
:1011200003006846FFF790FB1FBD0000000C014064
:1011300008B50320ADF8000018208DF80300032047
:101140008DF8020069460248FFF7F0FA08BD00007A
:101150000008014010B588B004464720ADF81400DF
:1011600044F61F60ADF818000020ADF81600ADF889
:101170001A0005A94FF08040FFF7A6FD6020ADF8EA
:1011800004000120ADF80600ADF80A400020ADF8DB
:101190000C00ADF8100001A94FF08040FFF7F2FC01
:1011A00001A94FF08040FFF739FD01218807FFF7C3
:1011B000D9FC01218807FFF7C9FC08B010BD000069
:1011C00010B5012144F20D00FFF786FB0121024812
:1011D000FFF772FB10BD00000100020000B587B0F0
:1011E0004FF48160ADF8180004208DF81B0006A9AB
:1011F0002348FFF79BFA4FF40170ADF81800182050
:101200008DF81B0003208DF81A0006A91C48FFF773
:101210008DFA4FF4E13002900020ADF80C00ADF8EB
:101220000E00ADF81000ADF814000C20ADF812005F
:1012300002A91448FFF788FE01211248FFF745FE76
:1012400002A91148FFF780FE01210F48FFF73DFE7C
:10125000012240F225510B48FFF750FE25208DF862
:1012600004000E208DF805000F208DF806000120E7
:101270008DF8070001A8FFF7E7FA07B000BD0000EE
:1012800000080140003801400044004008B54FF418
:101290008870ADF8000003208DF8020010208DF852
:1012A000030069460348FFF741FA10210148FFF7A0
:1012B000C8FA08BD00080140FFF718FCFFF780FFDF
:1012C000FFF7E4FFFFF734FFFFF788FF18480068D7
:1012D000184AB0FBF2F1B1F1807F00D31DE021F09C
:1012E0007F40401E4FF0E022506150170F2200282F
:1012F00007DA13071D0E104B00F00F04241F1D55B5
:1013000003E013071C0E0D4B1C5400BF00204FF0D0
:10131000E02290610720106100BF4FF47A70FFF760
:1013200019FFFFF781FEFFF7CDFE00BFFEE70000CB
:101330001400002040420F0018ED00E000E400E03F
:1013400070B504460D4600BF80212046FFF7C9FD59
:101350000028F9D029462046FFF762FE70BD70B51F
:1013600005460C4604E014F8011B2846FFF7E8FF89
:1013700020780028F7D170BD9813000800000020E5
:101380005000000028010008E81300085000002069
:101390006006000044010008000000000102030490
:1013A00001020304060708090204060800A24A0411
:1013B0000000000000000000010203040607080905
:1013C000000000000000000000000000000000001D
:1013D00000000000E803E803010000000100000035
:0813E000010000000000010003
:04000005080000ED02
:00000001FF
