:020000040800F2
:100000008006002089010008910100089301000882
:100010009501000897010008990100080000000000
:100020000000000000000000000000009B0100082C
:100030009D010008000000009F010008A1010008C8
:10004000A3010008A3010008A3010008A301000800
:10005000A3010008A3010008A3010008A3010008F0
:10006000A3010008A3010008A3010008A3010008E0
:10007000A3010008A3010008A3010008A3010008D0
:10008000A3010008A3010008A3010008A3010008C0
:10009000A3010008A3010008A3010008A3010008B0
:1000A000A3010008A3010008A3010008A3010008A0
:1000B00095070008A3010008A3010008A301000898
:1000C000A3010008A3010008A3010008A301000880
:1000D000A3010008A3010008A3010008A301000870
:1000E000A3010008A3010008A301000800F002F822
:1000F00000F03AF80AA090E8000C82448344AAF188
:100100000107DA4501D100F02FF8AFF2090EBAE885
:100110000F0013F0010F18BFFB1A43F0010318473B
:10012000880A0000A80A0000103A24BF78C878C1E5
:10013000FAD8520724BF30C830C144BF04680C60ED
:10014000704700000023002400250026103A28BF35
:1001500078C1FBD8520728BF30C148BF0B60704739
:100160001FB51FBD10B510BD00F031F81146FFF7E7
:10017000F7FF00F0FDFC00F04FF803B4FFF7F2FFCB
:1001800003BC00F053F800000948804709480047C5
:10019000FEE7FEE7FEE7FEE7FEE7FEE7FEE7FEE737
:1001A000FEE7FEE704480549054A064B7047000094
:1001B00035070008ED0000088000002080060020C0
:1001C000800200208002002070477047704775460B
:1001D00000F028F8AE4605006946534620F00700B7
:1001E000854618B020B5FFF7DDFFBDE820404FF091
:1001F00000064FF000074FF000084FF0000B21F011
:100200000701AC46ACE8C009ACE8C009ACE8C009DD
:10021000ACE8C0098D4670470446AFF30080204625
:10022000FFF7ABFF004870471C0000200149182071
:10023000ABBEFEE726000200704721B1826842F0A3
:100240000102826003E0826822F00102826070474E
:10025000014600208A6802F004020AB1012000E091
:10026000002070470146C86C80B2704701460020EC
:100270008A6802F008020AB1012000E000207047FD
:1002800030B502460020002350680F4C20400D7905
:100290000C6844EA05242043506090680B4C2040D1
:1002A000D1E902542C434D7944EA4504204390603F
:1002B000D06A20F470000C7C641EE4B2234340EA50
:1002C0000350D06230BD0000FFFEF0FFFDF7F1FFEC
:1002D000F0B504460D4600200021092D11DDE0682F
:1002E000A5F10A0606EB4607072606FA07F188433A
:1002F000A5F10A0606EB460603FA06F10843E0609C
:100300000CE0206905EB4507072606FA07F188434C
:1003100005EB450603FA06F108432061072A0FDAC8
:10032000606B561E06EB86071F2606FA07F1884308
:10033000561E06EB860605FA06F10843606322E0C6
:100340000D2A0FDA206BD61F06EB86071F2606FA4A
:1003500007F18843D61F06EB860605FA06F1084327
:10036000206310E0E06AA2F10D0606EB86071F2667
:1003700006FA07F18843A2F10D0606EB860605FA98
:1003800006F10843E062F0BD816841F00801816038
:10039000704721B1826842F4A002826003E0826863
:1003A00022F4A00282607047816841F004018160FC
:1003B00070472DE9F0410246002500260020002369
:1003C0000024002791F803C00CF00F0591F803C03A
:1003D0000CF0100CBCF1000F03D091F802C04CEAF5
:1003E000050591F800C0BCF1000F31D01468002061
:1003F0002BE04FF0010C0CFA00F3B1F800C00CEA4E
:1004000003069E4220D183004FF00F0C0CFA03F735
:10041000BC4305FA03FC4CEA040491F803C0BCF1A8
:10042000280F06D14FF0010C0CFA00FCC2F814C0E2
:100430000AE091F803C0BCF1480F05D14FF0010C60
:100440000CFA00FCC2F810C0401C0828D1D314607C
:10045000B1F800C0BCF1FF0F34DD546800202EE07D
:1004600000F1080C4FF0010808FA0CF3B1F800C0D5
:100470000CEA03069E4221D183004FF00F0C0CFAC8
:1004800003F7BC4305FA03FC4CEA040491F803C0EB
:10049000BCF1280F05D100F1080C08FA0CF8C2F8DD
:1004A000148091F803C0BCF1480F07D100F1080C8B
:1004B0004FF0010808FA0CF8C2F81080401C082818
:1004C000CED35460BDE8F08170B5002100230F2227
:1004D000C47804B3154C246804F4E064C4F5E06403
:1004E000210AC1F10403CA40447804FA03F1847874
:1004F0001440214309010E4C0678A155047804F0FC
:100500001F050124AC4005786D11AD0005F1E02513
:10051000C5F8004109E0047804F01F050124AC404F
:10052000044D0678761145F8264070BD0CED00E0CC
:1005300000E400E080E100E029B1064AD26902430C
:10054000044BDA6104E0034AD2698243014BDA6169
:10055000704700000010024029B1064A9269024328
:10056000044B9A6104E0034A92698243014B9A6109
:10057000704700000010024030B500210022002426
:1005800000232D4D6D6805F00C0121B1042905D023
:10059000082923D105E0294D056022E0274D05609B
:1005A0001FE0254D6D6805F47012234D6D6805F44C
:1005B0008034022505EB92421CB9214D554305605C
:1005C0000BE01D4D6D6805F400351DB11C4D554304
:1005D000056002E0194D5543056002E0174D0560C6
:1005E00000BF00BF144D6D6805F0F0010909154DFD
:1005F0006B5C0568DD4045600F4D6D6805F4E0619A
:10060000090A104D6B5C4568DD4085600A4D6D68D8
:1006100005F46051C90A0B4D6B5C4568DD40C5604F
:10062000054D6D6805F44041890B074D6B5CC5684D
:10063000B5FBF3F5056130BD0010024000127A00F1
:1006400000093D00000000201000002010B500F05F
:1006500001F810BD0CB500200190009033480068EF
:1006600040F480303149086000BF3048006800F431
:10067000003000900198401C0190009818B9019832
:10068000B0F5A06FF1D12948006800F4003010B136
:100690000120009001E0002000900098012843D143
:1006A0002348006840F010002149086008460068AF
:1006B00020F0030008600846006840F0020008606F
:1006C0001A4840681949486008464068486008462A
:1006D000406840F4806048600846406820F47C1020
:1006E00048600846406840F4E810486008460068E2
:1006F00040F08070086000BF0C48006800F0007097
:100700000028F9D00948406820F0030007494860F4
:100710000846406840F00200486000BF0348406857
:1007200000F00C000828F9D10CBD000000100240B8
:100730000020024010B51348006840F00100114944
:10074000086008464068104908400E49486008465D
:1007500000680E4908400B4908600846006820F40C
:10076000802008600846406820F4FE0048604FF48E
:100770001F008860FFF76AFF4FF0006004490860BF
:1007800010BD0000001002400000FFF8FFFFF6FE61
:1007900008ED00E010B50121880700F038F80128C5
:1007A00021D10121800700F023F80F48FFF75AFDFF
:1007B0000E49088008460088C0F30320413000F04D
:1007C000E3F90A480088C0F30310413000F0DCF977
:1007D0000649098801F00F0101F1410000F0D4F948
:1007E0007E2000F0D1F910BD002401401800002047
:1007F000CA430282704721B1028842F0010202809E
:1008000004E002884FF6FE731A40028070470246E9
:100810000020138A0B400BB1012000E0002070473C
:100820001AB183890B43838102E083898B438381DF
:1008300070470000002202881D4B98420ED01D4BCD
:1008400098420BD0B0F1804F08D01B4B984205D096
:100850001A4B984202D01A4B984204D14FF68F732C
:100860001A404B881A43174B984207D0164B9842B0
:1008700004D04FF6FF431A40CB881A4302808B887E
:1008800083850B8803850A4B98420BD0094B98420D
:1008900008D00E4B984205D00D4B984202D00D4B1C
:1008A000984201D10B7A03860123838270470000AE
:1008B000002C0140003401400004004000080040CA
:1008C000000C0040001000400014004000400140B7
:1008D000004401400048014021B1828942F40052A5
:1008E000828104E082894DF6FF731A40828170474D
:1008F00002460020B1F5007F00D100BF13880B40F5
:100900000BB1012000E00020704700002DE9F04706
:1009100086B005460E460024A24600BFA146002729
:10092000B08900B100BF2F462C8A4CF6FF700440FE
:10093000F08804432C82AC894EF6F3100440B08852
:1009400031890843718908430443AC81AC8A4FF66E
:10095000FF400440B0890443AC8201A8FFF70CFEBD
:100960001F48874202D1DDF810A001E0DDF80CA09D
:10097000A88900F4004040B10AEBCA0000EB0A105D
:1009800031684900B0FBF1F807E00AEBCA0000EB60
:100990000A1031688900B0FBF1F86420B8FBF0F070
:1009A00004012009642101FB1089A88900F400409A
:1009B00040B1322000EBC900B0FBF1F000F00700BD
:1009C000044308E0322000EB09106421B0FBF1F091
:1009D00000F00F0004432C8106B0BDE8F087000052
:1009E00000380140C1F308028280704700B587B02B
:1009F0000120ADF8040000208DF8070001A91C4873
:100A0000FFF7D7FC0020029001208DF80D00002098
:100A10008DF80C004FF46020049000200590012018
:100A20008DF8180002A91348FFF72AFC00230122C1
:100A300011461048FFF74CFC01210E48FFF7FDFB63
:100A40000C48FFF7A1FC00BF0A48FFF70FFC012884
:100A5000FAD00848FFF7A8FC00BF0648FFF7F8FBEC
:100A60000128FAD001210348FFF793FC07B000BD2D
:100A7000000801400024014008B54FF4A06101F0D6
:100A800007020D4B18684FF6FF0318400B4B03434A
:100A900043EA0220084B186000BF1C208DF80000BC
:100AA00001208DF8030002208DF801008DF802006E
:100AB0006846FFF709FD08BD0CED00E00000FA05EF
:100AC00010B5012144F21520FFF746FD012108462B
:100AD000FFF732FD10BD000000B585B04FF4007087
:100AE000ADF8100018208DF8130003208DF81200C7
:100AF00004A90E48FFF75DFC4FF4E13000900020A0
:100B0000ADF80400ADF80600ADF80800ADF80C0033
:100B10000820ADF80A0069460548FFF7F7FE0121F5
:100B20000348FFF7D9FE05B000BD000000080140F2
:100B3000003801400EB54820ADF800000020ADF8A7
:100B400002000420ADF804000020ADF806008DF886
:100B5000080069464FF08040FFF76CFE0122114605
:100B60009007FFF75DFE01218807FFF744FE0EBDE9
:100B7000FFF7A6FFFFF780FFFFF7AEFFFFF736FF97
:100B8000FFF7D8FF00BFFEE710B5044600BF802185
:100B90000448FFF7ADFE0028F9D021460148FFF7D1
:100BA00021FF10BD00380140C80B000800000020E4
:100BB0001C00000028010008E40B00081C000020B5
:100BC0006406000044010008000000000102030464
:100BD0000102030406070809020406080000007E5B
:040BE0000000000011
:04000005080000ED02
:00000001FF
