:020000040800F2
:10000000980600208901000891010008930100086A
:100010009501000897010008990100080000000000
:100020000000000000000000000000009B0100082C
:100030009D010008000000009F010008A1010008C8
:10004000A3010008A3010008A3010008A301000800
:10005000A3010008A3010008A3010008A3010008F0
:10006000A3010008A3010008A3010008A3010008E0
:10007000A3010008A3010008A3010008A3010008D0
:10008000A3010008A3010008A3010008A3010008C0
:10009000A3010008A3010008A3010008A3010008B0
:1000A000A3010008A3010008A3010008A3010008A0
:1000B000A3010008A3010008A3010008A301000890
:1000C000A3010008A3010008A3010008A301000880
:1000D000F1050008A3010008A3010008A30100081E
:1000E000A3010008A3010008A301000800F002F822
:1000F00000F03AF80AA090E8000C82448344AAF188
:100100000107DA4501D100F02FF8AFF2090EBAE885
:100110000F0013F0010F18BFFB1A43F0010318473B
:10012000040A0000240A0000103A24BF78C878C1ED
:10013000FAD8520724BF30C830C144BF04680C60ED
:10014000704700000023002400250026103A28BF35
:1001500078C1FBD8520728BF30C148BF0B60704739
:100160001FB51FBD10B510BD00F031F81146FFF7E7
:10017000F7FF00F0A3FC00F04FF803B4FFF7F2FF25
:1001800003BC00F053F800000948804709480047C5
:10019000FEE7FEE7FEE7FEE7FEE7FEE7FEE7FEE737
:1001A000FEE7FEE704480549054A064B7047000094
:1001B0008D080008ED000008980000209806002037
:1001C00098020020980200207047704770477546DB
:1001D00000F028F8AE4605006946534620F00700B7
:1001E000854618B020B5FFF7DDFFBDE820404FF091
:1001F00000064FF000074FF000084FF0000B21F011
:100200000701AC46ACE8C009ACE8C009ACE8C009DD
:10021000ACE8C0098D4670470446AFF30080204625
:10022000FFF7ABFF00487047340000200149182059
:10023000ABBEFEE7260002007047000000B587B0A5
:10024000A020ADF8180018208DF81B0001208DF8B3
:100250001A0006A92D4800F071F80020ADF804003E
:10026000ADF808000220ADF80A000120ADF80C003E
:100270004002ADF80E003020ADF810008020ADF83F
:1002800012000720ADF814004FF48270ADF806009C
:1002900001A91F4800F0F7F901211D4800F0C6F937
:1002A0004FF42040ADF8180004208DF81B00032007
:1002B0008DF81A0006A9174800F040F81020ADF894
:1002C00010000020ADF8060001A9134800F0DBF98A
:1002D0000121114800F0AAF94FF4A06000F0F4F8F1
:1002E00024208DF8000000208DF801008DF8020018
:1002F00001208DF80300684600F0AEF8012260216D
:10030000054800F0ABF907B000BD0000000801404F
:1003100000300140000C014000380040064A1268DD
:1003200041F28833B2FBF3F25043002100E0491C54
:100330008142FCD370470000140000202DE9F041F9
:10034000024600250026002000230024002791F803
:1003500003C00CF00F0591F803C00CF0100CBCF1B9
:10036000000F03D091F802C04CEA050591F800C0D7
:10037000BCF1000F31D0146800202BE04FF0010CCD
:100380000CFA00F3B1F800C00CEA03069E4220D13B
:1003900083004FF00F0C0CFA03F7BC4305FA03FC83
:1003A0004CEA040491F803C0BCF1280F06D14FF0C9
:1003B000010C0CFA00FCC2F814C00AE091F803C06A
:1003C000BCF1480F05D14FF0010C0CFA00FCC2F84B
:1003D00010C0401C0828D1D31460B1F800C0BCF193
:1003E000FF0F34DD546800202EE000F1080C4FF0C0
:1003F000010808FA0CF3B1F800C00CEA03069E42AB
:1004000021D183004FF00F0C0CFA03F7BC4305FA1F
:1004100003FC4CEA040491F803C0BCF1280F05D199
:1004200000F1080C08FA0CF8C2F8148091F803C027
:10043000BCF1480F07D100F1080C4FF0010808FA91
:100440000CF8C2F81080401C0828CED35460BDE8D8
:10045000F08101617047000070B5002100230F2278
:10046000C47804B3154C246804F4E064C4F5E06473
:10047000210AC1F10403CA40447804FA03F18478E4
:100480001440214309010E4C0678A155047804F06C
:100490001F050124AC4005786D11AD0005F1E02584
:1004A000C5F8004109E0047804F01F050124AC40C0
:1004B000044D0678761145F8264070BD0CED00E03D
:1004C00000E400E080E100E002490143024A1160DB
:1004D000704700000000FA050CED00E029B1064A63
:1004E000D2690243044BDA6104E0034AD2698243D1
:1004F000014BDA61704700000010024029B1064A42
:1005000092690243044B9A6104E0034A9269824370
:10051000014B9A61704700000010024030B5002185
:100520000022002400232D4D6D6805F00C0121B13F
:10053000042905D0082923D105E0294D056022E0D2
:10054000274D05601FE0254D6D6805F47012234DA1
:100550006D6805F48034022505EB92421CB9214DEB
:10056000554305600BE01D4D6D6805F400351DB168
:100570001C4D5543056002E0194D5543056002E0EE
:10058000174D056000BF00BF144D6D6805F0F00108
:100590000909154D6B5C0568DD4045600F4D6D68C0
:1005A00005F4E061090A104D6B5C4568DD4085602B
:1005B0000A4D6D6805F46051C90A0B4D6B5C4568C6
:1005C000DD40C560054D6D6805F44041890B074D60
:1005D0006B5CC568B5FBF3F5056130BD00100240EA
:1005E00000127A0000093D000000002010000020E9
:1005F00010B500BF01210A4800F027F80028F9D003
:10060000074800F03BF8074908700121044800F052
:1006100019F804480178044800F068F910BD00009A
:1006200000380040300000200038014021B102882D
:1006300042F04002028004E002884FF6BF731A4085
:1006400002807047CA430281704702460020138926
:100650000B400BB1012000E00020704730B50024B2
:1006600000230C110125A540ABB21AB185881D43AA
:10067000858002E085889D43858030BD014688895C
:1006800070478181704710B50022028802F4415200
:100690000B884C8823438C882343CC8823430C89C4
:1006A00023434C8923438C892343CC8923431A4316
:1006B0000280838B4FF2FF74234083830B8A038273
:1006C00010BD000070B504460D4600BF0221204653
:1006D000FFF7BBFF0028F9D029462046FFF7D1FFDE
:1006E00000BF01212046FFF7B0FF0028F9D02046C7
:1006F000FFF7C4FFC0B20149087070BD310000208F
:1007000010B500F001F810BD0CB50020019000906C
:100710003348006840F480303149086000BF3048F9
:10072000006800F4003000900198401C019000988F
:1007300018B90198B0F5A06FF1D12948006800F40C
:10074000003010B10120009001E0002000900098DE
:10075000012843D12348006840F010002149086077
:100760000846006820F0030008600846006840F072
:10077000020008601A484068194948600846406805
:1007800048600846406840F4806048600846406819
:1007900020F47C1048600846406840F4E810486047
:1007A0000846006840F08070086000BF0C48006890
:1007B00000F000700028F9D00948406820F00300DC
:1007C000074948600846406840F00200486000BFA2
:1007D0000348406800F00C000828F9D10CBD000067
:1007E000001002400020024010B50021002000222D
:1007F000214B5B6803F00C0121B1042906D00829C4
:1008000028D107E01D4B1E4C236027E01B4B1C4CDE
:10081000236023E0184B5B6803F47010164B5B6891
:1008200003F48032022303EB904022B9154B43437B
:10083000134C23600DE0104B5B6803F4003323B1CD
:10084000104B43430E4C236003E00C4B43430C4CD2
:10085000236003E0094B0A4C236000BF00BF064B36
:100860005B68C3F30313084CE15C054B1B68CB408A
:10087000034C236010BD00000010024000127A00FB
:100880001400002000093D001800002010B5134896
:10089000006840F0010011490860084640681049AE
:1008A00008400E494860084600680E4908400B4958
:1008B00008600846006820F4802008600846406808
:1008C00020F4FE0048604FF41F008860FFF718FF17
:1008D0004FF000600449086010BD000000100240A5
:1008E0000000FFF8FFFFF6FE08ED00E070B50446DB
:1008F0000D4600BF8021204600F062F80028F9D0A4
:100900002946204600F0D6F80948007838B14FF45F
:1009100000700849086000200549087006E04FF0A3
:1009200000700449086001200149087070BD000092
:1009300028000020100C014000B585B04FF4806005
:10094000ADF8100004208DF8130004A91448FFF737
:10095000F5FC4FF40070ADF8100018208DF813006E
:1009600003208DF8120004A90D48FFF7E7FC4FF4AF
:10097000165000900020ADF80400ADF80600ADF868
:100980000800ADF80C000C20ADF80A0069460548D7
:1009900000F024F80121034800F006F805B000BD7E
:1009A000000801400038014021B1828942F4005220
:1009B000828104E082894DF6FF731A40828170477C
:1009C00002460020B1F5007F00D100BF13880B4024
:1009D0000BB1012000E00020704700002DE9F04736
:1009E00086B005460E460024A24600BFA146002759
:1009F000B08900B100BF2F462C8A4CF6FF7004402E
:100A0000F08804432C82AC894EF6F3100440B08881
:100A100031890843718908430443AC81AC8A4FF69D
:100A2000FF400440B0890443AC8201A8FFF776FD83
:100A30001F48874202D1DDF810A001E0DDF80CA0CC
:100A4000A88900F4004040B10AEBCA0000EB0A108C
:100A500031684900B0FBF1F807E00AEBCA0000EB8F
:100A60000A1031688900B0FBF1F86420B8FBF0F09F
:100A700004012009642101FB1089A88900F40040C9
:100A800040B1322000EBC900B0FBF1F000F00700EC
:100A9000044308E0322000EB09106421B0FBF1F0C0
:100AA00000F00F0004432C8106B0BDE8F087000081
:100AB00000380140C1F308028280704708B5FFF793
:100AC000E5FEFFF791FE012145F20D00FFF716FD4F
:100AD00001218803FFF702FD4FF40070ADF800001C
:100AE00010208DF8030003208DF8020069460B48A2
:100AF000FFF724FC4FF400710848FFF7AAFCFFF74A
:100B00009DFBFFF719FF07E041210548FFF7DAFDDC
:100B10004FF47A70FFF702FCF6E70000000C01408A
:100B200000300140440B00080000002034000000A9
:100B300028010008780B000834000020640600003B
:100B40004401000800000000010203040102030444
:100B5000060708090204060800A24A040000000073
:100B60000000000001020304060708090041542B9D
:080B7000525354000000000084
:04000005080000ED02
:00000001FF
