:020000040800F2
:100000009006002089010008910100089301000872
:100010009501000897010008990100080000000000
:100020000000000000000000000000009B0100082C
:100030009D010008000000009F010008A1010008C8
:10004000A3010008A3010008A3010008A301000800
:10005000A3010008A3010008A3010008A3010008F0
:10006000A3010008A3010008A3010008A3010008E0
:10007000A3010008A3010008A3010008A3010008D0
:10008000A3010008A30100089D040008A3010008C3
:10009000A3010008A3010008A3010008A3010008B0
:1000A000A3010008A3010008A3010008A3010008A0
:1000B000A3010008A3010008A3010008A301000890
:1000C000A3010008A3010008A3010008A301000880
:1000D000A3010008A3010008A3010008A301000870
:1000E000A3010008A3010008A301000800F002F822
:1000F00000F03AF80AA090E8000C82448344AAF188
:100100000107DA4501D100F02FF8AFF2090EBAE885
:100110000F0013F0010F18BFFB1A43F0010318473B
:10012000D00D0000F00D0000103A24BF78C878C14F
:10013000FAD8520724BF30C830C144BF04680C60ED
:10014000704700000023002400250026103A28BF35
:1001500078C1FBD8520728BF30C148BF0B60704739
:100160001FB51FBD10B510BD00F031F81146FFF7E7
:10017000F7FF00F04FFE00F04FF803B4FFF7F2FF77
:1001800003BC00F053F800000948804709480047C5
:10019000FEE7FEE7FEE7FEE7FEE7FEE7FEE7FEE737
:1001A000FEE7FEE704480549054A064B7047000094
:1001B000710A0008ED000008900000209006002061
:1001C00090020020900200207047704770477546EB
:1001D00000F028F8AE4605006946534620F00700B7
:1001E000854618B020B5FFF7DDFFBDE820404FF091
:1001F00000064FF000074FF000084FF0000B21F011
:100200000701AC46ACE8C009ACE8C009ACE8C009DD
:10021000ACE8C0098D4670470446AFF30080204625
:10022000FFF7ABFF0048704730000020014918205D
:10023000ABBEFEE7260002007047000010B540216B
:10024000054800F0BBFA0A2000F0CEFC402102482D
:1002500000F0B2FA10BD0000000801402DE9F041A5
:1002600080460C4615461E46069FD320244908802A
:1002700024A000F031FEB8F5006F05D120480088B9
:1002800040F400601E490880B4F5C06F06D11C48D8
:10029000008840F4C0601A49088008E0B4F5806F17
:1002A00005D11748008840F4806015490880B5F5ED
:1002B000807F05D11248008840F480701049088082
:1002C000202E06D10E48008840F020000C490880FE
:1002D00010E00C2F06D10A48008840F00C000849B5
:1002E000088007E0042F05D10548008840F004008D
:1002F000034908800248008800F0CCFDBDE8F08189
:10030000280000200D0A00002DE9F04104460E46A9
:10031000B4F1807F03D34FF0FF30BDE8F081144883
:10032000008800F40060B0F5006F01D1102000E0FB
:10033000002010B94FF0FF30EFE724F07F44C4F302
:100340000B070C482040050B47F40057012E02D143
:1003500045F4405507E0022E02D145F4605502E015
:10036000384600F097FD284600F094FD0020D4E7C1
:100370002800002000F0FF0070B504460D46B5F5DA
:10038000006F01DA022D02DA4FF0FF3070BD44F247
:100390000200844202D1174908801EE046F20200A2
:1003A000844202D11349088017E046F602008442D5
:1003B00002D11049088010E047F20200844202D1C5
:1003C0000C49088009E047F60200844202D109493D
:1003D000088002E04FF0FF30D8E7C5F30A05054872
:1003E00000882843034908800846008800F052FD31
:1003F0000020CBE72C00002010B5044641F202009B
:1004000006490880C4F30B0408460088204308808E
:100410000846008800F03EFD002010BD2A000020A4
:1004200070B50446B4F1807F02D34FF0FF3070BD49
:100430001048008800F40060B0F5006F01D1102072
:1004400000E0002010B94FF0FF30F0E724F07F44C7
:10045000C4F30B0508482040060B45F4404546F41C
:100460005046284600F016FD304600F013FD0020EF
:10047000DDE700002800002000F0FF0010B520217B
:10048000054800F09BF90A2000F0AEFB202102484D
:1004900000F092F910BD00000008014008B54FF4CB
:1004A0000871114800F03BF801281CD10E4800F0FB
:1004B00032F80090BDF80000C0F30320413000F096
:1004C000D9FCBDF80000C0F30310413000F0D2FCAD
:1004D000BDF8001001F00F0101F1410000F0CAFC6D
:1004E0007E2000F0C7FC08BD0024014021B18268D5
:1004F00042F00102826003E0826822F00102826021
:100500007047014600208A6802F004020AB1012007
:1005100000E0002070470146C86C80B2704770B59B
:1005200002460020002300240B125568CEB205EAD3
:10053000060415681D4015B10CB1012000E0002033
:1005400070BD014600208A6802F008020AB101204D
:1005500000E00020704710B50023CBB21AB1446808
:100560001C43446002E044689C43446010BD0000AA
:1005700030B502460020002350680F4C20400D7912
:100580000C6844EA05242043506090680B4C2040DE
:10059000D1E902542C434D7944EA4504204390604C
:1005A000D06A20F470000C7C641EE4B2234340EA5D
:1005B0000350D06230BD0000FFFEF0FFFDF7F1FFF9
:1005C000F0B504460D4600200021092D11DDE0683C
:1005D000A5F10A0606EB4607072606FA07F1884347
:1005E000A5F10A0606EB460603FA06F10843E060A9
:1005F0000CE0206905EB4507072606FA07F188435A
:1006000005EB450603FA06F108432061072A0FDAD5
:10061000606B561E06EB86071F2606FA07F1884315
:10062000561E06EB860605FA06F10843606322E0D3
:100630000D2A0FDA206BD61F06EB86071F2606FA57
:1006400007F18843D61F06EB860605FA06F1084334
:10065000206310E0E06AA2F10D0606EB86071F2674
:1006600006FA07F18843A2F10D0606EB860605FAA5
:1006700006F10843E062F0BD816841F00801816045
:10068000704721B1826842F4A002826003E0826870
:1006900022F4A00282607047816841F00401816009
:1006A00070472DE9F0410246002500260020002376
:1006B0000024002791F803C00CF00F0591F803C047
:1006C0000CF0100CBCF1000F03D091F802C04CEA02
:1006D000050591F800C0BCF1000F31D0146800206E
:1006E0002BE04FF0010C0CFA00F3B1F800C00CEA5B
:1006F00003069E4220D183004FF00F0C0CFA03F743
:10070000BC4305FA03FC4CEA040491F803C0BCF1B5
:10071000280F06D14FF0010C0CFA00FCC2F814C0EF
:100720000AE091F803C0BCF1480F05D14FF0010C6D
:100730000CFA00FCC2F810C0401C0828D1D3146089
:10074000B1F800C0BCF1FF0F34DD546800202EE08A
:1007500000F1080C4FF0010808FA0CF3B1F800C0E2
:100760000CEA03069E4221D183004FF00F0C0CFAD5
:1007700003F7BC4305FA03FC4CEA040491F803C0F8
:10078000BCF1280F05D100F1080C08FA0CF8C2F8EA
:10079000148091F803C0BCF1480F07D100F1080C98
:1007A0004FF0010808FA0CF8C2F81080401C082825
:1007B000CED35460BDE8F08141617047016170475C
:1007C00070B5002100230F22C47804B3154C2468AF
:1007D00004F4E064C4F5E064210AC1F10403CA40F2
:1007E000447804FA03F184781440214309010E4C43
:1007F0000678A155047804F01F050124AC40057863
:100800006D11AD0005F1E025C5F8004109E004785F
:1008100004F01F050124AC40044D0678761145F81C
:10082000264070BD0CED00E000E400E080E100E057
:1008300029B1064AD2690243044BDA6104E0034A53
:10084000D2698243014BDA61704700000010024018
:1008500029B1064A92690243044B9A6104E0034AB3
:1008600092698243014B9A61704700000010024078
:1008700070B5002100230024002200252C4E76684C
:1008800006F00C0121B1042905D0082921D105E089
:10089000284E066020E0274E06601DE0244E766854
:1008A00006F47013224E766806F48034022606EBB6
:1008B00093431CB9204E5E43066009E01C4EF66A65
:1008C00006F00F06751C1B4EB6FBF5F65E43066080
:1008D00002E0184E066000BF00BF154E766806F0B5
:1008E000F0010909154E725C0668D6404660104E4C
:1008F000766806F4E061090A104E725C4668D640DC
:1009000086600B4E766806F46051C90A0B4E725C25
:100910004668D640C660064E766806F44041890BAC
:10092000074E725CC668B6FBF2F6066170BD000049
:100930000010024000127A0000093D000000002073
:100940001000002021B1028842F04002028004E041
:1009500002884FF6BF731A4002807047024600209B
:1009600013890B400BB1012000E00020704781810A
:10097000704710B50022028802F441520B884C885F
:1009800023438C882343CC8823430C8923434C89FD
:1009900023438C892343CC8923431A430280838BCE
:1009A0004FF2FF74234083830B8A038210BD10B57E
:1009B00000F002F810BD00000CB50020019000907E
:1009C0002A48006840F480302849086000BF274862
:1009D000006800F4003000900198401C01900098DD
:1009E00018B90198B0F5A06FF1D12048006800F463
:1009F000003010B10120009001E00020009000982C
:100A0000012831D1194840681849486008464068B3
:100A100048600846406848600846406820F47C10FA
:100A200048600846406840F49810486008460068EE
:100A300040F08070086000BF0C48006800F0007053
:100A40000028F9D00948406820F0030007494860B1
:100A50000846406840F00200486000BF0348406814
:100A600000F00C000828F9D10CBD00000010024075
:100A700010B51448006840F00100124908600846AB
:100A80004068114908400F494860084600680F490E
:100A900008400C4908600846006820F4802008607F
:100AA0000846406820F4FE0048604FF41F0088604C
:100AB0000020C862FFF77BFF4FF000600449086028
:100AC00010BD0000001002400000FFF8FFFFF6FE1E
:100AD00008ED00E021B1828942F40052828104E0F5
:100AE00082894DF6FF731A408281704702460020CA
:100AF000B1F5007F00D100BF13880B400BB101207E
:100B000000E00020704700002DE9F04786B0054660
:100B10000E460024A24600BFA1460027B08900B1BE
:100B200000BF2F462C8A4CF6FF700440F088044327
:100B30002C82AC894EF6F3100440B088318908430A
:100B4000718908430443AC81AC8A4FF6FF400440EE
:100B5000B0890443AC8201A8FFF78AFE1F48874290
:100B600002D1DDF810A001E0DDF80CA0A88900F4A6
:100B7000004040B10AEBCA0000EB0A10316849009E
:100B8000B0FBF1F807E00AEBCA0000EB0A1031688D
:100B90008900B0FBF1F86420B8FBF0F004012009F3
:100BA000642101FB1089A88900F4004040B1322083
:100BB00000EBC900B0FBF1F000F00700044308E0CF
:100BC000322000EB09106421B0FBF1F000F00F00BF
:100BD00004432C8106B0BDE8F087000000380140D6
:100BE000C1F3080282807047064A126841F28833D6
:100BF000B2FBF3F25043002100E0491C8142FCD3D8
:100C0000704700001400002008B57020ADF8000007
:100C100010208DF8030003208DF8020069460A4871
:100C2000FFF73FFD20210848FFF7C6FD10210648C9
:100C3000FFF7C2FD40210448FFF7BEFD2021034815
:100C4000FFF7BCFD08BD000000080140000C01409A
:100C500000B587B00020029001208DF80D00002023
:100C60008DF80C004FF460200490002005900120C6
:100C70008DF8180002A92448FFF77AFC002301220E
:100C800011462148FFF79CFC01224FF408711E48D1
:100C9000FFF761FC01211C48FFF728FC1A48FFF709
:100CA000EBFC00BF1848FFF74CFC0128FAD01648AF
:100CB000FFF7F2FC00BF1448FFF723FC0128FAD02D
:100CC00001211148FFF7DDFC12208DF804000120FE
:100CD0008DF8070000208DF805008DF806004FF410
:100CE000A06101F00702094B18684FF6FF03184096
:100CF000074B034343EA0220044B186000BF01A8DE
:100D0000FFF75EFD07B000BD002401400CED00E0E0
:100D10000000FA0510B501218803FFF789FD0121C4
:100D200044F20C20FFF794FD10BD000000B587B021
:100D300018208DF81B0003208DF81A004FF4204076
:100D4000ADF8180006A91A48FFF7ABFC10208DF883
:100D50001B0003208DF81A002020ADF8180006A90A
:100D60001348FFF79EFC0020ADF804004FF400602C
:100D7000ADF808000220ADF80A000020ADF80C0024
:100D80004FF40070ADF80E002020ADF810000020E8
:100D9000ADF812004FF48270ADF8060001A90548C5
:100DA000FFF7E7FD01210348FFF7CCFD07B000BDC9
:100DB000000C01400038004000B585B04FF40070D1
:100DC000ADF8100018208DF8130003208DF81200E4
:100DD00004A90E48FFF765FC4FF4E13000900020B5
:100DE000ADF80400ADF80600ADF80800ADF80C0051
:100DF0000820ADF80A0069460548FFF785FE012185
:100E00000348FFF767FE05B000BD00000008014081
:100E10000038014008B56420FFF7E6FEFFF77AFFCF
:100E2000FFF7CAFFFFF782FFFFF712FFFFF7ECFEA5
:100E30000C2000231A46C10100904FF40060FFF718
:100E40000DFA40F24F10FFF7EBFA012141F2F0608A
:100E5000FFF75AFAC820FFF7CFFA40F2FF7147F6C2
:100E60000200FFF789FA03E0FFF7E8F9FFF706FB56
:100E7000FAE7000010B5044600BF80210448FFF7E0
:100E800035FE0028F9D021460148FFF7A9FE10BD24
:100E90000038014010B5044620210D48FFF78CFCB6
:100EA00000BF02210B48FFF759FD0028F9D0214669
:100EB0000848FFF75CFD00BF80210648FFF74EFDA4
:100EC0000128F9D020210248FFF778FC10BD00006E
:100ED000000C01400038004010B5044603E014F84F
:100EE000010BFFF7C7FF20780028F8D110BD0000E4
:100EF000100F00080000002030000000280100084A
:100F0000400F000830000020600600004401000887
:100F1000000000000102030401020304060708099F
:100F20000204060800366E01000000000000000008
:100F30000102030406070809000000000000000089
:04000005080000ED02
:00000001FF
