:020000040800F2
:10000000C806002091010008990100089B01000822
:100010009D0100089F010008A101000800000000E8
:10002000000000000000000000000000A301000824
:10003000A501000800000000A70100080109000850
:10004000AB010008AB010008AB010008AB010008E0
:10005000AB010008AB010008AB010008AB010008D0
:10006000AB010008AB010008AB010008AB010008C0
:10007000AB010008AB010008AB010008AB010008B0
:10008000AB010008AB010008AB010008AB010008A0
:10009000AB010008AB010008AB010008A504000893
:1000A000AB010008AB010008AB010008AB01000880
:1000B000AB010008AB010008AB010008AB01000870
:1000C000AB010008AB010008AB010008AB01000860
:1000D000AB0100080D0C0008AB010008AB010008E3
:1000E00039040008AB010008AB01000800F002F879
:1000F00000F03FF80AA090E8000C82448344AAF183
:100100000107DA4501D100F034F8AFF2090EBAE880
:100110000F0013F0010F18BFFB1A43F0010318473B
:10012000081C0000281C0000103A24BF78C878C1C1
:10013000FAD8520724BF30C830C144BF04680C60ED
:10014000704700000023002400250026103A28BF35
:1001500078C1FBD8520728BF30C148BF0B60704739
:10016000642900F07D80002070471FB51FBD10B5C9
:1001700010BD00F02AF91146FFF7F7FF01F000F972
:1001800000F048F903B4FFF7F2FF03BC00F04CF9AC
:100190000948804709480047FEE7FEE7FEE7FEE71B
:1001A000FEE7FEE7FEE7FEE7FEE7FEE70448054957
:1001B000054A064B704700003D0A0008ED000008A4
:1001C000C8000020C8060020C8020020C802002085
:1001D0000FB41CB5074B06AA7B44694600900598EE
:1001E00000F0DBF80020694600F0EAF81CBC5DF87E
:1001F00014FB0000E50100002DE9F0410E46044625
:10020000002020622046E168884730B3252805D0C9
:10021000D4E901219047206A401CF2E7E1682046BA
:1002200000278847050018D0A5F14100192802D8F9
:1002300020354FF400673246294620462760FFF7F5
:100240008FFF40B1012804D0F61D26F007060836BE
:10025000D8E7361DD6E72846DAE7206ABDE8F08100
:100260002DE9F0410646002410687529314616A58F
:1002700010D0AFF30080002802DA404213A507E057
:1002800031688A0701D512A502E0490704D511A5F6
:10029000012401E0AFF3008000210A2206F12407C7
:1002A00009E0B0FBF2FCB0FBF2F302FB1C003030C3
:1002B00078541846491C0028F3D123462A46304674
:1002C000BDE8F04100F00BB8000000002D00000078
:1002D0002B000000200000007047704770472DE998
:1002E000F0470D4699469246044600F124080168FD
:1002F000880604D5E06921F01001216000E00120AA
:10030000A84201DD471B00E00027A1697A1902EB32
:100310000900081AA0612078C00602D42046AFF375
:100320000080002608E0D4E901211AF80600904771
:10033000206A401C761C20624E45F4DB2078C00603
:100340000AD52046AFF3008006E0D4E90121302031
:100350009047206A401C2062381EA7F10107F4DC98
:1003600007E0D4E9012118F805009047206A401CF5
:100370002062281EA5F10105F3DC2046AFF30080C2
:100380002078000602D50220BDE8F0870120FBE7B7
:1003900001694A1C02610878704700B58FB0CDE949
:1003A00001310021059105497944CDE90310114639
:1003B0006846FFF721FF0FB000BD0000E5FFFFFF1B
:1003C0000A6802F8010B0A607047754600F028F8C9
:1003D000AE4605006946534620F00700854618B032
:1003E00020B5FFF7E3FEBDE820404FF000064FF0D8
:1003F00000074FF000084FF0000B21F00701AC465A
:10040000ACE8C009ACE8C009ACE8C009ACE8C00978
:100410008D4670470446AFF300802046FFF7B2FEDA
:10042000004870476800002001491820ABBEFEE775
:10043000260002007047000010B54FF4805000F015
:1004400073F840B31448006820B11348006833388B
:10045000114908601048006890B900200F490860F1
:100460000D4908604FF0E020006920F001004FF0D6
:10047000E02108610A48006820F02000084908606F
:100480000548008881B24FF0804000F06BFB4FF4CC
:10049000805000F043F810BD180000201C00002020
:1004A0000004014010B5202000F03EF840B118488B
:1004B0000068401C16490860202000F02FF826E054
:1004C0004FF4007000F030F808B34FF0E0200069FE
:1004D00040F001004FF0E02108610E48006840F054
:1004E00020000C4908600C480068FF2804D20A4824
:1004F00000683330084908600748008881B24FF02F
:10050000804000F02FFB4FF4007000F007F810BDA2
:100510001C00002000040140180000200149086070
:100520007047000014040140014600200022074BE0
:100530001B6803EA0102054B14331B680B4013B11F
:100540000AB1012000E000207047000000040140D3
:10055000002123498279002A3AD00A4612680368AA
:100560009A430B461A600A1D126803689A430B1DD2
:100570001A60027911440A6803681A430A60184A2B
:100580000832126803689A43154B08331A601A1D23
:10059000126803689A43124B0C331A604279102A8E
:1005A0000ED11A1F126803681A430D4B08331A60E4
:1005B0001A1D126803681A43094B0C331A600DE0C8
:1005C0000749427911440A6803681A430A6005E042
:1005D000027911440A6803689A430A607047000070
:1005E0000004014030B500228B071C0F0F2303FAD3
:1005F00004F20B4B8C1053F824309343084C8D10AD
:1006000044F8253023468C1053F824308C07240FEF
:1006100000FA04F42343024C8D1044F8253030BD19
:10062000080001402DE9F041024600250026002087
:1006300000230024002791F803C00CF00F0591F867
:1006400003C00CF0100CBCF1000F03D091F802C0F5
:100650004CEA050591F800C0BCF1000F31D01468D8
:1006600000202BE04FF0010C0CFA00F3B1F800C0B1
:100670000CEA03069E4220D183004FF00F0C0CFAC7
:1006800003F7BC4305FA03FC4CEA040491F803C0E9
:10069000BCF1280F06D14FF0010C0CFA00FCC2F897
:1006A00014C00AE091F803C0BCF1480F05D14FF027
:1006B000010C0CFA00FCC2F810C0401C0828D1D371
:1006C0001460B1F800C0BCF1FF0F34DD54680020A5
:1006D0002EE000F1080C4FF0010808FA0CF3B1F815
:1006E00000C00CEA03069E4221D183004FF00F0C9C
:1006F0000CFA03F7BC4305FA03FC4CEA040491F836
:1007000003C0BCF1280F05D100F1080C08FA0CF861
:10071000C2F8148091F803C0BCF1480F07D100F172
:10072000080C4FF0010808FA0CF8C2F81080401CC1
:100730000828CED35460BDE8F081000070B50021D8
:1007400000230F22C47804B3154C246804F4E06439
:10075000C4F5E064210AC1F10403CA40447804FAF4
:1007600003F184781440214309010E4C0678A15509
:10077000047804F01F050124AC4005786D11AD002C
:1007800005F1E025C5F8004109E0047804F01F05F3
:100790000124AC40044D0678761145F8264070BD22
:1007A0000CED00E000E400E080E100E029B1064A41
:1007B000D2690243044BDA6104E0034AD2698243FE
:1007C000014BDA61704700000010024029B1064A6F
:1007D00092690243044B9A6104E0034A926982439E
:1007E000014B9A61704700000010024010B50121D2
:1007F00044F20D00FFF7EAFF01210846FFF7D6FF9C
:1008000010BD000030B500210022002400232D4D32
:100810006D6805F00C0121B1042905D0082923D108
:1008200005E0294D056022E0274D05601FE0254DBC
:100830006D6805F47012234D6D6805F4803402254F
:1008400005EB92421CB9214D554305600BE01D4D4F
:100850006D6805F400351DB11C4D5543056002E07F
:10086000194D5543056002E0174D056000BF00BFFC
:10087000144D6D6805F0F0010909154D6B5C0568B4
:10088000DD4045600F4D6D6805F4E061090A104DCB
:100890006B5C4568DD4085600A4D6D6805F460510C
:1008A000C90A0B4D6B5C4568DD40C560054D6D6840
:1008B00005F44041890B074D6B5CC568B5FBF3F54A
:1008C000056130BD0010024000127A0000093D00B1
:1008D0000000002010000020042808D14FF0E02183
:1008E000096941F004014FF0E022116107E04FF087
:1008F000E021096921F004014FF0E0221161704705
:100900002DE9F0474FF0E020006920F001004FF0A2
:10091000E02108611848006880F00200164908606C
:100920001648006800F0F8FF0646154A154B01F01E
:1009300007F804460022144B00F052FE804600F0F7
:10094000A7FF1249086000200C4908600F4810A159
:1009500002681048FFF73CFC0E4800F08DFD0A20AD
:1009600000F07AFD4FF0E020006940F001004FF008
:10097000E0210861BDE8F0870C0C01401C0000205C
:100980001F85EB51B81E19400000304024000020A4
:10099000256400005800002010B50021002000222E
:1009A000214B5B6803F00C0121B1042906D0082912
:1009B00028D107E01D4B1E4C236027E01B4B1C4C2D
:1009C000236023E0184B5B6803F47010164B5B68E0
:1009D00003F48032022303EB904022B9154B4343CA
:1009E000134C23600DE0104B5B6803F4003323B11C
:1009F000104B43430E4C236003E00C4B43430C4C21
:100A0000236003E0094B0A4C236000BF00BF064B84
:100A10005B68C3F30313084CE15C054B1B68CB40D8
:100A2000034C236010BD00000010024000127A0049
:100A30001400002000093D00101D00081148006846
:100A400040F001000F490860084640680E49084020
:100A50000C494860084600680C490840094908608C
:100A60000846006820F4802008600846406820F4AA
:100A7000FE0048604FF41F008860C8030449086006
:100A800070470000001002400000FFF8FFFFF6FE74
:100A900008ED00E021B1028842F00102028004E08A
:100AA00002884FF6FE731A400280704731B1B0F8E9
:100AB000442042F40042A0F8442005E0B0F844206D
:100AC000C2F30E02A0F844207047000070B5002465
:100AD00000220023058C4FF6FE7635400584028CFB
:100AE0008388048B4FF68F752C40B51E2C400D88E3
:100AF0002C43751E2A400D892A434D882A43144DE4
:100B0000A8420BD0134DA84208D0134DA84205D0DF
:100B1000124DA84202D0124DA84213D14FF6F775DC
:100B20002A404D892A434FF6FB752A408D882A4377
:100B30004FF6FF652B404FF6FF552B408D892B4319
:100B4000CD892B4383800483CD888586028470BD44
:100B5000002C0140003401400040014000440140AD
:100B60000048014081867047002202881D4B984250
:100B70000ED01D4B98420BD0B0F1804F08D01B4BCC
:100B8000984205D01A4B984202D01A4B984204D191
:100B90004FF68F731A404B881A43174B984207D071
:100BA000164B984204D04FF6FF431A40CB881A43A5
:100BB00002808B8883850B8803850A4B98420BD073
:100BC000094B984208D00E4B984205D00D4B9842E5
:100BD00002D00D4B984201D10B7A03860123838208
:100BE00070470000002C0140003401400004004028
:100BF00000080040000C00400010004000140040BD
:100C00000040014000440140004801402DE9FC5FE4
:100C10002021DB4800F0F5F9012874D1D848001DE7
:100C20000088D84908700846007841281ED1D64867
:100C30000068FF2804D2D4480068401CD2490860EC
:100C4000D248006840F02000D04908604FF0E02012
:100C5000006940F001004FF0E0210861CA480088B7
:100C600081B24FF08040FFF77DFF82E1C5480078F8
:100C7000532825D1C448006820B1C3480068401EED
:100C8000C1490860C048006890B90020C0490860A8
:100C9000BD4908604FF0E020006920F001004FF0EE
:100CA000E0210861B948006820F02000B7490860D9
:100CB000B548008881B24FF08040FFF753FF58E1FC
:100CC000B048007851281FD1AF480068FF2804D2EF
:100CD000AD4800683330AC490860AC48006840F06B
:100CE0002000AA4908604FF0E020006940F00100B0
:100CF0004FF0E0210861A448008881B24FF08040A5
:100D0000FFF730FF35E138E19E480078572825D1BC
:100D10009D48006820B19C48006833389A490860B3
:100D20009948006890B90020994908609649086080
:100D30004FF0E020006920F001004FF0E021086151
:100D40009248006820F02000904908608E48008892
:100D500081B24FF08040FFF705FF0AE18948007833
:100D600044281BD10020884908600846008881B2C9
:100D70004FF08040FFF7F6FE4FF0E020006920F0D2
:100D800001004FF0E02108618048006820F0200059
:100D90007E49086000207E490860EAE079480078D2
:100DA0004D2818D1FF20784908607848006840F045
:100DB0002000764908604FF0E020006940F0010013
:100DC0004FF0E02108617048008881B24FF0804008
:100DD000FFF7C8FECDE06B480078462892D06948FE
:100DE00000785F280DD06B480078072809DA65493C
:100DF0000A7868490878411C664B197066490A549C
:100E0000B7E064480078072804D100206249614AAD
:100E10001278885400205F4908705F4800786B287A
:100E200033D15D48407870282FD15CA000F024FBBE
:100E30005948801C00F020FB574840793038642125
:100E400090FBF1F8404600F050FD04460D46524834
:100E5000007930380A2190FBF1F0019000F045FD57
:100E600082468B464C498978A1F1300000F03DFD67
:100E7000804652465B4600F00BFB064622462B4658
:100E800000F006FB494A03C273E0434800786B2830
:100E900033D14148407864282FD145A000F0ECFAC6
:100EA0003D48801C00F0E8FA3B4840793038642126
:100EB00090FBF1F6304600F018FD04460D4636482A
:100EC000007930380A2190FBF1F0019000F00DFD1F
:100ED00082468B4630498978A1F1300000F005FD4B
:100EE000064652465B4600F0D3FA804622462B4621
:100EF00000F0CEFA324A03C23BE0274800786B2864
:100F000034D125484078692830D12EA000F0B4FAB9
:100F10002148801C00F0B0FA1F4840793038642125
:100F200090FBF1F4204600F0E0FC804689461A4828
:100F3000007930380A2190FBF1FA504600F0D5FCD8
:100F400004460D4614498978A1F1300000F0CDFC2B
:100F5000064622462B4600F09BFA42464B46CDE918
:100F6000000100F095FA1B4A03C202E00A4800F0B3
:100F700083FA2021024800F02FF8BDE8FC9F000012
:100F80000038014028000020180000200004014023
:100F90001C00002031000020290000200A4B702096
:100FA00067656C6469203A0A000000004000002078
:100FB0000A4B642067656C6469203A0A00000000EF
:100FC000500000200A4B692067656C6469203A0A6A
:100FD000000000004800002001F40072B2F5007F1C
:100FE00000D100BFCA430280704721B1828942F418
:100FF0000052828104E082894DF6FF731A4082819B
:10100000704702460020B1F5007F00D100BF138871
:101010000B400BB1012000E000207047F0B5034603
:10102000002400260025002040F66A17B94200D1AE
:1010300000BF1846C1F3421401F01F06012707FA4A
:1010400006F5012C01D10C3004E0022C01D1103046
:1010500000E014301AB107682F43076002E0076808
:10106000AF430760F0BD00002DE9F04786B00546AC
:101070000E460024A24600BFA1460027B08900B159
:1010800000BF2F462C8A4CF6FF700440F0880443C2
:101090002C82AC894EF6F3100440B08831890843A5
:1010A000718908430443AC81AC8A4FF6FF40044089
:1010B000B0890443AC8201A8FFF7A4FB1F48874214
:1010C00002D1DDF810A001E0DDF80CA0A88900F441
:1010D000004040B10AEBCA0000EB0A103168490039
:1010E000B0FBF1F807E00AEBCA0000EB0A10316828
:1010F0008900B0FBF1F86420B8FBF0F0040120098E
:10110000642101FB1089A88900F4004040B132201D
:1011100000EBC900B0FBF1F000F00700044308E069
:10112000322000EB09106421B0FBF1F000F00F0059
:1011300004432C8106B0BDE8F08700000038014070
:10114000C1F30802828070470EB54FF40070ADF80D
:10115000000004208DF8030069460B48FFF762FA8F
:1011600009210120FFF73EFA4FF4007001900020A2
:101170008DF8080008208DF8090001208DF80A007C
:1011800001A8FFF7E5F90EBD000C01401FB50121D4
:101190000820FFF71BFB4FF48050ADF8040004203B
:1011A0008DF8070001A91348FFF73CFA0C21012034
:1011B000FFF718FA4FF48050029000208DF80C00D1
:1011C00008208DF80D0001208DF80E0002A8FFF711
:1011D000BFF928208DF8000005208DF801000020BF
:1011E0008DF8020001208DF803006846FFF7A6FA8B
:1011F0001FBD0000000C01401FB501210820FFF7B2
:10120000E5FA2020ADF8040004208DF8070001A9BC
:101210001148FFF707FA05210120FFF7E3F9202025
:10122000029000208DF80C0008208DF80D000120A0
:101230008DF80E0002A8FFF78BF917208DF800003B
:1012400000208DF801008DF8020001208DF80300C8
:101250006846FFF773FA1FBD000C014008B5012076
:10126000ADF8000018208DF8030003208DF802006F
:1012700069460248FFF7D6F908BD000000080140A2
:1012800030B587B005460C464720ADF81000002069
:10129000ADF81200ADF81450ADF816008DF8180036
:1012A00004A94FF08040FFF75FFC6020ADF800001C
:1012B0000120ADF80200ADF806400020ADF80800AE
:1012C000ADF80C0069464FF08040FFF7FFFB0121AD
:1012D0008807FFF7DFFB01218807FFF7E7FB07B06F
:1012E00030BD000000B587B04FF48060ADF8180045
:1012F00004208DF81B0006A91F48FFF793F94FF44F
:101300000070ADF8180018208DF81B0003208DF830
:101310001A0006A91848FFF785F94FF4E13002904A
:101320000020ADF80C00ADF80E00ADF81000ADF8DF
:1013300014000C20ADF8120002A91048FFF794FE2B
:1013400001210E48FFF751FE012240F225510B48C2
:10135000FFF764FE25208DF804000E208DF80500AF
:101360000F208DF8060001208DF8070001A8FFF777
:10137000E5F907B000BD0000000801400038014059
:1013800008B501210820FFF721FA0220ADF800007E
:1013900003208DF8020010208DF8030069462848CC
:1013A000FFF740F9FFF74AFBFFF7F6FAFFF71EFADF
:1013B000FFF798FFFFF752FF2248008881B2FF2015
:1013C000FFF75EFFFFF718FFFFF7BEFEFFF7DEFE39
:1013D0006FF00400FFF780FA1B49B1F1807F00D362
:1013E0001DE021F07F40401E4FF0E0225061501779
:1013F0000F22002807DA13071D0E144B00F00F040C
:10140000241F1D5503E013071C0E114B1C5400BF75
:1014100000204FF0E02290610720106100BF4FF0E4
:10142000E020006920F001004FF0E0210861094848
:10143000006820F020000749086000BFFEE70000B8
:10144000000C014018000020A086010018ED00E00B
:1014500000E400E00004014010B5044600BF802114
:101460000448FFF7CEFD0028F9D021460148FFF7D8
:1014700067FE10BD0038014010B5044603E014F8C3
:10148000010BFFF7E9FF20780028F8D110BD00001C
:1014900010B591EA030F48BF83F0004300F1568373
:1014A000841A71EB030C05D2121943EB0C03001BD9
:1014B00061EB0C01DFF824E14FEA1154A4EB135C5B
:1014C0001EEA430F18BF9EEA445F73D023EA0E035F
:1014D000DCF1200E21EA045143F4801332D322FAC6
:1014E0000CFE10EB0E0023FA0CFE41EB0E01CCF1CA
:1014F000200E03FA0EFE10EB0E0051F10001B1F5C3
:10150000801FCCF1200E32D201EB045112FA0EF200
:10151000BDE8104058BF7047401C38BF5FEA420228
:1015200018BF7047002814BF20F0010041F10001EE
:101530004FEA410313F5001F38BF7047A1F1C041C6
:1015400000F0F6BA012A43EB0302ACF1200CDCF107
:101550001F0E32BF4FF0000E23FA0CF310EB030006
:1015600041EB0451B4EB115FD0D0A1EB045101F574
:10157000801149085FEA300001EB04510ED350F1AD
:10158000000038BF12FA0EFE08D1BDE81040C9E7CE
:10159000401C38BF5FEA4202CAD1C3E7BDE8104031
:1015A0004FEA410313F5001F38BF7047A1F1C04156
:1015B00000F0BEBA9EEA445F08D011EA5E0FBDE8B3
:1015C000104004BF01F0004100207047BDE810400A
:1015D00070B500F05FFA00BF64FBBE3E0000E0FFA4
:1015E0002DE9C04130B4DFF8A0C23CEA111418BFA5
:1015F0003CEA131400F0EC8081EA03051CEA1114A4
:1016000044EAD57418BF1CEA131500F0C780A4EB98
:1016100005044FF0004545EAC12145EAC32341EAEC
:10162000505143EA525304F17F74994204F5003457
:101630004FEAC0204FEAC22208BF904200F09C80CF
:101640004FEA13650FF24016765D4FEA134506FB2D
:1016500005F7C7F1807706FB07F74FEAD737A7FBF7
:1016600003687642C8F58038A7FB06CE38BFA8F1DC
:10167000010807FB08E64FF0000EA6FB028CE6FB14
:1016800003CEDCF1000CCEF1004E38BFAEF1010EFE
:10169000A6FB0C584FF000074FF00005E6FB0E8745
:1016A000A1FB08C6A0FB07CE16EB0E0645F1000510
:1016B000E1FB076515F1E04E7EBFA4F580345FEADB
:1016C00046066D4116F1800745F100054FEA1727E0
:1016D0004FEA066647EA0567A6F1DE46B6F1805F87
:1016E0004FEA15251FD9384624F0010C05EBC471CB
:1016F000BCF1FE6F01EB0C1102D8F0BCBDE800811B
:1017000024425CBF01F5801E9EEAC47F02D4F0BC77
:10171000BDE80081244238D4F0BCA1F1C041BDE84D
:10172000004100F005BA4FEAD22242EA43524FEAA2
:10173000D323A7FB02864FEAD02040EA415007FBA3
:1017400003661EEA0E0F4FEAD12105FB026658BF61
:10175000A6EB0056B6EB00564FEA520E4EEAC37E99
:1017600018EB0E0E56EB530EBDD518EB02085E417A
:101770007F1C55F10005B6E74FF480154FF00007C8
:101780004FF000064FF00008ADE7F0BC4FF000004E
:1017900001F1C04101F00041BDE8008111EA0C1FD8
:1017A0000CEA131500D00CE013EA0C1F00F02580A2
:1017B0004FF00000F0BC81EA030101F00041BDE8F8
:1017C0000081F0BCBDE8004181EA030100F0B0B93E
:1017D000F0BCBDE8004170B500F05CF9097EFC3E4C
:1017E00000F007B881EA03014FF0000001F000416A
:1017F000704781EA030100F09BB9F0BCBDE80041ED
:101800004FF0000021497047FFFDFBF9F7F5F4F2B6
:10181000F0EEEDEBE9E8E6E4E3E1E0DEDDDBDAD88B
:10182000D7D5D4D3D1D0CFCDCCCBCAC8C7C6C5C4E9
:10183000C2C1C0BFBEBDBCBBBAB9B8B7B6B5B4B300
:10184000B2B1B0AFAEADACABAAA9A8A8A7A6A5A4EB
:10185000A3A3A2A1A09F9F9E9D9C9C9B9A999998AF
:101860009797969595949393929191908F8F8E8E52
:101870008D8C8C8B8B8A89898888878786858584DF
:1018800084838382828181800000FF070000F87FCB
:101890004FEA1153A3F58063D3F11E03A8BFD3F120
:1018A000200C08DB4FF0004242EAC12252EA5052BB
:1018B00032FA03F0704709420BD4102BC4BF00204A
:1018C000704703F5787CBCF1FF3F05D04FF0FF3047
:1018D00070474FF00000704770B500F0DBF800BFB4
:1018E0004992248000207047F0E710F0004248BF82
:1018F0004042B0FA80F310FA03F10AD0C3F11D039D
:1019000003F580634FEA415002EB035202EBD12111
:1019100070474FF000007047B0FA80F310FA03F1FF
:101920000AD0C3F11D0303F580634FEA41504FEA2B
:10193000035202EBD12170474FF0000070470000C6
:10194000DFF848C170B51CEA111E1EBF1CEA131552
:101950009EEA0C0F95EA0C0F00F06F8081EA0304F9
:1019600023EA4C134EEAD47E21EA4C1141F4801153
:1019700043F48013AE44A1FB024CA0FB0365AEF11F
:101980007F7E361955EB0C05A1FB034C4CF100038F
:10199000A0FB021C16EB0C06654153F10003094243
:1019A00018BF46F0010613F4007F0BD14FEA033154
:1019B0004FEA0530340341EA155140EA16506FF002
:1019C00003020AE04FEAC3214FEAC520F40241EACC
:1019D000555140EA56506FF0020202EB2E4201EBE5
:1019E000025585EACE710AD05FEA440C18BF24F094
:1019F000004450F1000041F1000120EAD47040F2AF
:101A0000FE7C624500D270BDA84214BF4FF08044F6
:101A10004FF04044002E08BF0024BEF1806FA8BFE5
:101A2000A1F1C041BDE8704080F282804FF000001B
:101A300001F1C04101F0004170479EEA0C0F0CEA31
:101A4000131518BF95EA0C0F06D04FF0000081EA7D
:101A5000030E0EF0004170BD00F01CF88900013E3D
:101A600000F007B800F009B84FEA430C5FEA5C5C8D
:101A700008D081EA030100F05BB84FEA410C5FEA4D
:101A80005C5CF6D14FF00000014970470000FF0791
:101A90000000F87F0EF1020E2EF0030E5EF8046BCC
:101AA000364205D4012A43EB030515F5001F12D871
:101AB000012841EB010C1CF5001F0CD80ED14FEA98
:101AC000D17C15F5001F0CEB4C0C0CF1020C08BF7F
:101AD0004CEBD37C04E04FF0080C01E04FEAD37CE0
:101AE0000CEB4C0526FA05F606F00706B6F1040CD9
:101AF00006D20EEB860CBDE870404CF0010C60473E
:101B0000DFE80CF0090B02024FF000414FF000003B
:101B1000A1F5002170BD19461046012851EB0104C2
:101B200018BFD4F5001484BF002001F0004170BD3F
:101B30000808A0F500114FEA3101704710B591EA8D
:101B4000030F48BF83F000433FF5AAAC841A71EB42
:101B5000030C07D212198CF0004C43EB0C03001B52
:101B600061EB0C01DFF8A4E14FEA1154A4EB135C24
:101B70001EEA430F18BF9EEA445F00F0B08023EADC
:101B80006E03524221EA0451C3EB6E0338BF5B1E61
:101B9000DCF1200E25D322FA0CFE10EB0E0043FAE6
:101BA0000CFE41EB0E01CCF1200E03FA0EFE10EB01
:101BB0000E0051F10001CCF1200E29D412FA0EF2E0
:101BC00001EB0451BDE8104058BF7047401C1CBFDA
:101BD000B2F1004F704700280CBF491C20F00100F3
:101BE000704712EB020E43EB030218BF4FF0010ED9
:101BF0004EEA4202ACF1200CDCF11E0E54D943FA3D
:101C00000CFE10EB0E0051F1FF31CCF11E0ED5D5BC
:101C10000EF1010E12FA0EFE404141EB010101EB03
:101C2000445C5FEA5C5C10D910EBDE7001EB0451A0
:101C300038BFBEF1004FBDE8104018BF7047002804
:101C40000CBF491C20F00100704730D24FEAD42C61
:101C500011F5001124F400641BD0B1FA81F20B3AA3
:101C6000A41AA41ED2F12003914030FA03F31943C1
:101C7000904001EBCC71002C01EB0451BDE8104009
:101C8000A8BF704701F1C0414FF0000001F00041D2
:101C90007047B0FA80F310FA03F100D110BDE41AD6
:101CA000173C4805C90AE4E701EB045110BD49108F
:101CB00001EB0451BDE810404FEA300002E04FF064
:101CC000000170474A0008BF0042F8D0B2F5001F7B
:101CD00028BF704701F000414FF0000070479EEAB6
:101CE000445F07D011EA5E0FBDE8104004BF002139
:101CF00000207047BDE8104070B5FFF7CBFE00BF75
:101D000040DFF63E83F00041104670470000E0FFE0
:101D1000000000000000000001020304060708099B
:101D20000000000001020304481D0008000000201C
:101D30005800000028010008A01D000858000020DD
:101D400070060000440100080000000001020304C6
:101D500001020304060708090204060800A24A0457
:101D60000000000000000000000000000000000073
:101D70000000000000000000000000000000000063
:101D80000000000000000000000000000000000053
:101D90000000000000000000000000000000000043
:04000005080000ED02
:00000001FF
