:020000040800F2
:10000000600600206D0100087501000877010008F6
:10001000790100087B0100087D0100080000000054
:100020000000000000000000000000007F01000848
:10003000810100080000000083010008850100081C
:100040008701000887010008870100088701000870
:100050008701000887010008870100088701000860
:100060008701000887010008870100088701000850
:100070008701000887010008870100088701000840
:100080008701000887010008870100088701000830
:100090008701000887010008870100088701000820
:1000A0008701000887010008870100088701000810
:1000B000490500088701000887010008870100083A
:1000C00087010008870100088701000887010008F0
:1000D00087010008870100088701000887010008E0
:1000E00087010008870100088701000800F002F876
:1000F00000F02CF80AA090E8000C82448344AAF196
:100100000107DA4501D100F021F8AFF2090EBAE893
:100110000F0013F0010F18BFFB1A43F0010318473B
:10012000E8060000F8060000002300240025002651
:10013000103A28BF78C1FBD8520728BF30C148BF4A
:100140000B6070471FB51FBD10B510BD00F031F832
:100150001146FFF7F7FF00F04DFB00F04FF803B436
:10016000FFF7F2FF03BC00F053F800000948804796
:1001700009480047FEE7FEE7FEE7FEE7FEE7FEE789
:10018000FEE7FEE7FEE7FEE704480549054A064BA1
:1001900070470000E9040008ED000008600000203E
:1001A0006006002060020020600200207047704757
:1001B0007047754600F028F8AE460500694653467C
:1001C00020F00700854618B020B5FFF7DDFFBDE839
:1001D00020404FF000064FF000074FF000084FF0AE
:1001E000000B21F00701AC46ACE8C009ACE8C0093F
:1001F000ACE8C009ACE8C0098D4670470446AFF3CF
:1002000000802046FFF7ABFF004870470000002049
:1002100001491820ABBEFEE72600020070472DE919
:10022000F04102460025002600200023002400277C
:1002300091F803C00CF00F0591F803C00CF0100CFE
:10024000BCF1000F03D091F802C04CEA050591F80B
:1002500000C0BCF1000F31D0146800202BE04FF03B
:10026000010C0CFA00F3B1F800C00CEA03069E4240
:1002700020D183004FF00F0C0CFA03F7BC4305FAB2
:1002800003FC4CEA040491F803C0BCF1280F06D12A
:100290004FF0010C0CFA00FCC2F814C00AE091F80F
:1002A00003C0BCF1480F05D14FF0010C0CFA00FC63
:1002B000C2F810C0401C0828D1D31460B1F800C0A7
:1002C000BCF1FF0F34DD546800202EE000F1080C73
:1002D0004FF0010808FA0CF3B1F800C00CEA03066D
:1002E0009E4221D183004FF00F0C0CFA03F7BC4360
:1002F00005FA03FC4CEA040491F803C0BCF1280F92
:1003000005D100F1080C08FA0CF8C2F8148091F835
:1003100003C0BCF1480F07D100F1080C4FF00108F1
:1003200008FA0CF8C2F81080401C0828CED354609C
:10033000BDE8F08102460020D3680B400BB10120DC
:1003400000E0002070474161704701617047000084
:1003500070B5002100230F22C47804B3154C246823
:1003600004F4E064C4F5E064210AC1F10403CA4066
:10037000447804FA03F184781440214309010E4CB7
:100380000678A155047804F01F050124AC400578D7
:100390006D11AD0005F1E025C5F8004109E00478D4
:1003A00004F01F050124AC40044D0678761145F891
:1003B000264070BD0CED00E000E400E080E100E0CC
:1003C00029B1064AD2690243044BDA6104E0034AC8
:1003D000D2698243014BDA6170470000001002408D
:1003E00029B1064A92690243044B9A6104E0034A28
:1003F00092698243014B9A617047000000100240ED
:1004000010B500F001F810BD0CB50020019000906F
:100410003348006840F480303149086000BF3048FC
:10042000006800F4003000900198401C0190009892
:1004300018B90198B0F5A06FF1D12948006800F40F
:10044000003010B10120009001E0002000900098E1
:10045000012843D12348006840F01000214908607A
:100460000846006820F0030008600846006840F075
:10047000020008601A484068194948600846406808
:1004800048600846406840F480604860084640681C
:1004900020F47C1048600846406840F4E81048604A
:1004A0000846006840F08070086000BF0C48006893
:1004B00000F000700028F9D00948406820F00300DF
:1004C000074948600846406840F00200486000BFA5
:1004D0000348406800F00C000828F9D10CBD00006A
:1004E000001002400020024010B51348006840F0A0
:1004F00001001149086008464068104908400E494B
:100500004860084600680E4908400B4908600846E4
:10051000006820F4802008600846406820F4FE004F
:1005200048604FF41F008860FFF76AFF4FF00060DB
:100530000449086010BD0000001002400000FFF8F0
:10054000FFFFF6FE08ED00E010B50221480700F0BD
:100550002AF8012814D10221800700F015F84FF481
:1005600000410848FFF7E6FE012804D1C103054811
:10057000FFF7E9FE04E04FF400410248FFF7E5FE13
:1005800010BD000000100140CA430282704721B133
:10059000028842F00102028004E002884FF6FE73F6
:1005A0001A400280704702460020138A0B400BB1AC
:1005B000012000E0002070471AB183890B4383813A
:1005C00002E083898B4383817047000070B500246B
:1005D00000220023058C4FF6FE7635400584028C00
:1005E0008388048B4FF68F752C40B51E2C400D88E8
:1005F0002C43751E2A400D892A434D882A43144DE9
:10060000A8420BD0134DA84208D0134DA84205D0E4
:10061000124DA84202D0124DA84213D14FF6F775E1
:100620002A404D892A434FF6FB752A408D882A437C
:100630004FF6FF652B404FF6FF552B408D892B431E
:10064000CD892B4383800483CD888586028470BD49
:10065000002C0140003401400040014000440140B2
:1006600000480140002202881D4B98420ED01D4BCD
:1006700098420BD0B0F1804F08D01B4B984205D068
:100680001A4B984202D01A4B984204D14FF68F73FE
:100690001A404B881A43174B984207D0164B984282
:1006A00004D04FF6FF431A40CB881A4302808B8850
:1006B00083850B8803850A4B98420BD0094B9842DF
:1006C00008D00E4B984205D00D4B984202D00D4BEE
:1006D000984201D10B7A0386012383827047000080
:1006E000002C01400034014000040040000800409C
:1006F000000C004000100040001400400040014089
:10070000004401400048014008B54FF40040ADF8F6
:10071000000003208DF8020010208DF803006946C8
:100720000148FFF77CFD08BD0010014008B54FF4FB
:10073000A06101F007020D4B18684FF6FF03184047
:100740000B4B034343EA0220084B186000BF1C20F8
:100750008DF8000001208DF8030000208DF80100C5
:100760008DF802006846FFF7F3FD08BD0CED00E0D0
:100770000000FA0510B501211120FFF731FE01211B
:100780000846FFF71DFE10BD00B587B04FF4B460FA
:10079000ADF810000020ADF812004CF25030ADF86A
:1007A00014000020ADF816008DF8180004A94FF0D1
:1007B0008040FFF757FF1020ADF800000120ADF892
:1007C00002002820ADF806000020ADF808004FF424
:1007D0008070ADF80C0069468005FFF7F7FE012236
:1007E00002214807FFF7E8FE01218807FFF7CFFE47
:1007F00007B000BDFFF7BEFFFFF786FFFFF796FFCC
:10080000FFF7C2FF00BFFEE7180800080000002045
:08081000600600002801000849
:04000005080000ED02
:00000001FF
