:020000040800F2
:10000000A80600208901000891010008930100085A
:100010009501000897010008990100080000000000
:100020000000000000000000000000009B0100082C
:100030009D010008000000009F010008A1010008C8
:10004000A3010008A3010008A3010008A301000800
:10005000A3010008A3010008A3010008A3010008F0
:10006000A3010008A3010008A3010008A3010008E0
:10007000A3010008A3010008A3010008A3010008D0
:10008000A3010008A3010008A3010008A3010008C0
:10009000A3010008A3010008A3010008A3010008B0
:1000A000A3010008A3010008A3010008A3010008A0
:1000B000A3010008A3010008A3010008A301000890
:1000C000A3010008A3010008A3010008A301000880
:1000D000A3010008A30100089D070008A301000870
:1000E000A3010008A3010008A301000800F002F822
:1000F00000F03AF80AA090E8000C82448344AAF188
:100100000107DA4501D100F02FF8AFF2090EBAE885
:100110000F0013F0010F18BFFB1A43F0010318473B
:100120008C080000AC080000103A24BF78C878C1E1
:10013000FAD8520724BF30C830C144BF04680C60ED
:10014000704700000023002400250026103A28BF35
:1001500078C1FBD8520728BF30C148BF0B60704739
:100160001FB51FBD10B510BD00F031F81146FFF7E7
:10017000F7FF00F0F5FB00F04FF803B4FFF7F2FFD4
:1001800003BC00F053F800000948804709480047C5
:10019000FEE7FEE7FEE7FEE7FEE7FEE7FEE7FEE737
:1001A000FEE7FEE704480549054A064B7047000094
:1001B00065060008ED000008A8000020A806002041
:1001C000A8020020A80200207047704770477546BB
:1001D00000F028F8AE4605006946534620F00700B7
:1001E000854618B020B5FFF7DDFFBDE820404FF091
:1001F00000064FF000074FF000084FF0000B21F011
:100200000701AC46ACE8C009ACE8C009ACE8C009DD
:10021000ACE8C0098D4670470446AFF30080204625
:10022000FFF7ABFF00487047440000200149182049
:10023000ABBEFEE72600020070472DE9F041024602
:1002400000250026002000230024002791F803C089
:100250000CF00F0591F803C00CF0100CBCF1000F6E
:1002600003D091F802C04CEA050591F800C0BCF13A
:10027000000F31D0146800202BE04FF0010C0CFA75
:1002800000F3B1F800C00CEA03069E4220D18300BF
:100290004FF00F0C0CFA03F7BC4305FA03FC4CEAD1
:1002A000040491F803C0BCF1280F06D14FF0010CF3
:1002B0000CFA00FCC2F814C00AE091F803C0BCF1CB
:1002C000480F05D14FF0010C0CFA00FCC2F810C029
:1002D000401C0828D1D31460B1F800C0BCF1FF0F56
:1002E00034DD546800202EE000F1080C4FF00108C6
:1002F00008FA0CF3B1F800C00CEA03069E4221D1C3
:1003000083004FF00F0C0CFA03F7BC4305FA03FC13
:100310004CEA040491F803C0BCF1280F05D100F1A8
:10032000080C08FA0CF8C2F8148091F803C0BCF16C
:10033000480F07D100F1080C4FF0010808FA0CF83B
:10034000C2F81080401C0828CED35460BDE8F0816C
:100350000161704770B5002100230F22C47804B3F7
:10036000154C246804F4E064C4F5E064210AC1F18A
:100370000403CA40447804FA03F18478144021430A
:1003800009010E4C0678A155047804F01F050124DC
:10039000AC4005786D11AD0005F1E025C5F80041D0
:1003A00009E0047804F01F050124AC40044D0678F0
:1003B000761145F8264070BD0CED00E000E400E049
:1003C00080E100E029B1064AD2690243044BDA61B8
:1003D00004E0034AD2698243014BDA6170470000AE
:1003E0000010024029B1064A92690243044B9A6107
:1003F00004E0034A92698243014B9A61704700000E
:100400000010024030B500210022002400232D4DB1
:100410006D6805F00C0121B1042905D0082923D10C
:1004200005E0294D056022E0274D05601FE0254DC0
:100430006D6805F47012234D6D6805F48034022553
:1004400005EB92421CB9214D554305600BE01D4D53
:100450006D6805F400351DB11C4D5543056002E083
:10046000194D5543056002E0174D056000BF00BF00
:10047000144D6D6805F0F0010909154D6B5C0568B8
:10048000DD4045600F4D6D6805F4E061090A104DCF
:100490006B5C4568DD4085600A4D6D6805F4605110
:1004A000C90A0B4D6B5C4568DD40C560054D6D6844
:1004B00005F44041890B074D6B5CC568B5FBF3F54E
:1004C000056130BD0010024000127A0000093D00B5
:1004D000000000201000002010B500F001F810BD51
:1004E0000CB50020019000903348006840F4803043
:1004F0003149086000BF3048006800F400300090C7
:100500000198401C0190009818B90198B0F5A06FAF
:10051000F1D12948006800F4003010B101200090AA
:1005200001E0002000900098012843D12348006892
:1005300040F01000214908600846006820F00300E0
:1005400008600846006840F0020008601A484068E9
:10055000194948600846406848600846406840F4C9
:10056000806048600846406820F47C104860084677
:10057000406840F4E81048600846006840F0807029
:10058000086000BF0C48006800F000700028F9D037
:100590000948406820F00300074948600846406861
:1005A00040F00200486000BF0348406800F00C00C3
:1005B0000828F9D10CBD00000010024000200240C4
:1005C00010B5002100200022214B5B6803F00C01D4
:1005D00021B1042906D0082928D107E01D4B1E4C63
:1005E000236027E01B4B1C4C236023E0184B5B6807
:1005F00003F47010164B5B6803F48032022303EBA4
:10060000904022B9154B4343134C23600DE0104B2F
:100610005B6803F4003323B1104B43430E4C23605B
:1006200003E00C4B43430C4C236003E0094B0A4CA2
:10063000236000BF00BF064B5B68C3F30313084C85
:10064000E15C054B1B68CB40034C236010BD0000F0
:100650000010024000127A001400002000093D0042
:100660001800002010B51348006840F0010011493F
:10067000086008464068104908400E49486008462E
:1006800000680E4908400B4908600846006820F4DD
:10069000802008600846406820F4FE0048604FF45F
:1006A0001F008860FFF718FF4FF0006004490860E2
:1006B00010BD0000001002400000FFF8FFFFF6FE32
:1006C00008ED00E010B501214804FFF77BFE012191
:1006D00044F20400FFF786FE4FF4007027490880BB
:1006E0001820C870032088702548FFF7A6FD4FF436
:1006F00016502449086000208880C88008818881BD
:1007000008204881204800F0B5F801211E4800F07B
:1007100072F80820194908800420C8701848FFF7AB
:100720008CFD042017494881184800F0A3F80122E5
:1007300040F22551154800F077F80121134800F0E8
:100740005AF84FF4A06101F00702114B18684FF6F8
:10075000FF0318400F4B034343EA02200C4B186081
:1007600000BF26200C4908700120C8700020487086
:1007700088700846FFF7EEFD10BD0000280000203D
:1007800000080140340000200038014000440040CF
:100790000CED00E00000FA052C00002010B540F23E
:1007A00025510D4800F033F8012814D10A4800F013
:1007B000CDF80A4908802021074800F013F80748BF
:1007C0000188074800F0C7F800BF8021044800F006
:1007D0001EF80028F9D010BD004400403000002071
:1007E0000038014001F40072B2F5007F00D100BF73
:1007F000CA430280704721B1828942F4005282814B
:1008000004E082894DF6FF731A40828170470246E8
:100810000020B1F5007F00D100BF13880B400BB161
:10082000012000E000207047F0B5034600240026B8
:100830000025002040F66A17B94200D100BF1846D3
:10084000C1F3421401F01F06012707FA06F5012C37
:1008500001D10C3004E0022C01D1103000E0143042
:100860001AB107682F43076002E00768AF430760CB
:10087000F0BD00002DE9F04786B005460E46002485
:10088000A24600BFA1460027B08900B100BF2F4695
:100890002C8A4CF6FF700440F08804432C82AC890B
:1008A0004EF6F3100440B08831890843718908433B
:1008B0000443AC81AC8A4FF6FF400440B089044346
:1008C000AC8201A8FFF79EFD1F48874202D1DDF8E8
:1008D00010A001E0DDF80CA0A88900F4004040B1B0
:1008E0000AEBCA0000EB0A1031684900B0FBF1F8CE
:1008F00007E00AEBCA0000EB0A1031688900B0FB80
:10090000F1F86420B8FBF0F004012009642101FB38
:100910001089A88900F4004040B1322000EBC900E2
:10092000B0FBF1F000F00700044308E0322000EBD8
:1009300009106421B0FBF1F000F00F0004432C819A
:1009400006B0BDE8F0870000003801400146888805
:10095000C0F308007047C1F30802828070470000AE
:10096000FFF780FEFFF72CFE01210820FFF73AFD7C
:100970004FF480700A490880032088701020C870E6
:100980000848FFF75AFC4FF480710648FFF7E0FC77
:10099000FFF798FE41210448FFF7DDFF00BFFEE7A7
:1009A00028000020000C014000380140CC0900085C
:1009B000000000203400000028010008000A0008A0
:1009C000340000207406000044010008000000000C
:1009D00001020304010203040607080902040608D1
:1009E00000A24A040000000000000000010203040D
:1009F00006070809000000000000000000000000D9
:04000005080000ED02
:00000001FF
