:020000040800F2
:100000009006002089010008910100089301000872
:100010009501000897010008990100080000000000
:100020000000000000000000000000009B0100082C
:100030009D010008000000009F010008A1010008C8
:10004000A3010008A3010008A3010008A301000800
:10005000A3010008A3010008A3010008A3010008F0
:10006000A3010008A3010008A3010008A3010008E0
:10007000A3010008A3010008A3010008A3010008D0
:10008000A3010008A3010008A3010008A3010008C0
:10009000A3010008A3010008A3010008A3010008B0
:1000A000A3010008A3010008A3010008A3010008A0
:1000B000A3010008A3010008A3010008A301000890
:1000C000A3010008A3010008A3010008A301000880
:1000D000A3010008A3010008A3010008A301000870
:1000E000A3010008A3010008A301000800F002F822
:1000F00000F03AF80AA090E8000C82448344AAF188
:100100000107DA4501D100F02FF8AFF2090EBAE885
:100110000F0013F0010F18BFFB1A43F0010318473B
:100120005806000078060000103A24BF78C878C14D
:10013000FAD8520724BF30C830C144BF04680C60ED
:10014000704700000023002400250026103A28BF35
:1001500078C1FBD8520728BF30C148BF0B60704739
:100160001FB51FBD10B510BD00F031F81146FFF7E7
:10017000F7FF00F0CFFA00F04FF803B4FFF7F2FFFB
:1001800003BC00F053F800000948804709480047C5
:10019000FEE7FEE7FEE7FEE7FEE7FEE7FEE7FEE737
:1001A000FEE7FEE704480549054A064B7047000094
:1001B00031050008ED0000089000002090060020A6
:1001C00090020020900200207047704770477546EB
:1001D00000F028F8AE4605006946534620F00700B7
:1001E000854618B020B5FFF7DDFFBDE820404FF091
:1001F00000064FF000074FF000084FF0000B21F011
:100200000701AC46ACE8C009ACE8C009ACE8C009DD
:10021000ACE8C0098D4670470446AFF30080204625
:10022000FFF7ABFF0048704730000020014918205D
:10023000ABBEFEE72600020070472DE9F041024602
:1002400000250026002000230024002791F803C089
:100250000CF00F0591F803C00CF0100CBCF1000F6E
:1002600003D091F802C04CEA050591F800C0BCF13A
:10027000000F31D0146800202BE04FF0010C0CFA75
:1002800000F3B1F800C00CEA03069E4220D18300BF
:100290004FF00F0C0CFA03F7BC4305FA03FC4CEAD1
:1002A000040491F803C0BCF1280F06D14FF0010CF3
:1002B0000CFA00FCC2F814C00AE091F803C0BCF1CB
:1002C000480F05D14FF0010C0CFA00FCC2F810C029
:1002D000401C0828D1D31460B1F800C0BCF1FF0F56
:1002E00034DD546800202EE000F1080C4FF00108C6
:1002F00008FA0CF3B1F800C00CEA03069E4221D1C3
:1003000083004FF00F0C0CFA03F7BC4305FA03FC13
:100310004CEA040491F803C0BCF1280F05D100F1A8
:10032000080C08FA0CF8C2F8148091F803C0BCF16C
:10033000480F07D100F1080C4FF0010808FA0CF83B
:10034000C2F81080401C0828CED35460BDE8F0816C
:100350000161704729B1064A92690243044B9A61D0
:1003600004E0034A92698243014B9A61704700009E
:100370000010024030B500210022002400232D4D42
:100380006D6805F00C0121B1042905D0082923D19D
:1003900005E0294D056022E0274D05601FE0254D51
:1003A0006D6805F47012234D6D6805F480340225E4
:1003B00005EB92421CB9214D554305600BE01D4DE4
:1003C0006D6805F400351DB11C4D5543056002E014
:1003D000194D5543056002E0174D056000BF00BF91
:1003E000144D6D6805F0F0010909154D6B5C056849
:1003F000DD4045600F4D6D6805F4E061090A104D60
:100400006B5C4568DD4085600A4D6D6805F46051A0
:10041000C90A0B4D6B5C4568DD40C560054D6D68D4
:1004200005F44041890B074D6B5CC568B5FBF3F5DE
:10043000056130BD0010024000127A0000093D0045
:10044000000000201000002010B500F001F810BDE1
:100450000CB50020019000903348006840F48030D3
:100460003149086000BF3048006800F40030009057
:100470000198401C0190009818B90198B0F5A06F40
:10048000F1D12948006800F4003010B1012000903B
:1004900001E0002000900098012843D12348006823
:1004A00040F01000214908600846006820F0030071
:1004B00008600846006840F0020008601A4840687A
:1004C000194948600846406848600846406840F45A
:1004D000806048600846406820F47C104860084608
:1004E000406840F4E81048600846006840F08070BA
:1004F000086000BF0C48006800F000700028F9D0C8
:100500000948406820F003000749486008464068F1
:1005100040F00200486000BF0348406800F00C0053
:100520000828F9D10CBD0000001002400020024054
:1005300010B51348006840F00100114908600846F2
:100540004068104908400E494860084600680E4956
:1005500008400B4908600846006820F480200860C5
:100560000846406820F4FE0048604FF41F00886091
:10057000FFF76AFF4FF000600449086010BD0000FB
:10058000001002400000FFF8FFFFF6FE08ED00E05B
:1005900010B54FF40070104908801820C87003206F
:1005A00088700E48FFF749FE4FF4E1300C490860AF
:1005B00000208880C88008818881082048810948F7
:1005C00000F038F80121074800F00EF80121054835
:1005D00000F023F810BD00001400002000080140C6
:1005E000200000200038014021B1828942F40052ED
:1005F000828104E082894DF6FF731A408281704740
:1006000002460020B1F5007F00D100BF13880B40E7
:100610000BB1012000E00020704721B1828A42F036
:100620000802828204E0828A4FF6F7731A408282BF
:10063000704700002DE9F04786B005460E460024BD
:10064000A24600BFA1460027B08900B100BF2F46D7
:100650002C8A4CF6FF700440F08804432C82AC894D
:100660004EF6F3100440B08831890843718908437D
:100670000443AC81AC8A4FF6FF400440B089044388
:10068000AC8201A8FFF776FE1F48874202D1DDF851
:1006900010A001E0DDF80CA0A88900F4004040B1F2
:1006A0000AEBCA0000EB0A1031684900B0FBF1F810
:1006B00007E00AEBCA0000EB0A1031688900B0FBC2
:1006C000F1F86420B8FBF0F004012009642101FB7B
:1006D0001089A88900F4004040B1322000EBC90025
:1006E000B0FBF1F000F00700044308E0322000EB1B
:1006F00009106421B0FBF1F000F00F0004432C81DD
:1007000006B0BDE8F087000000380140C1F30802E0
:1007100082807047012144F20D00FFF71BFE4FF469
:100720000070114908801020C870032088700F489D
:10073000FFF783FD4FF400710C48FFF709FEFFF748
:1007400027FF10E041210A48FFF7E0FF00BF4021EA
:100750000748FFF755FF0028F9D0002400E0641C8B
:1007600004488442FBDBEDE714000020000C01404C
:1007700000380140237A0800980700080000002094
:100780002000000028010008B80700082000002011
:10079000700600004401000800000000010203048C
:1007A000010203040607080902040608000000000D
:0807B00041542B525354000088
:04000005080000ED02
:00000001FF
