:020000040800F2
:10000000780600208901000891010008930100088A
:100010009501000897010008990100080000000000
:100020000000000000000000000000009B0100082C
:100030009D010008000000009F010008ED04000879
:10004000A3010008A3010008A3010008A301000800
:10005000A3010008A3010008A3010008A3010008F0
:10006000A3010008A3010008A3010008A3010008E0
:10007000A3010008A3010008A3010008A3010008D0
:10008000A3010008A3010008A3010008A3010008C0
:10009000A3010008A3010008A3010008A3010008B0
:1000A000A3010008A3010008A3010008A3010008A0
:1000B00085050008A3010008A3010008A3010008AA
:1000C000A3010008A3010008A3010008A301000880
:1000D000A3010008A3010008A3010008A301000870
:1000E000A3010008A3010008A301000800F002F822
:1000F00000F03AF80AA090E8000C82448344AAF188
:100100000107DA4501D100F02FF8AFF2090EBAE885
:100110000F0013F0010F18BFFB1A43F0010318473B
:10012000A4070000C4070000103A24BF78C878C1B3
:10013000FAD8520724BF30C830C144BF04680C60ED
:10014000704700000023002400250026103A28BF35
:1001500078C1FBD8520728BF30C148BF0B60704739
:100160001FB51FBD10B510BD00F031F81146FFF7E7
:10017000F7FF00F05FFB00F04FF803B4FFF7F2FF6A
:1001800003BC00F053F800000948804709480047C5
:10019000FEE7FEE7FEE7FEE7FEE7FEE7FEE7FEE737
:1001A000FEE7FEE704480549054A064B7047000094
:1001B00025050008ED0000087800002078060020E2
:1001C000780200207802002070477047704775461B
:1001D00000F028F8AE4605006946534620F00700B7
:1001E000854618B020B5FFF7DDFFBDE820404FF091
:1001F00000064FF000074FF000084FF0000B21F011
:100200000701AC46ACE8C009ACE8C009ACE8C009DD
:10021000ACE8C0098D4670470446AFF30080204625
:10022000FFF7ABFF00487047180000200149182075
:10023000ABBEFEE72600020070472DE9F041024602
:1002400000250026002000230024002791F803C089
:100250000CF00F0591F803C00CF0100CBCF1000F6E
:1002600003D091F802C04CEA050591F800C0BCF13A
:10027000000F31D0146800202BE04FF0010C0CFA75
:1002800000F3B1F800C00CEA03069E4220D18300BF
:100290004FF00F0C0CFA03F7BC4305FA03FC4CEAD1
:1002A000040491F803C0BCF1280F06D14FF0010CF3
:1002B0000CFA00FCC2F814C00AE091F803C0BCF1CB
:1002C000480F05D14FF0010C0CFA00FCC2F810C029
:1002D000401C0828D1D31460B1F800C0BCF1FF0F56
:1002E00034DD546800202EE000F1080C4FF00108C6
:1002F00008FA0CF3B1F800C00CEA03069E4221D1C3
:1003000083004FF00F0C0CFA03F7BC4305FA03FC13
:100310004CEA040491F803C0BCF1280F05D100F1A8
:10032000080C08FA0CF8C2F8148091F803C0BCF16C
:10033000480F07D100F1080C4FF0010808FA0CF83B
:10034000C2F81080401C0828CED35460BDE8F0816C
:100350000161704770B5002100230F22C47804B3F7
:10036000154C246804F4E064C4F5E064210AC1F18A
:100370000403CA40447804FA03F18478144021430A
:1003800009010E4C0678A155047804F01F050124DC
:10039000AC4005786D11AD0005F1E025C5F80041D0
:1003A00009E0047804F01F050124AC40044D0678F0
:1003B000761145F8264070BD0CED00E000E400E049
:1003C00080E100E029B1064AD2690243044BDA61B8
:1003D00004E0034AD2698243014BDA6170470000AE
:1003E0000010024029B1064A92690243044B9A6107
:1003F00004E0034A92698243014B9A61704700000E
:100400000010024010B500F001F810BD0CB500203E
:10041000019000903348006840F480303149086012
:1004200000BF3048006800F4003000900198401C84
:100430000190009818B90198B0F5A06FF1D1294842
:10044000006800F4003010B10120009001E00020AD
:1004500000900098012843D12348006840F0100024
:10046000214908600846006820F00300086008463B
:10047000006840F0020008601A4840681949486066
:100480000846406848600846406840F4806048601C
:100490000846406820F47C1048600846406840F4F4
:1004A000E81048600846006840F08070086000BFAF
:1004B0000C48006800F000700028F9D00948406836
:1004C00020F00300074948600846406840F00200F9
:1004D000486000BF0348406800F00C000828F9D1CC
:1004E0000CBD000000100240002002400A480068D5
:1004F0000A49884209D10A48006880F0100008497A
:10050000086000200449086004E003480068401CBB
:1005100001490860704700000000002020A107008A
:100520000C08014010B51348006840F00100114963
:10053000086008464068104908400E49486008466F
:1005400000680E4908400B4908600846006820F41E
:10055000802008600846406820F4FE0048604FF4A0
:100560001F008860FFF74EFF4FF0006004490860ED
:1005700010BD0000001002400000FFF8FFFFF6FE73
:1005800008ED00E010B50121880700F02DF80128E2
:1005900009D10548006880F4807003490860012192
:1005A000880700F003F810BD0C080140CA4302821E
:1005B000704721B1028842F00102028004E0028803
:1005C0004FF6FE731A400280704731B1B0F84420F4
:1005D00042F40042A0F8442005E0B0F84420C2F301
:1005E0000E02A0F84420704702460020138A0B40F8
:1005F0000BB1012000E0002070471AB183890B4342
:10060000838102E083898B438381704770B5002426
:1006100000220023058C4FF6FE7635400584028CBF
:100620008388048B4FF68F752C40B51E2C400D88A7
:100630002C43751E2A400D892A434D882A43144DA8
:10064000A8420BD0134DA84208D0134DA84205D0A4
:10065000124DA84202D0124DA84213D14FF6F775A1
:100660002A404D892A434FF6FB752A408D882A433C
:100670004FF6FF652B404FF6FF552B408D892B43DE
:10068000CD892B4383800483CD888586028470BD09
:10069000002C014000340140004001400044014072
:1006A00000480140002202881D4B98420ED01D4B8D
:1006B00098420BD0B0F1804F08D01B4B984205D028
:1006C0001A4B984202D01A4B984204D14FF68F73BE
:1006D0001A404B881A43174B984207D0164B984242
:1006E00004D04FF6FF431A40CB881A4302808B8810
:1006F00083850B8803850A4B98420BD0094B98429F
:1007000008D00E4B984205D00D4B984202D00D4BAD
:10071000984201D10B7A038601238382704700003F
:10072000002C01400034014000040040000800405B
:10073000000C004000100040001400400040014048
:10074000004401400048014010B588B004464FF411
:10075000B460ADF8140046F2A710ADF81800002000
:10076000ADF81600ADF81A0005A94FF08040FFF76C
:1007700099FF6020ADF804000120ADF80600ADF847
:100780000A400020ADF80C00ADF8100001A94FF0B0
:100790008040FFF73BFF01218807FFF716FF01218B
:1007A0008807FFF706FF1C208DF8000000208DF859
:1007B00001008DF8020001208DF803006846FFF764
:1007C000C9FD012211469007FFF717FF08B010BDC1
:1007D00008B50120ADF8000018208DF803000320B3
:1007E0008DF8020069460248FFF727FD08BD0000AA
:1007F0000008014010B501210520FFF7F3FD01219C
:100800000846FFF7DFFD10BD08B54FF48870ADF85E
:10081000000003208DF8020010208DF803006946C7
:100820000348FFF70AFD10210148FFF791FD08BDBD
:1008300000080140FFF776FEFFF7DCFFFFF7E4FF5B
:10084000FFF7C6FF4FF0E0200069194908404FF05C
:10085000E021086117480068174AB0FBF2F1B1F1D6
:10086000807F00D31DE021F07F40401E4FF0E0224A
:10087000506150170F22002807DA13071D0E0F4B87
:1008800000F00F04241F1D5503E013071C0E0C4B32
:100890001C5400BF00204FF0E0229061072010613F
:1008A00000BF4FF47A70FFF74FFF00BFFEE7000074
:1008B000FDFFFF0F0400002040420F0018ED00E094
:1008C00000E400E0E4080008000000201800000038
:1008D00028010008FC08000818000020600600003D
:1008E000440100080000000000A24A0400000000CB
:0C08F000000000000102030406070809D4
:04000005080000ED02
:00000001FF
