:020000040800F2
:10000000C805002001010008590F00087D0E0008F6
:10001000550F000803050008CD210008000000006E
:10002000000000000000000000000000C1130008F4
:10003000410C00080000000091110008511D00084B
:100040001B0100081B0100081B0100081B01000820
:100050001B0100081B0100081B0100081B01000810
:100060001B0100081B0100081B0100081B01000800
:100070001B0100081B0100081B0100081B010008F0
:100080001B0100081B0100081B0100081B010008E0
:10009000A12100081B0100081B0100081B0100082A
:1000A0001B0100081B0100081B0100081B010008C0
:1000B000B51D00081B0100081B0100081B010008FA
:1000C0001B0100081B0100081B0100081B010008A0
:1000D0001B0100081B010008491F00081B01000844
:1000E0001B0100081B0100084B1F0008DFF80CD0A3
:1000F00000F018F800480047A1260008C8050020B5
:100100000648804706480047FEE7FEE7FEE7FEE7B1
:10011000FEE7FEE7FEE7FEE7FEE7FEE7551D000807
:10012000ED000008064C074D06E0E06840F00103D2
:1001300094E8070098471034AC42F6D3FFF7DAFF93
:10014000182800083828000870B58C1810F8015BD2
:1001500015F0070301D110F8013B2A1106D110F860
:10016000012B03E010F8016B01F8016B5B1EF9D164
:100170002B0705D40023521E0DD401F8013BFAE7EA
:1001800010F8013BCB1A921C03E013F8015B01F855
:10019000015B521EF9D5A142D8D3002070BD0000EA
:1001A00010B54021054800F02CFE0A2002F078F935
:1001B0004021024800F023FE10BD0000000801406D
:1001C0002DE9F04180460C4615461E46069FD32079
:1001D00022490880B8F5006F04D10846008840F431
:1001E00000600880B4F5C06F06D11C48008840F458
:1001F000C0601A49088008E0B4F5806F05D117483F
:10020000008840F4806015490880B5F5807F05D1ED
:100210001248008840F4807010490880202E05D1D3
:100220000E48008840F020000C4908800C2F06D1B1
:100230000A48008840F00C000849088007E0042FB5
:1002400005D10648008840F00400044908800348AE
:10025000008802F061FABDE8F08100000000002093
:100260002DE9F04104460D4624F07F44C4F30B070A
:100270000B482040060B47F40057012D02D146F4ED
:10028000405603E0022D01D146F46056384602F094
:1002900043FA304602F040FA0020BDE8F081000049
:1002A00000F0FF0070B504460D4644F2020084429F
:1002B00002D1154908801AE046F20200844202D1B8
:1002C0001149088013E046F60200844202D10E492B
:1002D00008800CE047F20200844202D10A490880FB
:1002E00005E047F60200844201D107490880C5F3C2
:1002F0000A05054800882843034908800846008805
:1003000002F00AFA002070BD0400002010B5044677
:1003100041F2020006490880C4F30B040846008835
:10032000204308800846008802F0F6F9002010BD3E
:100330000200002070B5044624F07F44C4F30B058E
:1003400007482040060B45F4404546F450462846F1
:1003500002F0E2F9304602F0DFF9002070BD000043
:1003600000F0FF0010B50A2002F09AF8202105489D
:1003700000F047FD0A2002F093F82021014800F028
:100380003EFD10BD0008014021B1826842F001022B
:10039000826003E0826822F00102826070470146B9
:1003A00000208A6802F004020AB1012000E0002067
:1003B00070470146C86C80B27047014600208A68C9
:1003C00002F008020AB1012000E00020704700009E
:1003D00030B502460020002350680F4C20400D79B4
:1003E0000C6844EA05242043506090680B4C204080
:1003F000D1E902542C434D7944EA450420439060EE
:10040000D06A20F470000C7C641EE4B2234340EAFE
:100410000350D06230BD0000FFFEF0FFFDF7F1FF9A
:10042000F0B504460D4600200021092D11DDE068DD
:10043000A5F10A0606EB4607072606FA07F18843E8
:10044000A5F10A0606EB460603FA06F10843E0604A
:100450000CE0206905EB4507072606FA07F18843FB
:1004600005EB450603FA06F108432061072A0FDA77
:10047000606B561E06EB86071F2606FA07F18843B7
:10048000561E06EB860605FA06F10843606322E075
:100490000D2A0FDA206BD61F06EB86071F2606FAF9
:1004A00007F18843D61F06EB860605FA06F10843D6
:1004B000206310E0E06AA2F10D0606EB86071F2616
:1004C00006FA07F18843A2F10D0606EB860605FA47
:1004D00006F10843E062F0BD816841F008018160E7
:1004E000704721B1826842F4A002826003E0826812
:1004F00022F4A00282607047816841F004018160AB
:10050000704700BFFEE70146CAB20B1243EA022061
:100510007047000008B50020009022E1974800884D
:1005200000F00F00964908700846007800287CD13A
:1005300094480068944908800846008800F030001C
:10054000924908809048008800F440508E49088005
:100550008C4909684BF6BF7201EA020080F4005032
:1005600080F0200040F4004141F08001854A116094
:100570008248008800F0100090BB1046006848F6E2
:100580000F7108401146086000F07AFC7D49096847
:100590004BF6BF7201EA02007B49098801F48051E1
:1005A00009B180F480507849098801F4005109B1FB
:1005B00080F400507549098801F0100109B180F0FC
:1005C00010007249098801F0200109B180F0200073
:1005D00081B241F4004141F080016A4A116008BDD6
:1005E000FFE76848006880B20090BDF8000000F4A2
:1005F0000060B0B363480068C0F30E0048F68F7126
:1006000008406049086001F07BF85E4909684BF6D4
:10061000BF7201EA02005C49098801F4805109B106
:1006200080F480505849098800E056E001F40051F8
:1006300009B180F400505549098801F0100109B151
:1006400080F010005149098801F0200109B180F0C3
:10065000200081B241F4004141F08001494A11601B
:10066000BDE7FFE7BDF8000000F40040002878D0A7
:1006700044480068C0F30E0048F68F7108404149B5
:10068000086000F049FD3F4909684BF6BF7201EA76
:1006900002003D49098801F4805109B180F480507D
:1006A0003949098801F4005109B180F400503749F3
:1006B000098801F0100109B180F010003349098860
:1006C00001F0200109B180F0200081B241F4004125
:1006D00041F080012B4A116081E7294800782C49BC
:1006E00001EB8000D0F8000C80B20090BDF8000053
:1006F00000F40040C0B12248007801EB8000D0F83F
:10070000000CC0F30E0048F68F7108401C490978B0
:100710001F4A02EB8101C1F8000C19490978491EF2
:100720001C4A52F821008047BDF8000000F080000C
:10073000B8B113480078164901EB8000D0F8000CDE
:1007400048F60F7108400E490978114A02EB810101
:10075000C1F8000C0A490978491E0F4A52F82100D5
:10076000804708484430006880B20449088000F49B
:10077000004000287FF4D2AE00BF30E734000020F4
:1007800030010020005C00404401002046010020B0
:10079000005000405C000020400000200B4A02EBAB
:1007A0008001D1F8001C01F4804171B102EB80019D
:1007B000D1F8001C48F68F7211404CF280021143B0
:1007C000024B03EB8002C2F8001C7047005000404F
:1007D0000B4A02EB8001D1F8001C01F0400171B11D
:1007E00002EB8001D1F8001C48F68F72114048F2EC
:1007F000C0021143024B03EB8002C2F8001C704799
:1008000000500040084A02EB8001D1F8001C48F675
:100810008F62114048F280021143034B03EB8002C8
:10082000C2F8001C70470000005000402DE9F0475E
:100830002848006800F110052E8826480068077ACD
:10084000D6B9042F18D12448007801280FD10021EF
:100850002248006880B2801C214A42F810103020E3
:100860002049088000BF00201B49087003E00727CB
:1008700010201C49088027E0AC88A64201D804203B
:1008800000E002200746B44200D93446A0B2A9686D
:1008900088478046002000F0C7FA8146A2B2494648
:1008A000404601F095FCA1B2002000F03DFE2888F2
:1008B000001B28806888204468803020094908800F
:1008C00000020949088000BF024909680F72BDE8AB
:1008D000F0870000340100202E010020505C004011
:1008E0000060004046010020440100202DE9F04155
:1008F0002848006800F110042688A068C0B1BEB185
:10090000A588B54200D93546A8B2A16888470746F0
:100910002088401B2080608828446080002000F0F0
:1009200073FA8046AAB24146384600F01DFC00BF6B
:10093000208850B14FF440501749088000210846E4
:1009400000F0F2FD3020154908802088A1888842F7
:1009500004DB03200F490968087218E0208800288A
:1009600004DD05200B490968087210E0208870B981
:10097000062008490968087200210948006880B209
:10098000801C084A42F81010302004490880BDE855
:10099000F0810000340100204401002046010020C5
:1009A000505C0040006000402DE9F84F9B48006813
:1009B00045780027BA46062D1BD198480068007874
:1009C00000F07F00002813D1944909688878012835
:1009D00003D193490968CF690AE0022803D19049FD
:1009E00009680F6A04E0032802D18D4909684F6A3B
:1009F00094E0002D64D189480068408800285FD1C8
:100A000086480068C08802285AD184480068007966
:100A1000002855D181480068007800F07F0028B98F
:100A20007E480068808808B97E4F77E07B48006880
:100A3000007800F07F00012810D1784909684879D2
:100A4000774909688A6900219047002866D1734870
:100A50000068807A002861D0724F5FE06F480068BC
:100A6000007800F07F00022858D16C480068407977
:100A700000F00F0669480068407900F07009674887
:100A80000068407900F0800038B1674901EB8600CA
:100A9000D0F8000C00F0300806E0634901EB860056
:100AA000D0F8000C00F4405860480078B04235D9C6
:100AB000B9F1000F32D1B8F1000F2FD0594F2DE00E
:100AC000082D07D155480068007800F07F0028BB4A
:100AD000574F23E00A2D21D150480068007800F0DC
:100AE0007F0001281AD14D480068807AB0B14B4888
:100AF0000068408890B949480068007970B9474853
:100B00000068C088012809D14449096848794449E6
:100B100009688A690021904700B9464F57B13F489C
:100B20000068A0F812A03D48006887610020B8471F
:100B300000240FE0394A12685078394A1268116966
:100B400088470446032C05D10920344909680872F6
:100B5000BDE8F88F31480068008A4FF6FF7188427F
:100B600004D109202D4909680872F1E7022C03D04D
:100B70002A480068008A20B90820284909680872B4
:100B8000E6E726480068007800F08000E0B32348DC
:100B90000068C088009021480068008A0099884257
:100BA00004D91E4900980968088223E01B480068A0
:100BB000008A1A490968C98888421BDA1748006800
:100BC000008A1749096891F82C10884203DA00203E
:100BD000194908700EE011480068008A1049096838
:100BE00091F82C1090FBF1F201FB120010B90120DA
:100BF000114908700A48006890F82C1007480068EE
:100C00008182FFF713FE07E0FFE70320034909682D
:100C1000087200030949088000BF99E734010020E9
:100C200038010020A1190008005000408400002075
:100C300025190008751900082E0100204401002024
:100C40007047704770470000014908607047000016
:100C500014040140002123498279002A3AD00A462F
:100C6000126803689A430B461A600A1D12680368EB
:100C70009A430B1D1A60027911440A6803681A43EB
:100C80000A60184A0832126803689A43154B083301
:100C90001A601A1D126803689A43124B0C331A60CB
:100CA0004279102A0ED11A1F126803681A430D4B9D
:100CB00008331A601A1D126803681A43094B0C3373
:100CC0001A600DE00749427911440A6803681A4323
:100CD0000A6005E0027911440A6803689A430A60D1
:100CE00070470000000401402DE9F0410246002554
:100CF0000026002000230024002791F803C00CF0F8
:100D00000F0591F803C00CF0100CBCF1000F03D0DC
:100D100091F802C04CEA050591F800C0BCF1000F43
:100D200031D0146800202BE04FF0010C0CFA00F3D6
:100D3000B1F800C00CEA03069E4220D183004FF0B8
:100D40000F0C0CFA03F7BC4305FA03FC4CEA04044D
:100D500091F803C0BCF1280F06D14FF0010C0CFA3A
:100D600000FCC2F814C00AE091F803C0BCF1480FBF
:100D700005D14FF0010C0CFA00FCC2F810C0401C69
:100D80000828D1D31460B1F800C0BCF1FF0F34DDE6
:100D9000546800202EE000F1080C4FF0010808FA1A
:100DA0000CF3B1F800C00CEA03069E4221D1830087
:100DB0004FF00F0C0CFA03F7BC4305FA03FC4CEAA6
:100DC000040491F803C0BCF1280F05D100F1080C10
:100DD00008FA0CF8C2F8148091F803C0BCF1480F6F
:100DE00007D100F1080C4FF0010808FA0CF8C2F81E
:100DF0001080401C0828CED35460BDE8F0814161CA
:100E0000704701617047000001460548006880B2E4
:100E100000EBC100001D034A32F8100080B2704799
:100E2000505C00400060004001460548006880B208
:100E300000EBC100034A32F8100080B27047000096
:100E4000505C00400060004070B50A480468001D16
:100E50000568001D0668344454B10822064920463E
:100E600000F046F8042204491031284600F040F80A
:100E700070BD0000E8F7FF1F1B00002000BFFEE769
:100E800010B518480068047A022C01D0042C05D152
:100E9000FFF7CCFC13480068047A1CE0062C19D13B
:100EA00010480068407805280ED10E480068007888
:100EB00000F07F0040B90B490968C87800F08AFA51
:100EC00009490968086A80470849096888688047AD
:100ED000082400E00824034909680C7200F05AF95C
:100EE00010BD000034010020400100203801002026
:100EF00030B50B46002100BF16E00A24B4EB107F8A
:100F000005D9302404EB107403F8114005E04124A6
:100F100004EB10740A3C03F81140000100254C005A
:100F2000641C1D554C1CE1B29142E6DB30BD000053
:100F300010B5064CA07A18B105200549086002E0FA
:100F400001200349086000F005FF10BDA801002042
:100F50000C01002000BFFEE77047704770B500210C
:100F600000230F22C47804B3154C246804F4E06411
:100F7000C4F5E064210AC1F10403CA40447804FACC
:100F800003F184781440214309010E4C0678A155E1
:100F9000047804F01F050124AC4005786D11AD0004
:100FA00005F1E025C5F8004109E0047804F01F05CB
:100FB0000124AC40044D0678761145F8264070BDFA
:100FC0000CED00E000E400E080E100E002490143B4
:100FD000024A1160704700000000FA050CED00E0C5
:100FE00070B5022647480068447846480068007893
:100FF00000F07F00002844D1092C03D100F050FDFF
:1010000006465FE0052C14D13E480068C0787F2872
:101010000BDC3C480068807838B93A480068808822
:1010200018B938480068807A08B1082565E00026BC
:1010300048E0032C0ED133480068C078012807D15E
:1010400030480068808818B900F04EFD064639E047
:10105000022637E0012C35D12A480068C0780128E3
:101060000DD128480068808848B926480068407A31
:1010700000F0200018B100F09FFB064622E0022697
:1010800020E020480068007800F07F00012805D1AA
:101090000B2C17D100F0A4FD064613E01948006898
:1010A000007800F07F0002280BD1012C03D100F062
:1010B00083FB064606E0032C04D100F029FD06461A
:1010C00000E002264EB1E0B20F4A1268516988472B
:1010D0000646032E01D109250FE00EB108250CE0CC
:1010E000062500210948006880B2801C084A42F8A1
:1010F000101030200749088000BF024909680D72AE
:1011000070BD00003401002038010020505C004018
:10111000006000404601002010B511480068047AC4
:10112000022C01D0042C01D1082412E0032C01D0A0
:10113000052C05D1FFF7DAFB09480068047A08E0BE
:10114000072C05D107490968C8688047082400E0D2
:101150000824034909680C7200F01CF810BD000057
:101160003401002038010020F0B5561C7510074EE0
:1011700006EB41042B4605E034F8047B20F8017BA4
:10118000401C5B1E002BF7D1F0BD0000006000404A
:101190007047000010B50D4890F82C10002000F0AA
:1011A00053F90B480068007A082805D14002094924
:1011B000088010200849088005480068007A09283E
:1011C00001D1012010BD0020FCE7000088000020B4
:1011D00034010020440100204601002001210B4879
:1011E000016000200A4A108010460088074A1060FB
:1011F0000020121D10604FF4E050054A1080104688
:101200000088024A1060002070470000405C0040E7
:101210003E01002029B1064AD2690243044BDA613B
:1012200004E0034AD2698243014BDA61704700004F
:101230000010024029B1064A92690243044B9A61A8
:1012400004E0034A92698243014B9A6170470000AF
:10125000001002400149086070470000D800424277
:1012600070B50546072D01D02E4805702D48007831
:1012700008284ED2DFE800F004111A202B384E4F18
:101280002948006828B900F053F80620254908705D
:1012900002E005202349087041E000F049F80420ED
:1012A0002049087001202049086038E002201D49CB
:1012B00048700320087032E01A484078401E1949EF
:1012C00048700846407808B90420087027E017489D
:1012D000006884B244F010041448046005201149E9
:1012E00008700A2048701AE00E484078401E0D49E8
:1012F00048700846407858B90C48006884B224F019
:1013000010040A480460062008700020064908609E
:1013100005E000BF00BF06200249087000BF00BF03
:1013200070BD00001101002014010020405C00404D
:1013300010B50748006884B224F00404044804602F
:10134000FFF7F6FD4FF43F400149086010BD000073
:10135000405C0040704721B1028842F040020280A8
:1013600004E002884FF6BF731A40028070470246BD
:10137000002013890B400BB1012000E000207047D2
:101380008181704710B50022028802F441520B8817
:101390004C8823438C882343CC8823430C892343E4
:1013A0004C8923438C892343CC8923431A430280ED
:1013B000838B4FF2FF74234083830B8A038210BD1B
:1013C000704700004FF6F8710140014A1160704704
:1013D000505C004030B501460F4B1A78002014E0F5
:1013E00003060E4C04EB9353D3F8003C48F68F747D
:1013F000234048F280042343C4B223430406074D2C
:1014000005EB9454C4F8003C401C9042E8D341F0F2
:101410008003034C236030BD840000200050004056
:101420004C5C004010B54A105300054A126892B255
:1014300002EBC002121D034C44F8123010BD000034
:10144000505C00400060004010B502460F48006844
:1014500080B200EBC200801D0D4C04EB40033E291E
:101460000BDD481101F01F040CB9441EA0B24FF46B
:10147000004444EA80241C6007E0481001F00104A5
:101480000CB1441CA0B284021C6010BD505C004032
:101490000060004030B50E4C04EB8003D3F8003CF4
:1014A0004BF68F7403EA040201F480530BB182F40B
:1014B000805201F400530BB182F4005242F4004315
:1014C00043F08003024D05EB8004C4F8003C30BDBE
:1014D0000050004010B50B4B03EB8002D2F8002CFB
:1014E0004BF68F7302EA030181F4805181F40051BD
:1014F00041F4004242F08002024C04EB8003C3F846
:10150000002C10BD0050004010B54A105200044B92
:101510001B689BB203EBC003024C44F8132010BDC0
:10152000505C004000600040044A126892B202EB36
:10153000C002921C024B43F812107047505C0040EE
:101540000060004030B50E4C04EB8003D3F8003C43
:1015500048F6BF7403EA040201F010030BB182F0F5
:10156000100201F020030BB182F0200242F400438C
:1015700043F08003024D05EB8004C4F8003C30BD0D
:101580000050004010B50B4B03EB8002D2F8002C4A
:1015900048F6BF7302EA030181F0100181F02001D7
:1015A00041F4004242F08002024C04EB8003C3F895
:1015B000002C10BD0050004010B5074B03EB80021B
:1015C000D2F8002C48F68F131A400A43024C04EB61
:1015D0008003C3F8002C10BD0050004010B500F08F
:1015E00001F810BD0CB50020019000903348006850
:1015F00040F480303149086000BF3048006800F492
:10160000003000900198401C0190009818B9019892
:10161000B0F5A06FF1D12948006800F4003010B196
:101620000120009001E0002000900098012843D1A3
:101630002348006840F0100021490860084600680F
:1016400020F0030008600846006840F002000860CF
:101650001A4840681949486008464068486008468A
:10166000406840F4806048600846406820F47C1080
:1016700048600846406840F4E81048600846006842
:1016800040F08070086000BF0C48006800F00070F7
:101690000028F9D00948406820F003000749486055
:1016A0000846406840F00200486000BF03484068B8
:1016B00000F00C000828F9D10CBD00000010024019
:1016C0000020024010B54FF48020FFF7BDFA4FF420
:1016D000802005490860082048710120887108466B
:1016E000FFF7B8FA10BD00001000002010B5002070
:1016F000FFF7B0FD0121C805FFF78CFD10BD00000C
:1017000038B501242948006880B2001D284931F805
:10171000100080B201EB4000009026480068007A7B
:10172000092832D00098007822490968087000988A
:10173000401C0090009800781E4909684870009885
:10174000401C0090009800EB44000090009931F894
:10175000020B0091FEF7D7FE1649096848800098F1
:1017600000EB44000090009931F8020B0091FEF765
:10177000CAFE104909688880009800EB4400009078
:10178000009800880B490968C88001200949096848
:10179000087208480068C08810B9FFF721FC01E012
:1017A000FFF702F9FFF7F6FC38BD0000505C00407F
:1017B00000600040340100202DE9F04754480068E3
:1017C000007800F07F08B8F1000F0AD15048006897
:1017D000407A00F0DF004E49096848720020BDE8F9
:1017E000F087B8F1020F7CD149480068408818B9E9
:1017F00047480068007908B10220F0E7DFF814914B
:1018000043480068477927F080052C464048006827
:10181000407900F0800038B13F4901EB8400D0F8F6
:10182000000C00F0300606E03B4901EB8400D0F8E4
:10183000000C00F4405699F80000A84204D91EB1EB
:1018400033480068807A08B90220C8E707F08000B2
:1018500080B1314901EB8400D0F8000C00F0300079
:1018600010284BD1E0B2FEF7B3FFE0B23021FFF712
:1018700069FE43E0284901EB8400D0F8000C00F435
:101880004050B0F5805F39D1E4B9244A92F82C1069
:10189000E0B2FFF7D9FD204A02EB8401D1F8001C29
:1018A0004BF68F7201EA020080F4805080F4005001
:1018B00040F4004141F08001174B03EB8402C2F871
:1018C000001C1BE0E0B2FEF769FF134A02EB840143
:1018D000D1F8001C4BF68F7201EA020080F48050B0
:1018E00000E011E080F4005040F4004141F080013C
:1018F000094B03EB8402C2F8001C00BF08490968C9
:101900004869804700206AE700BF022067E70000BF
:101910003401002084000020005000408800002096
:101920004001002010B504462CB901200649096881
:101930000882002010BD05490968086880470248F0
:1019400000680A30F6E70000340100204001002062
:1019500010B5024606480068438A32B98888C01A22
:10196000034C24682082002010BD08681844FBE75F
:101970003401002010B504462CB90120064909683D
:101980000882002010BD0549096888688047024820
:1019900000680C30F6E70000340100204001002010
:1019A00010B504462CB90220394909680882002084
:1019B00010BD00203749088035480068007800F0E5
:1019C0007F0018BB32490968487A00F0200131B124
:1019D0003049097841F002012E4A117005E02D4985
:1019E000097801F0FD012B4A117000F0400131B17E
:1019F0002849097841F00101264A117005E025497E
:101A0000097801F0FE01234A11703AE0204800688D
:101A1000007800F07F00012801D11E48C8E71C486B
:101A20000068007800F07F00022828D1184A126868
:101A3000517901F00F0001F080027AB1164B03EBEF
:101A40008002D2F8002C02F03002102A16D1114A7E
:101A5000127842F001020F4B1A700FE00E4B03EBAD
:101A60008002D2F8002C02F44052B2F5805F05D11A
:101A7000084A127842F00102064B1A7001E0002079
:101A800096E70649096808698047024890E7000020
:101A9000340100202C0100200050004040010020B3
:101AA00010B50E480068C0780D494978884213DCAB
:101AB0000A480068807878B908480068808858B972
:101AC00006480068C07805490968887205490968B0
:101AD00048688047002010BD0220FCE73401002048
:101AE000840000204001002010B507480068407ABB
:101AF00040F0200004490968487204490968C8692F
:101B00008047002010BD000034010020400100206B
:101B10002DE9F0412E480068467926F080073C46C2
:101B20002B480068407900F0800038B1294901EB6A
:101B30008400D0F8000C00F0300506E0254901EBE8
:101B40008400D0F8000C00F4405523480078A042EF
:101B500008D91F480068408820B91DB11C4800689A
:101B6000807A10B90220BDE8F08106F08000A0B1B3
:101B7000184A02EB8401D1F8001C48F6BF7201EA52
:101B8000020080F0100040F4004141F08001114B50
:101B900003EB8402C2F8001C14E00E4A02EB84013D
:101BA000D1F8001C4BF68F7201EA020080F48050DD
:101BB00040F4004141F08001064B03EB8402C2F87F
:101BC000001C00BF05490968886980470020CAE7F2
:101BD000340100200050004084000020400100201B
:101BE00010B5174B1B68D978154B1B685879154BE6
:101BF0001B689A699047044611480068807AE8B1EA
:101C00003CB90F480068007918B90D480068807821
:101C100008B1022010BD8CB90B490968C86880471B
:101C200007480068407906490968C8720448006896
:101C3000C0780349096808730020EBE70220E9E750
:101C400034010020380100204001002038B5002177
:101C5000002200230093394B1B6898B200BF09E0B3
:101C6000374C04EB8103D3F8003C9BB2354C44F86D
:101C70002130491C0829F3D340F480602F4B1860B1
:101C800040F00100186020F00100186000BF2B4BED
:101C90001B1D1B6803F48063002BF8D04FF6FF3345
:101CA000264C241D2360002109E0264B53F82130E7
:101CB0009BB2234D05EB8104C4F8003C491C082964
:101CC000F3D340F008001D4B18601B6898B240F039
:101CD00004001A4B18601C4B1B6800931A4B1A68BF
:101CE00022F0030242F001021A60184B1B6843F015
:101CF0000403164C2360114B1B1D1B6803F4805317
:101D000033B930BF23461B6823F00403236014E07B
:101D10004EF6FF73094C241D2360231F1B6898B2E5
:101D200020F00800231F1860074C009B2360074B1E
:101D30001B6823F00403054C236038BD405C004061
:101D400000500040880100200070004010ED00E0CD
:101D50007047000010B51348006840F001001149B9
:101D6000086008464068104908400E494860084627
:101D700000680E4908400B4908600846006820F4D6
:101D8000802008600846406820F4FE0048604FF458
:101D90001F008860FFF722FC4FF0006004490860D4
:101DA00010BD0000001002400000FFF8FFFFF6FE2B
:101DB00008ED00E010B50121880700F060F8012867
:101DC00045D12348FEF7F5FA2249088022480078D9
:101DD000102829DA08460088C0F3032041301E4944
:101DE0000978002202EB81011C4A505419480088EE
:101DF000C0F30310413018490978012202EB810138
:101E0000164A50541348008800F00F004130124920
:101E10000978022202EB8101104A50540E480078E2
:101E2000401C0D4908700EE04022C0210B4800F014
:101E3000CFF940210120FFF777FB0120FFF7A2FB3C
:101E40000020054908700121880700F009F810BD3D
:101E50000024014008000020060000204801002066
:101E6000CA430282704721B1028842F00102028017
:101E700004E002884FF6FE731A4002807047024663
:101E80000020138A0B400BB1012000E000207047B6
:101E90001AB183890B43838102E083898B43838159
:101EA00070470000002202881D4B98420ED01D4B47
:101EB00098420BD0B0F1804F08D01B4B984205D010
:101EC0001A4B984202D01A4B984204D14FF68F73A6
:101ED0001A404B881A43174B984207D0164B98422A
:101EE00004D04FF6FF431A40CB881A4302808B88F8
:101EF00083850B8803850A4B98420BD0094B984287
:101F000008D00E4B984205D00D4B984202D00D4B95
:101F1000984201D10B7A0386012383827047000027
:101F2000002C014000340140000400400008004043
:101F3000000C004000100040001400400040014030
:101F40000044014000480140704710B54FF4802024
:101F5000FEF77AFE10BD000010B508480849086079
:101F600002200968087207480749086007480849BD
:101F70000860054909680868804710BDA80100206D
:101F8000340100208800002038010020B800002023
:101F90004001002008B54FF4A060FFF717F81420A7
:101FA0008DF8000002208DF8010000208DF802005D
:101FB00001208DF803006846FEF7D0FF2A208DF837
:101FC000000000208DF801006846FEF7C7FF08BD3D
:101FD00010B588B00024694800686949088008463F
:101FE000008800F4007067490988084050B14FF636
:101FF000FF506249086064480078401C62490870DC
:10200000FFF7A8F95E48008800F400405D490988A0
:10201000084008B1FEF77EFA5948008800F4806055
:1020200058490988084030B14FF6FF3053490860DD
:102030005649486880475248008800F4005051498A
:102040000988084018B14DF6FF704C4908604C48AB
:10205000008800F480504B490988084030B14EF6A2
:10206000FF70464908600020FFF7FAF844480088EE
:1020700000F4006043490988084060B14448007892
:1020800010B1FFF7E3FD02E00220FFF7E9F84FF29D
:10209000FF703A4908603A48008800F48070394976
:1020A00009880840002866D04FF6FF603349086071
:1020B000081D006800F40040002856D0354800682C
:1020C000401C3449086008460068032850D92B4852
:1020D000001F006800F00800002849D12748001FB1
:1020E000006880B22C490860002408E02B4901EB0D
:1020F0008400D0F8000C80B24DF82400641C082C39
:10210000F4D32548006840F00100234908600846E0
:10211000006880B21949091F08601F48006820F054
:1021200001001D4908600846006880B21349091F74
:10213000086000BF1148006800F480600028F9D0F2
:102140004FF6FF300D490860002408E05DF82400D8
:1021500080B2124A02EB8401C1F8000C641C082C06
:10216000F4D300200B49086002E000200949086010
:102170000720FFF775F808B010BD0000445C004070
:10218000340000203E01002036000020880000209E
:1021900010010020380000203C00002000500040CA
:1021A00010B5FFF715FF10BD0020064908604FF479
:1021B0003F4005490880084600880249091F086019
:1021C00000207047445C00403E01002000BFFEE755
:1021D000F0B5144604F1010C4FEA6C07DFF824C097
:1021E0000CEB41033D460AE00678401C90F800C025
:1021F00046EA0C2223F8022B9B1C401C6D1E002D6E
:10220000F2D1F0BD0060004070B504460025212CDD
:1022100008D112480068007800F07F0021280ED114
:102220000F4D0CE0202C0AD10C480068007800F01B
:102230007F00212800D10B4D20200B4908700DB9DB
:10224000022070BD054800688561002103480068D0
:1022500041820020A8470020F3E70000340100205D
:1022600095220008252400087800002010B50446B7
:1022700002492046FFF76CFB10BD0000E40000207F
:1022800010B5044602492046FFF762FB10BD00006E
:10229000DC000020014629B90820034A1268108298
:1022A000002070470148FCE7340100207C0000203A
:1022B00070B5054606480068C478042C01DD00208E
:1022C00070BD044800EBC4012846FFF741FBF7E767
:1022D00034010020EC0000200246002901DD02202C
:1022E0007047012A01DD0220FAE70020F8E700002C
:1022F000014608480068007800F07F00212807D1D7
:10230000022901D100207047222901D10020FAE7DB
:102310000220F8E73401002010B500203449096894
:1023200088723448C07932490968487200203049BF
:102330000968C872FFF746F84FF400710020FFF7F4
:102340003BF910210020FFF7FDF840210020FFF7A6
:1023500069F880210020FFF7D7F80020FEF752FA35
:10236000254890F82C100020FFF76EF80020FFF7AA
:10237000B1F800210120FFF71FF9C0210120FFF76C
:10238000C3F820210120FFF7DDF800210120FFF72D
:1023900081F84FF4C0610220FFF70EF94FF480710D
:1023A0000220FFF7B1F800210220FFF773F8202187
:1023B0000220FFF7C7F800210320FFF7FDF84FF4D4
:1023C00088710320FFF72EF880210320FFF73CF8E7
:1023D0004FF440510320FFF75DF800210320FFF781
:1023E000B1F80020FEF7F6FF01200449086010BD97
:1023F0003401002072270008880000200C01002012
:102400000348817A11B10521024A1160704700002A
:10241000A80100200C010020042001490860704739
:102420000C010020014629B90820034A12681082D5
:10243000002070470148FCE7340100207C000020A8
:1024400003480078202802D1002001490870704715
:10245000780000207047000010B5FEF7F5FC002062
:10246000054909688872FEF7B9FEFFF79DFE002056
:102470000249086010BD0000340100200C0100205A
:1024800002E008C8121F08C1002AFAD1704770473D
:10249000002001E001C1121F002AFBD1704700009B
:1024A000064A126841F28833B2FBF3F2504300212E
:1024B00000E0491C8142FCD3704700001801002055
:1024C00008B57020ADF8000010208DF8030003203F
:1024D0008DF8020069460E48FEF706FC4FF4805066
:1024E000ADF8000069460B48FEF7FEFB4FF4805143
:1024F0000848FEF786FC20210548FEF780FC1021E5
:102500000348FEF77CFC40210148FEF778FC08BD3B
:1025100000080140000C014010B586B00120ADF864
:10252000000000208DF8030069462048FEF7DCFB20
:102530000020019001208DF8090000208DF808008E
:102540004FF4602003900020049001208DF81400C7
:1025500001A91748FDF73CFF00230122114614484A
:10256000FDF75EFF01211248FDF70EFF1048FDF751
:10257000B3FF00BF0E48FDF720FF0128FAD00C483A
:10258000FDF7BAFF00BF0A48FDF709FF0128FAD09E
:1025900001210748FDF7A5FF002403E07E2005493F
:1025A0000855641C402CF9DB06B010BD0008014042
:1025B000002401404801002008B51C208DF80000CF
:1025C00001208DF8030002208DF801008DF8020033
:1025D0006846FEF7C3FC08BD10B5012144F20100B6
:1025E000FEF718FE012140F20D20FEF723FE10BD7C
:1025F00000B587B018208DF81B0003208DF81A0055
:102600004FF42040ADF8180006A91448FEF76CFB03
:102610004FF44040ADF804004FF40060ADF80800FE
:102620000220ADF80A000020ADF80C004FF4007055
:10263000ADF80E002020ADF810000020ADF812001B
:102640004FF48270ADF8060001A90548FEF79AFE26
:1026500001210348FEF77FFE07B000BD000C0140DA
:10266000003800400EB54820ADF800000020ADF85D
:1026700002000420ADF804000020ADF806008DF83B
:10268000080069464FF08040FFF70CFC012211461C
:102690009007FFF7FDFB01218807FFF7E4FB0EBD64
:1026A00008B5FFF799FFFFF7A3FFFFF709FF0C201D
:1026B00000231A46C10100904FF40060FDF780FD31
:1026C00040F24F10FDF736FE012141F2F060FDF7B8
:1026D000C7FDC820FDF71AFE40F2726146F60200FF
:1026E000FDF7E0FDFDF73EFEFEF7ECFFFEF7FEFF17
:1026F000FFF750FCFFF730FCFFF70EFFFFF7B2FFCC
:10270000FFF75AFF06E00520FFF7CAFEFDF748FD78
:10271000FDF728FEF7E7000010B504464FF480519E
:102720000D48FEF76CFB21460C48FEF729FE00BF62
:1027300002210A48FEF71BFE0028F9D000BF8021C5
:102740000648FEF714FE0128F9D04FF480510248E4
:10275000FEF757FB10BD0000000C014000380040A0
:102760001201000202000040FF0450570001010264
:10277000030109024300020100C032090400000104
:1027800002020100052400100105240100010424B7
:1027900002020524060001070582034000FF090428
:1027A0000100020A0000000705030280000007057F
:1027B0008102800000040309042A034600550052E8
:1027C000004B004100590049004C004D0041005AA7
:1027D0000078005400450052004D0049004E004171
:1027E000004C0032034600550052004B0041005996
:1027F0000049004C004D0041005A0078005400454B
:102800000052004D0049004E0041004C0000000005
:102810000000000000000000382800080000002030
:102820004801000048010008C028000848010020B5
:1028300080040000902400080119141A034612595C
:102840001278124D021C5813430C0C1C085B0F0429
:102850000A1145245133C2011208230402135924DA
:10286000140819231B0841081A55041309221B08D0
:10287000F1041AD9041A81041A6D041AB104413200
:102880004029441A01280916741A191C13602733A9
:1028900008121A720832431AB50832041AB90832FB
:1028A0002A1AE3083232221973201A2992512BA2D4
:1028B0004A2B491400081C020304060708090000FB
:04000005080000ED02
:00000001FF
