:020000040800F2
:10000000780600208901000891010008930100088A
:100010009501000897010008990100080000000000
:100020000000000000000000000000009B0100082C
:100030009D010008000000009F010008A1010008C8
:10004000A3010008A3010008A3010008A301000800
:10005000A3010008A3010008A3010008A3010008F0
:10006000A3010008A3010008A3010008A3010008E0
:10007000A3010008A3010008A3010008A3010008D0
:10008000A3010008A3010008A3010008A3010008C0
:10009000A3010008A3010008A3010008A3010008B0
:1000A000A3010008A3010008A3010008A3010008A0
:1000B000A3010008A3010008A3010008A301000890
:1000C000A3010008A3010008A3010008A301000880
:1000D000ED040008A3010008A3010008A301000823
:1000E000A3010008A3010008A301000800F002F822
:1000F00000F03AF80AA090E8000C82448344AAF188
:100100000107DA4501D100F02FF8AFF2090EBAE885
:100110000F0013F0010F18BFFB1A43F0010318473B
:10012000D0080000F0080000103A24BF78C878C159
:10013000FAD8520724BF30C830C144BF04680C60ED
:10014000704700000023002400250026103A28BF35
:1001500078C1FBD8520728BF30C148BF0B60704739
:100160001FB51FBD10B510BD00F031F81146FFF7E7
:10017000F7FF00F0A1FB00F04FF803B4FFF7F2FF28
:1001800003BC00F053F800000948804709480047C5
:10019000FEE7FEE7FEE7FEE7FEE7FEE7FEE7FEE737
:1001A000FEE7FEE704480549054A064B7047000094
:1001B00005070008ED000008780000207806002000
:1001C000780200207802002070477047704775461B
:1001D00000F028F8AE4605006946534620F00700B7
:1001E000854618B020B5FFF7DDFFBDE820404FF091
:1001F00000064FF000074FF000084FF0000B21F011
:100200000701AC46ACE8C009ACE8C009ACE8C009DD
:10021000ACE8C0098D4670470446AFF30080204625
:10022000FFF7ABFF00487047180000200149182075
:10023000ABBEFEE72600020070472DE9F041024602
:1002400000250026002000230024002791F803C089
:100250000CF00F0591F803C00CF0100CBCF1000F6E
:1002600003D091F802C04CEA050591F800C0BCF13A
:10027000000F31D0146800202BE04FF0010C0CFA75
:1002800000F3B1F800C00CEA03069E4220D18300BF
:100290004FF00F0C0CFA03F7BC4305FA03FC4CEAD1
:1002A000040491F803C0BCF1280F06D14FF0010CF3
:1002B0000CFA00FCC2F814C00AE091F803C0BCF1CB
:1002C000480F05D14FF0010C0CFA00FCC2F810C029
:1002D000401C0828D1D31460B1F800C0BCF1FF0F56
:1002E00034DD546800202EE000F1080C4FF00108C6
:1002F00008FA0CF3B1F800C00CEA03069E4221D1C3
:1003000083004FF00F0C0CFA03F7BC4305FA03FC13
:100310004CEA040491F803C0BCF1280F05D100F1A8
:10032000080C08FA0CF8C2F8148091F803C0BCF16C
:10033000480F07D100F1080C4FF0010808FA0CF83B
:10034000C2F81080401C0828CED35460BDE8F0816C
:100350000161704770B5002100230F22C47804B3F7
:10036000154C246804F4E064C4F5E064210AC1F18A
:100370000403CA40447804FA03F18478144021430A
:1003800009010E4C0678A155047804F01F050124DC
:10039000AC4005786D11AD0005F1E025C5F80041D0
:1003A00009E0047804F01F050124AC40044D0678F0
:1003B000761145F8264070BD0CED00E000E400E049
:1003C00080E100E002490143024A116070470000E9
:1003D0000000FA050CED00E029B1064AD26902439B
:1003E000044BDA6104E0034AD2698243014BDA61CB
:1003F000704700000010024029B1064A926902438A
:10040000044B9A6104E0034A92698243014B9A616A
:10041000704700000010024030B500210022002487
:1004200000232D4D6D6805F00C0121B1042905D084
:10043000082923D105E0294D056022E0274D0560FC
:100440001FE0254D6D6805F47012234D6D6805F4AD
:100450008034022505EB92421CB9214D55430560BD
:100460000BE01D4D6D6805F400351DB11C4D554365
:10047000056002E0194D5543056002E0174D056027
:1004800000BF00BF144D6D6805F0F0010909154D5E
:100490006B5C0568DD4045600F4D6D6805F4E061FB
:1004A000090A104D6B5C4568DD4085600A4D6D683A
:1004B00005F46051C90A0B4D6B5C4568DD40C560B1
:1004C000054D6D6805F44041890B074D6B5CC568AF
:1004D000B5FBF3F5056130BD0010024000127A0053
:1004E00000093D0000000020100000201FB5002082
:1004F00002900390062001900020009016E0012158
:100500001B4800F04DF800BF0121194800F04BF8DE
:100510000028F9D0164800F05FF802A99DF80020E5
:1005200088549DF80000401CC0B200909DF8000067
:100530009DF804108842E2DB02A90E4800F022F97F
:100540000DA10C4800F01EF90D48007838B14FF4A9
:1005500000700C49086000200949087006E04FF05F
:100560000070084908600120054908701FBD00009F
:10057000003800400038014067656C646900000085
:1005800014000020100C014021B1028842F040020A
:10059000028004E002884FF6BF731A400280704761
:1005A000CA43028170470246002013890B400BB1F9
:1005B000012000E00020704730B5002400230C111A
:1005C0000125A540ABB21AB185881D43858002E0A4
:1005D00085889D43858030BD01468889704710B568
:1005E0000022028802F441520B884C8823438C88F5
:1005F0002343CC8823430C8923434C8923438C8990
:100600002343CC8923431A430280838B4FF2FF7428
:10061000234083830B8A038210BD10B500F002F8DB
:1006200010BD00000CB50020019000903348006818
:1006300040F480303149086000BF3048006800F461
:10064000003000900198401C0190009818B9019862
:10065000B0F5A06FF1D12948006800F4003010B166
:100660000120009001E0002000900098012843D173
:100670002348006840F010002149086008460068DF
:1006800020F0030008600846006840F0020008609F
:100690001A4840681949486008464068486008465A
:1006A000406840F4806048600846406820F47C1050
:1006B00048600846406840F4E81048600846006812
:1006C00040F08070086000BF0C48006800F00070C7
:1006D0000028F9D00948406820F003000749486025
:1006E0000846406840F00200486000BF0348406888
:1006F00000F00C000828F9D10CBD000000100240E9
:100700000020024010B51348006840F00100114974
:10071000086008464068104908400E49486008468D
:1007200000680E4908400B4908600846006820F43C
:10073000802008600846406820F4FE0048604FF4BE
:100740001F008860FFF769FF4FF0006004490860F0
:1007500010BD0000001002400000FFF8FFFFF6FE91
:1007600008ED00E070B504460D4600BF802120462C
:1007700000F024F80028F9D02946204600F098F827
:1007800070BD000070B505460C4604E014F8011B6E
:100790000348FFF7E7FF20780028F7D170BD00007D
:1007A0000038014021B1828942F40052828104E084
:1007B00082894DF6FF731A408281704702460020FD
:1007C000B1F5007F00D100BF13880B400BB10120B1
:1007D00000E00020704700002DE9F04786B0054694
:1007E0000E460024A24600BFA1460027B08900B1F2
:1007F00000BF2F462C8A4CF6FF700440F08804435B
:100800002C82AC894EF6F3100440B088318908433D
:10081000718908430443AC81AC8A4FF6FF40044021
:10082000B0890443AC8201A8FFF7F6FD1F48874258
:1008300002D1DDF810A001E0DDF80CA0A88900F4D9
:10084000004040B10AEBCA0000EB0A1031684900D1
:10085000B0FBF1F807E00AEBCA0000EB0A103168C0
:100860008900B0FBF1F86420B8FBF0F00401200926
:10087000642101FB1089A88900F4004040B13220B6
:1008800000EBC900B0FBF1F000F00700044308E002
:10089000322000EB09106421B0FBF1F000F00F00F2
:1008A00004432C8106B0BDE8F08700000038014009
:1008B000C1F30802828070478EB047A103C9CDE919
:1008C000010101218803FFF787FD012144F20D009A
:1008D000FFF792FD04208DF8370002208DF83600D6
:1008E0004FF42040ADF834000DA93D48FFF7A5FCBA
:1008F0004FF48060ADF820000020ADF82400ADF882
:100900002600ADF82800ADF82A00ADF82E0007202B
:10091000ADF830000020ADF8220008A93148FFF7FB
:100920005EFE01212F48FFF72FFE012260212D4896
:10093000FFF742FE10208DF8370003208DF83600B7
:100940004FF40070ADF834000DA92548FFF775FC91
:100950004FF400712248FFF7FBFC18208DF8370098
:1009600003208DF836004FF40070ADF834000DA967
:100970001D48FFF762FC4FF4165004900020ADF8BC
:100980001C000820ADF81A000020ADF81800ADF8E2
:100990001600ADF8140004A91448FFF71DFF01214B
:1009A0001248FFF7FFFE4FF4A060FFF70BFD242075
:1009B0008DF80C0000208DF80D008DF80E00012040
:1009C0008DF80F0003A8FFF7C5FC01A90748FFF742
:1009D000D9FE00BFFEE7000048617A69720000009E
:1009E000000C014000380040000801400038014080
:1009F000100A00080000002018000000280100086C
:100A0000280A0008180000206006000044010008C1
:100A100000000000010203040102030406070809A4
:080A20000204060800000000BA
:04000005080000ED02
:00000001FF
