:020000040800F2
:10000000680600208901000891010008930100089A
:100010009501000897010008990100080000000000
:100020000000000000000000000000009B0100082C
:100030009D010008000000009F01000875030008F2
:10004000A3010008A3010008A3010008A301000800
:10005000A3010008A3010008A3010008A3010008F0
:10006000A3010008A3010008A3010008A3010008E0
:10007000A3010008A3010008A3010008A3010008D0
:10008000A3010008A3010008A3010008A3010008C0
:10009000A3010008A3010008A3010008A3010008B0
:1000A000A3010008A3010008A3010008A3010008A0
:1000B000A3010008A3010008A3010008A301000890
:1000C000A3010008A3010008A3010008A301000880
:1000D000A3010008A3010008A3010008A301000870
:1000E000A3010008A3010008A301000800F002F822
:1000F00000F03AF80AA090E8000C82448344AAF188
:100100000107DA4501D100F02FF8AFF2090EBAE885
:100110000F0013F0010F18BFFB1A43F0010318473B
:100120000804000028040000103A24BF78C878C1F1
:10013000FAD8520724BF30C830C144BF04680C60ED
:10014000704700000023002400250026103A28BF35
:1001500078C1FBD8520728BF30C148BF0B60704739
:100160001FB51FBD10B510BD00F031F81146FFF7E7
:10017000F7FF00F087F900F04FF803B4FFF7F2FF44
:1001800003BC00F053F800000948804709480047C5
:10019000FEE7FEE7FEE7FEE7FEE7FEE7FEE7FEE737
:1001A000FEE7FEE704480549054A064B7047000094
:1001B0002D040008ED0000086800002068060020FB
:1001C000680200206802002070477047704775463B
:1001D00000F028F8AE4605006946534620F00700B7
:1001E000854618B020B5FFF7DDFFBDE820404FF091
:1001F00000064FF000074FF000084FF0000B21F011
:100200000701AC46ACE8C009ACE8C009ACE8C009DD
:10021000ACE8C0098D4670470446AFF30080204625
:10022000FFF7ABFF00487047040000200149182089
:10023000ABBEFEE72600020070472DE9F041024602
:1002400000250026002000230024002791F803C089
:100250000CF00F0591F803C00CF0100CBCF1000F6E
:1002600003D091F802C04CEA050591F800C0BCF13A
:10027000000F31D0146800202BE04FF0010C0CFA75
:1002800000F3B1F800C00CEA03069E4220D18300BF
:100290004FF00F0C0CFA03F7BC4305FA03FC4CEAD1
:1002A000040491F803C0BCF1280F06D14FF0010CF3
:1002B0000CFA00FCC2F814C00AE091F803C0BCF1CB
:1002C000480F05D14FF0010C0CFA00FCC2F810C029
:1002D000401C0828D1D31460B1F800C0BCF1FF0F56
:1002E00034DD546800202EE000F1080C4FF00108C6
:1002F00008FA0CF3B1F800C00CEA03069E4221D1C3
:1003000083004FF00F0C0CFA03F7BC4305FA03FC13
:100310004CEA040491F803C0BCF1280F05D100F1A8
:10032000080C08FA0CF8C2F8148091F803C0BCF16C
:10033000480F07D100F1080C4FF0010808FA0CF83B
:10034000C2F81080401C0828CED35460BDE8F0816C
:100350000161704729B1064A92690243044B9A61D0
:1003600004E0034A92698243014B9A61704700009E
:10037000001002400348006880F003000149086053
:10038000704700000C0C014010B500210020002235
:10039000214B5B6803F00C0121B1042906D0082928
:1003A00028D107E01D4B1E4C236027E01B4B1C4C43
:1003B000236023E0184B5B6803F47010164B5B68F6
:1003C00003F48032022303EB904022B9154B4343E0
:1003D000134C23600DE0104B5B6803F4003323B132
:1003E000104B43430E4C236003E00C4B43430C4C37
:1003F000236003E0094B0A4C236000BF00BF064B9B
:100400005B68C3F30313084CE15C054B1B68CB40EE
:10041000034C236010BD00000010024000127A005F
:100420000000002000093D00100500081148006888
:1004300040F001000F490860084640680E49084036
:100440000C494860084600680C49084009490860A2
:100450000846006820F4802008600846406820F4C0
:10046000FE0048604FF41F008860C803044908601C
:1004700070470000001002400000FFF8FFFFF6FE8A
:1004800008ED00E008B5FFF7D1FFFFF77DFF1C493D
:10049000B1F1807F00D31DE021F07F40401E4FF07E
:1004A000E022506150170F22002807DA13071D0EB3
:1004B000144B00F00F04241F1D5503E013071C0EFE
:1004C000114B1C5400BF00204FF0E0229061072028
:1004D000106100BF01210820FFF73CFF0320ADF8A9
:1004E00000008DF8020010208DF8030069460748CF
:1004F000FFF7A3FE01210548FFF72AFF00BFFEE733
:1005000020AA440018ED00E000E400E0000C0140E7
:1005100000000000000000000102030406070809B3
:10052000000000000102030448050008000000204C
:1005300004000000280100084C0500080400002009
:0C054000640600004401000800A24A0408
:04000005080000ED02
:00000001FF
